:100000000C94B1000C94D9000C94D9000C94D90034
:100010000C94D9000C94D9000C94D9000C94D900FC
:100020000C94D9000C94D9000C94D9000C94D900EC
:100030000C94D9000C94D9000C94D9000C94D900DC
:100040000C94F7050C94D9000C9411090C944309F5
:100050000C94D9000C94D9000C94D9000C94D900BC
:100060000C94D9000C94D9000A417661696C6162E4
:100070006C6520636F6D6D616E64733A0A20203F7A
:1000800020202020202D2073686F777320617661F7
:10009000696C61626C6520636F6D616E64730A20C8
:1000A000206420202020202D2073656C65637465FA
:1000B00064202273656C65637465642220697465CD
:1000C0006D0A20207520202020202D20676F2074AD
:1000D0006F2070726576696F7573206974656D0A3B
:1000E00020206E20202020202D20676F20746F207C
:1000F0006E657874206974656D0A20206220202066
:1001000020202D20676F206261636B0A00000000D1
:1001100008000201000003040700000000000000C6
:100120000001020408102040800102040810200190
:10013000020408102004040404040404040202025B
:10014000020202030303030303000000002500284A
:10015000002B0000000000240027002A00003405C6
:10016000730911241FBECFEFD8E0DEBFCDBF14E06E
:10017000A0E0B1E0E4E4F3E202C005900D92A43205
:10018000B107D9F725E0A4E2B4E001C01D92AC327A
:10019000B207E1F711E0C2E6D1E004C02297FE0108
:1001A0000E945C0FCE35D107C9F70E94EA050C9476
:1001B000A0110C940000CF93DF93EC01862F68838D
:1001C00029834A8361E00E945B0761E089810E9484
:1001D0005B0761E08A810E945B076FEF70E08881B6
:1001E0000E94D3066FEF70E089810E94D3066FEF03
:1001F00070E08A81DF91CF910C94D306FF920F9328
:100200001F93CF93DF93EC01062F142FF22E66E09D
:1002100071E08BE894E00E94110A66E171E08BE8DE
:1002200094E00E94F4094AE050E0602F8BE894E0EB
:100230000E94D30A6CE171E08BE894E00E94F4091B
:100240004AE050E0612F8BE894E00E94D30A66E216
:1002500071E08BE894E00E94F4094AE050E06F2DD1
:100260008BE894E00E94DA0A602F70E088810E9497
:10027000D306612F70E089810E94D3066F2D70E054
:100280008A81DF91CF911F910F91FF900C94D3063B
:10029000CF93DF93EC016FEF70E088810E94D3066B
:1002A0006FEF70E089810E94D3066FEF70E08A8162
:1002B000DF91CF910C94D3068EBD0DB407FEFDCF18
:1002C0008EB50895EF92FF921F93CF93DF9300D0E6
:1002D000CDB7DEB77C01162F6FE271E08BE894E0BA
:1002E0002A8349830E94110AF701108349814183BF
:1002F0002A81228361E0812F0E945B0761E0F70180
:1003000081810E945B0760E0F70182810E945B07A8
:1003100080E00E94D20C83E00E94D70C0E94BC0CAB
:1003200060E0F70181810E94940761E0F70181811B
:100330000F900F90DF91CF911F91FF90EF900C9451
:100340009407CF92DF92EF92FF920F931F93CF9378
:10035000DF9300D01F92CDB7DEB77C01613029F06A
:10036000623009F04FC013E001C010E019821A8218
:100370001B8260E0F70180810E949407812F8160D9
:100380000E945C018E010F5F1F4F6E01F4E0CF0EE3
:10039000D11C8FEF0E945C01F80181938F01EC1555
:1003A000FD05B9F761E0F70180810E94940789811A
:1003B000CA80D12CE12CF12CFE2CED2CDC2CCC2491
:1003C000E82A8B81C82A6AE471E08BE894E00E94F5
:1003D000F4092AE030E0B701A6018BE894E00E941E
:1003E000F10AC701B6010E94E80D20E030E040ECC0
:1003F0005BE40E944F0D24E13EEA47E150E40E9495
:100400009E0E04C060E070E080E89FEB0F900F90BC
:100410000F90DF91CF911F910F91FF90EF90DF90A0
:10042000CF9008951F93CF93DF93EC01162F60E0D8
:1004300088810E949407812F0E945C018FEF0E94A7
:100440005C01182F61E088810E949407812FDF9161
:10045000CF911F910895CF93C62F613021F0623064
:1004600031F467E101C065E1CF910C9412026AE5B5
:1004700071E08BE894E00E94110A4AE050E06C2F92
:100480008BE894E00E94D30A68E671E08BE894E080
:100490000E94110A8FEFCF910895EF92FF921F9360
:1004A000CF93DF931F92CDB7DEB77C01162F60E0AC
:1004B000FC01808149830E949407812F0E945C0186
:1004C0004981842F0E945C0161E0F70180810F90D7
:1004D000DF91CF911F91FF90EF900C949407CF93F1
:1004E000C62F613021F0623031F466E101C064E171
:1004F000CF910C944D026AE571E08BE894E00E9484
:10050000110A4AE050E06C2F8BE894E00E94D30A75
:1005100068E671E08BE894E0CF910C94110A08959D
:10052000DC011496ED91FC911597309709F009952F
:1005300080E090E00895FC01828193810895FC01A0
:10054000738362838CEA91E09183808315821482A5
:100550001782168211861086128613860895FC0172
:100560004385242F30E0828590E0019728173907D2
:1005700061F081E0840F838726819781A22FB92FB4
:10058000A80FB11DA80FB11D05C0662349F0138641
:10059000A681B7818D919C919583848381E0089594
:1005A00080E00895FC018385811103C0662389F0F2
:1005B00082858150838726819781A22FB92FA80F2A
:1005C000B11DA80FB11D8D919C919583848381E00D
:1005D000089580E00895FC01838526819781E22FAC
:1005E000F92FE80FF11DE80FF11D8081918100972F
:1005F00039F0DC01ED91FC910190F081E02D09943E
:1006000080E090E00895EF92FF920F931F93CF93B5
:10061000DF93EC018B017A016A8570E06F5F7F4F99
:10062000660F771F8E819F810E9496109F838E8315
:10063000009791F02A85FC01E20FF11DE20FF11DF8
:1006400011830083F801F582E4828A85811102C05A
:100650001D830C838F5F8A87DF91CF911F910F914C
:10066000FF90EF9008950F931F93CF93DF93EC01CA
:100670008B016A8570E06F5F7F4F660F771F8E81F9
:100680009F810E9496109F838E83009799F0F801B6
:10069000D187C0872A85FC01E20FF11DE20FF11D11
:1006A00011830083211102C01D830C832F5F2A87D1
:1006B000C80102C080E090E0DF91CF911F910F91BF
:1006C0000895FC0126818781E22FF82FE60FF11DA6
:1006D000E60FF11D808191810895FC01848195814F
:1006E0000895FC0182850895FC017383628382EB87
:1006F00091E091838083158214820895FC01118218
:100700001082138212820895FC01828193810C94DD
:10071000AF02FC01828193810C94D2020F931F934C
:10072000CF93DF931F92CDB7DEB78C01FC0182819E
:10073000938169830E94EB026981009711F0F801AF
:1007400005C0662329F0F80180819181938382831B
:100750000F90DF91CF911F910F910895FC01A2811D
:10076000B38180819181A817B90741F018968D91C6
:100770009C9119979383828381E0089580E0089586
:10078000FC0171836083738362830895FC0182811D
:100790009381089564EB71E08BE894E00C94110A66
:1007A00067EC71E08BE894E00C94110A63EE71E061
:1007B0008BE894E00E94110A87E294E00C944801CF
:1007C00060E072E08BE894E00E94110A61E085E04D
:1007D0000E945B076FEF70E085E00E94D30668EB34
:1007E0007BE080E090E00E94700660E070E085E0D1
:1007F0000C94D306CF9366E172E08BE894E00E94FC
:10080000110A61E084E294E00E942B02C82F69E3A0
:1008100072E08BE894E00E94F40940E150E06C2F14
:100820008BE894E00E94DA0A62E084E294E00E949D
:100830002B02C82F6BE472E08BE894E00E94F4096D
:1008400040E150E06C2F8BE894E0CF910C94DA0AF1
:10085000CF934CE361E084E294E00E946F0261E098
:1008600084E294E00E942B02C82F6DE572E08BE8D1
:1008700094E00E94F40940E150E06C2F8BE894E092
:10088000CF910C94DA0ACF92DF92EF92FF926BE94C
:1008900072E08BE894E00E94110A61E084E294E047
:1008A0000E94A1016B017C016FEB72E08BE894E088
:1008B0000E94F40922E030E0B701A6018BE894E041
:1008C000FF90EF90DF90CF900C94EE0B1F93CF939F
:1008D000DF93C8E6D0E0FE011491112371F01A30C5
:1008E00029F46DE08BE894E00E94F609612F8BE813
:1008F00094E00E94F6092196EECFDF91CF911F91EF
:100900000895CF92DF92EF92FF920F931F93CF93B0
:10091000DF936BE171E08BE894E00E94110A8EE7AF
:1009200094E00E94C6038C016EEC72E08BE894E0C8
:100930000E94F409C8010E949B02BC018BE894E06C
:100940000E94110AC8010E946D036C01C0E0D0E052
:10095000C8010E94710390E0C817D907ECF46C2F0E
:10096000C8010E9461037C010E949B02BC018BE8CC
:1009700094E00E94F409CE14DF0431F462EE72E0D8
:100980008BE894E00E94F4096BE171E08BE894E05D
:100990000E94110A2196DCCFDF91CF911F910F9118
:1009A000FF90EF90DF90CF90089526E040E855E269
:1009B00060E070E08BE894E00E94AF080E9466045B
:1009C0006EE474E082E794E00E9433034AEF53E060
:1009D00062E474E08EE494E00E94030348E254E091
:1009E0006CE374E08EE494E00E94030343E454E07B
:1009F00066E374E08EE494E00E94030366E674E02C
:100A000082E794E00E94330348E855E060E374E035
:100A100086E694E00E94030346ED53E06AE274E048
:100A200086E694E00E9403034AEC53E060E674E03B
:100A300082E794E00E94030340EE53E06AE574E02D
:100A400082E794E00E94030340ED53E068E474E021
:100A500082E794E00E94030362E774E08EE794E08B
:100A60000E94C0030C9481048EE794E00E947E03F0
:100A700067EE72E082E794E00E949F026BE073E011
:100A800086E694E00E949F026FE073E080E694E0C7
:100A90000E94740362E173E08AE594E00E947403AB
:100AA00068E173E08EE494E00E949F026CE173E0E1
:100AB00088E494E00E94740368E273E082E494E0C6
:100AC0000E9474036AE373E08CE394E00E94740371
:100AD0006EE573E086E394E00E94740367E673E0DA
:100AE00080E394E00E94740363E773E08AE294E099
:100AF0000E94740321E140E162E187E294E00E94F8
:100B0000DB0022E044E06AE084E294E00C946201BD
:100B10001F93CF93DF931F92CDB7DEB760E873E0EA
:100B20008BE894E00E94110A6FEA73E08BE894E08E
:100B30000E94110A8BE894E00E94CA07892BD1F326
:100B40008BE894E00E94B90C162F8BE894E00E9489
:100B5000B90C462F8BE894E049830E94B90C262FEC
:100B60004981612F87E294E00F90DF91CF911F912F
:100B70000C94FE008BE894E00E94E50718164CF5F3
:100B80008436F9F02CF48F3311F18236A9F00895F0
:100B90008E3659F0853719F08836D9F418C060E0E0
:100BA0008EE794E00E94890305C060E08EE794E040
:100BB0000E9484030C9481048EE794E00E94AE03AB
:100BC000F9CF61E08EE794E00E948E03F3CF0C949E
:100BD000660408950E9498060E94D504C9EFD7E0E4
:100BE0000E94BA052097E1F30E94F907F9CF1F92FE
:100BF0000F920FB60F9211242F933F938F939F93D1
:100C0000AF93BF938091830490918404A091850455
:100C1000B09186043091820423E0230F2D3720F415
:100C20000196A11DB11D05C026E8230F0296A11D46
:100C3000B11D209382048093830490938404A09335
:100C40008504B09386048091870490918804A091D4
:100C50008904B0918A040196A11DB11D8093870477
:100C600090938804A0938904B0938A04BF91AF91B4
:100C70009F918F913F912F910F900FBE0F901F90DA
:100C800018952FB7F8946091830470918404809133
:100C90008504909186042FBF08953FB7F894809102
:100CA000870490918804A0918904B0918A0426B5A4
:100CB000A89B05C02F3F19F00196A11DB11D3FBF94
:100CC0006627782F892F9A2F620F711D811D911D24
:100CD00042E0660F771F881F991F4A95D1F7089544
:100CE000CF92DF92EF92FF92CF93DF936B017C0163
:100CF0000E944D06EB01C114D104E104F10489F016
:100D00000E94E50C0E944D066C1B7D0B683E7340F3
:100D100090F381E0C81AD108E108F108C851DC4F0E
:100D2000EACFDF91CF91FF90EF90DF90CF900895C1
:100D3000789484B5826084BD84B5816084BD85B5B6
:100D4000826085BD85B5816085BDEEE6F0E080817D
:100D500081608083E1E8F0E010828081826080839E
:100D6000808181608083E0E8F0E080818160808321
:100D7000E1EBF0E0808184608083E0EBF0E0808153
:100D800081608083EAE7F0E08081846080838081F5
:100D9000826080838081816080838081806880839D
:100DA0001092C10008951F93CF93DF93182FEB018A
:100DB00061E00E945B07209711F460E004C0CF3F20
:100DC000D10539F461E0812FDF91CF911F910C940F
:100DD0009407E12FF0E0E35FFE4FE491E330F9F098
:100DE00048F4E130B9F0E230A1F584B5806284BD09
:100DF000C8BD34C0E730E9F0E83019F1E43049F516
:100E000080918000806280938000D0938B00C0939B
:100E10008A0024C084B5806884BDC7BD1FC080918E
:100E20008000806880938000D0938900C093880000
:100E300015C08091B00080688093B000C093B3006B
:100E40000DC08091B00080628093B000C093B40068
:100E500005C0C038D1050CF0B5CFAFCFDF91CF9131
:100E60001F910895833081F028F4813099F0823009
:100E7000A1F008958730A9F08830B9F08430D1F41A
:100E8000809180008F7D03C0809180008F77809358
:100E90008000089584B58F7702C084B58F7D84BDAE
:100EA00008958091B0008F7703C08091B0008F7D4E
:100EB0008093B0000895CF93DF9390E0FC01EF5D45
:100EC000FE4F2491FC01EB5CFE4F8491882349F195
:100ED00090E0880F991FFC01ED5AFE4FA591B49147
:100EE000875B9E4FFC01C591D4919FB7611108C0EB
:100EF000F8948C91209582238C93888182230AC058
:100F0000623051F4F8948C91322F309583238C9376
:100F10008881822B888304C0F8948C91822B8C93D7
:100F20009FBFDF91CF9108950F931F93CF93DF93CE
:100F30001F92CDB7DEB7282F30E0F901E35FFE4FF7
:100F40008491F901EF5DFE4F1491F901EB5CFE4FC6
:100F500004910023C9F0882321F069830E9432079D
:100F60006981E02FF0E0EE0FFF1FE75BFE4FA591D8
:100F7000B4919FB7F8948C91611103C010958123AF
:100F800001C0812B8C939FBF0F90DF91CF911F9158
:100F90000F910895FC01818D228D90E0805C9F4F20
:100FA000821B910960E470E00E94050F0895FC0126
:100FB000918D828D981731F0828DE80FF11D858D0E
:100FC00090E008958FEF9FEF0895FC01918D828D41
:100FD000981761F0828DDF01A80FB11D5D968C918D
:100FE000928D9F5F9F73928F90E008958FEF9FEF98
:100FF000089589E699E0892B49F080E090E0892BFB
:1010000029F00E94690981110C9400000895FC01E7
:10101000848DDF01A80FB11DA35ABF4F2C91848D81
:1010200090E001968F739927848FA689B7892C93B6
:10103000A089B1898C9180648C93938D848D981351
:1010400006C00288F389E02D80818F7D808308951A
:10105000CF93DF93EC01888D8823C9F0EA89FB895F
:10106000808185FD05C0A889B9898C9186FD0FC056
:101070000FB607FCF5CF808185FFF2CFA889B9892B
:101080008C9185FFEDCFCE010E940708E7CFDF915D
:10109000CF910895CF92DF92FF920F931F93CF933A
:1010A000DF931F92CDB7DEB76C01DC015B969C919C
:1010B0005B975C968C915C97981307C05096ED9166
:1010C000FC915197808185FD32C0F601038D10E0BF
:1010D0000F5F1F4F0F731127F02EF601848DF8124A
:1010E00011C00FB607FCF9CFD6015096ED91FC91D7
:1010F0005197808185FFF1CFC60169830E9407085F
:101100006981EBCF838DE80FF11DE35AFF4F6083B8
:10111000D6015B960C935B975296ED91FC91539799
:1011200080818062808381E058968C930DC0D601C7
:101130005696ED91FC91579760835096ED91FC91F6
:10114000519780818064808381E090E00F90DF91EF
:10115000CF911F910F91FF90DF90CF900895BF9294
:10116000CF92DF92EF92FF92CF93DF93EC016A016F
:101170007B01B22EE889F98982E08083411581EEF6
:10118000580761057105A1F060E079E08DE390E01A
:10119000A70196010E94190F2150310941095109F7
:1011A0005695479537952795211580E1380798F092
:1011B000E889F989108260E874E88EE190E0A7017F
:1011C00096010E94190F2150310941095109569584
:1011D000479537952795EC85FD853083EE85FF850E
:1011E0002083188EEC89FD89B082EA89FB89808191
:1011F00080618083EA89FB89808188608083EA89B5
:10120000FB89808180688083EA89FB8980818F7D6A
:101210008083DF91CF91FF90EF90DF90CF90BF90D0
:1012200008951F920F920FB60F9211242F938F9350
:101230009F93EF93FF93E0919B04F0919C04808136
:10124000E091A104F091A20482FD12C090818091EE
:10125000A4048F5F8F732091A504821751F0E09151
:10126000A404F0E0E557FB4F958F8093A40401C0E0
:101270008081FF91EF919F918F912F910F900FBEE1
:101280000F901F9018951F920F920FB60F92112476
:101290002F933F934F935F936F937F938F939F937E
:1012A000AF93BF93EF93FF938BE894E00E940708FE
:1012B000FF91EF91BF91AF919F918F917F916F912E
:1012C0005F914F913F912F910F900FBE0F901F9004
:1012D00018958BE894E00E94CA0721E0892B09F455
:1012E00020E0822F089510928E0410928D0488EED3
:1012F00093E0A0E0B0E080938F0490939004A093DB
:101300009104B093920489E094E090938C048093CC
:101310008B0485EC90E0909398048093970484EC80
:1013200090E090939A048093990480EC90E09093DD
:101330009C0480939B0481EC90E090939E048093A6
:101340009D0482EC90E09093A00480939F0486EC2F
:1013500090E09093A2048093A1041092A4041092B0
:10136000A5041092A6041092A7040895CF92DF92CC
:10137000EF92FF920F931F93CF93DF936C017A014B
:10138000EB01E60EF71E00E010E0CE15DF0561F080
:101390006991D601ED91FC910190F081E02DC6019B
:1013A0000995080F191FF1CFC801DF91CF911F9147
:1013B0000F91FF90EF90DF90CF9008956115710528
:1013C00081F0DB010D900020E9F7AD01415051099A
:1013D000461B570BDC01ED91FC910280F381E02D5F
:1013E000099480E090E008950C94DE09DC01ED9111
:1013F000FC910190F081E02D09940F931F93CF93FE
:10140000DF93EC016DE00E94F6098C016AE0CE01E9
:101410000E94F609800F911FDF91CF911F910F91CC
:1014200008950F931F93CF93DF93EC010E94DE0981
:101430008C01CE010E94FD09800F911FDF91CF9199
:101440001F910F9108958F929F92AF92BF92CF926A
:10145000DF92EF92FF920F931F93CF93DF93CDB75D
:10146000DEB7A1970FB6F894DEBF0FBECDBF7C01EB
:10147000C42EE52FCB01D22E19A221E02D1510F09C
:101480002AE0D22E8E010F5D1F4F8D2C912CA12CA6
:10149000B12C6C2D7E2FA50194010E94190F8C2D6B
:1014A000D29E80191124015011098A3014F4805DF4
:1014B00001C0895CF8018083211531054105510582
:1014C00021F0C22EE32FCA01E4CFB801C7010E9468
:1014D000DE09A1960FB6F894DEBF0FBECDBFDF9137
:1014E000CF911F910F91FF90EF90DF90CF90BF9021
:1014F000AF909F908F900895CF92DF92EF92FF92DE
:101500000F931F93CF93DF93EC016A017B012115A9
:10151000310579F4E881F9810190F081E02D642FA3
:10152000DF91CF911F910F91FF90EF90DF90CF90BF
:1015300009942A303105E9F477FF1AC06DE20E9460
:10154000F6098C0144275527BA014C195D096E092B
:101550007F092AE0CE010E94230A800F911FDF91AC
:10156000CF911F910F91FF90EF90DF90CF90089552
:101570002AE0B701A601CE01DF91CF911F910F9113
:10158000FF90EF90DF90CF900C94230A2115310546
:1015900041F4DC01ED91FC910190F081E02D642F8C
:1015A00009940C94230A9A01462F50E060E070E001
:1015B0000C94C60A0F931F93CF93DF93EC019A010B
:1015C000462F50E060E070E00E94C60A8C01CE0118
:1015D0000E94FD09800F911FDF91CF911F910F9104
:1015E00008950F931F93CF93DF93EC010E94C60AD7
:1015F0008C01CE010E94FD09800F911FDF91CF91D8
:101600001F910F9108954F925F926F927F928F92E8
:101610009F92AF92BF92CF92DF92EF92FF920F9381
:101620001F93CF93DF93EC016A017B01B22E9A01E5
:10163000AB01C701B6010E94010F882319F065E1D3
:1016400074E027C026013701E89477F82FEF3FEFC9
:101650004FE75FE7C301B2010E94010F81110DC086
:101660002FEF3FEF4FE75FE7C301B2010E944B0D41
:1016700018161CF469E174E00CC02FEF3FEF4FE740
:101680005FE4C701B6010E949A0E1816ACF46DE132
:1016900074E0CE01DF91CF911F910F91FF90EF90F9
:1016A000DF90CF90BF90AF909F908F907F906F9082
:1016B0005F904F900C94DE092FEF3FEF4FE75FEC08
:1016C000C701B6010E944B0D87FDE1CF20E030E05D
:1016D000A901C701B6010E944B0D87FF0AC06DE248
:1016E000CE010E94F6098C01F7FAF094F7F8F09415
:1016F00002C000E010E0A12C60E070E080E09FE319
:10170000AB1441F020E030E040E251E40E944F0D84
:10171000A394F6CF9B01AC01C701B6010E94E70C70
:101720006B017C010E94BC0D2B013C010E94E80D65
:101730009B01AC01C701B6010E94E60C6B017C0164
:101740002AE0B301A201CE010E94230A080F191F4B
:10175000BB2039F061E274E0CE010E94DE09080F7F
:10176000191F7B2C772041F120E030E040E251E46A
:10177000C701B6010E949E0E6B017C010E94B70D4D
:101780004B01AA2497FCA094BA2C2AE030E0B501C2
:10179000A401CE010E947C0A080F191FC501B401E3
:1017A0000E94EA0D9B01AC01C701B6010E94E60C44
:1017B0006B017C017A94D6CFC801DF91CF911F9144
:1017C0000F91FF90EF90DF90CF90BF90AF909F90E0
:1017D0008F907F906F905F904F9008950F931F931D
:1017E000CF93DF93EC010E94030B8C01CE010E948A
:1017F000FD09800F911FDF91CF911F910F910895E7
:101800000F931F93CF93DF93EC010E9441066887EB
:1018100079878A879B87E881F9810084F185E02DAB
:10182000CE01099597FF15C00E94410608851985CC
:101830002A853B85601B710B820B930B0C811D81EC
:101840002E813F81601771078207930720F38FEF86
:101850009FEFDF91CF911F910F910895CF93DF9369
:10186000EC01CE010E94000C97FD11C08D32910554
:1018700071F09C01205331092A30310540F0E88194
:10188000F9810680F781E02DCE010995EACFDF913D
:10189000CF910895CF92DF92FF920F931F93CF9332
:1018A000DF9300D000D0CDB7DEB76C01062F0E94C9
:1018B0002E0CFC0197FD4BC020E030E0A901F12C7B
:1018C000112707FD1095E017F107E9F0ED32F1055A
:1018D000C1F0CF01C0970A97B0F4AAE0B0E00E942F
:1018E0003B0F9B01AC01CF01AA2797FDA095BA2F12
:1018F000280F391F4A1F5B1F205331094109510925
:1019000002C0FF24F394D601ED91FC910680F7818B
:10191000E02DC60129833A834B835C830995C60178
:101920000E94000CFC01C09729813A814B815C81A7
:101930000A9748F2E017F10731F2FF2061F06627BD
:101940007727CB01621B730B840B950B06C060E0FD
:1019500070E0CB0102C0CA01B9010F900F900F9047
:101960000F90DF91CF911F910F91FF90DF90CF905B
:10197000089561E00C944A0C61E08AE00E949407AB
:1019800061E08AE00E945B078CB580618CBD8CB5FC
:1019900080648CBD61E08DE00E945B0761E08BE0BC
:1019A0000C945B079CB5937F982B9CBD08952CB538
:1019B000982F93702C7F922B9CBD9DB582FB88271E
:1019C00080F99E7F982B9DBD089508955058BB27A0
:1019D000AA270ED075C166D130F06BD120F031F45A
:1019E0009F3F11F41EF45BC10EF4E095E7FB51C17B
:1019F000E92F77D180F3BA17620773078407950739
:101A000018F071F49EF58FC10EF4E0950B2EBA2FED
:101A1000A02D0B01B90190010C01CA01A0011124F4
:101A2000FF27591B99F0593F50F4503E68F11A16A0
:101A3000F040A22F232F342F4427585FF3CF469531
:101A400037952795A795F0405395C9F77EF41F1653
:101A5000BA0B620B730B840BBAF09150A1F0FF0F1D
:101A6000BB1F661F771F881FC2F70EC0BA0F621F09
:101A7000731F841F48F4879577956795B795F795F9
:101A80009E3F08F0B3CF9395880F08F09927EE0F8B
:101A9000979587950895D9D008F481E008950CD0E2
:101AA0000FC107D140F0FED030F021F45F3F19F0B4
:101AB000F0C0511139C1F3C014D198F39923C9F37F
:101AC0005523B1F3951B550BBB27AA276217730744
:101AD000840738F09F5F5F4F220F331F441FAA1FF8
:101AE000A9F333D00E2E3AF0E0E830D091505040B8
:101AF000E695001CCAF729D0FE2F27D0660F771F66
:101B0000881FBB1F261737074807AB07B0E809F047
:101B1000BB0B802DBF01FF2793585F4F2AF09E3FDC
:101B2000510568F0B6C000C15F3FECF3983EDCF3AE
:101B3000869577956795B795F7959F5FC9F7880F55
:101B4000911D9695879597F90895E1E0660F771FA7
:101B5000881FBB1F621773078407BA0720F0621B38
:101B6000730B840BBA0BEE1F88F7E095089504D031
:101B70006894B111D9C00895BCD088F09F5790F0F7
:101B8000B92F9927B751A0F0D1F0660F771F881FA2
:101B9000991F1AF0BA95C9F712C0B13081F0C3D0BD
:101BA000B1E00895C0C0672F782F8827B85F39F05B
:101BB000B93FCCF3869577956795B395D9F73EF401
:101BC00090958095709561957F4F8F4F9F4F0895A9
:101BD000E89409C097FB3EF49095809570956195C7
:101BE0007F4F8F4F9F4F9923A9F0F92F96E9BB277D
:101BF0009395F695879577956795B795F111F8CFF9
:101C0000FAF4BB0F11F460FF1BC06F5F7F4F8F4F63
:101C10009F4F16C0882311F096E911C0772321F059
:101C20009EE8872F762F05C0662371F096E8862FF1
:101C300070E060E02AF09A95660F771F881FDAF748
:101C4000880F9695879597F90895990F0008550F75
:101C5000AA0BE0E8FEEF16161706E807F907C0F032
:101C600012161306E407F50798F0621B730B840B3A
:101C7000950B39F40A2661F0232B242B252B21F414
:101C800008950A2609F4A140A6958FEF811D811DB4
:101C9000089597F99F6780E870E060E008959FEFEE
:101CA00080EC089500240A941616170618060906F3
:101CB000089500240A9412161306140605060895C2
:101CC000092E0394000C11F4882352F0BB0F40F44A
:101CD000BF2B11F460FF04C06F5F7F4F8F4F9F4F8A
:101CE000089557FD9058440F551F59F05F3F71F00C
:101CF0004795880F97FB991F61F09F3F79F0879573
:101D00000895121613061406551FF2CF4695F1DFFB
:101D100008C0161617061806991FF1CF869571058B
:101D2000610508940895E894BB2766277727CB01BF
:101D300097F908958ADF08F48FEF08950BD0C0CF8C
:101D4000B1DF28F0B6DF18F0952309F0A2CFA7CFB6
:101D50001124EACFC6DFA0F3959FD1F3950F50E091
:101D6000551F629FF001729FBB27F00DB11D639F4D
:101D7000AA27F00DB11DAA1F649F6627B00DA11DF3
:101D8000661F829F2227B00DA11D621F739FB00D99
:101D9000A11D621F839FA00D611D221F749F332709
:101DA000A00D611D231F849F600D211D822F762FA2
:101DB0006A2F11249F5750408AF0E1F088234AF09F
:101DC000EE0FFF1FBB1F661F771F881F91505040EB
:101DD000A9F79E3F510570F05CCFA6CF5F3FECF3B3
:101DE000983EDCF3869577956795B795F795E795D7
:101DF0009F5FC1F7FE2B880F911D9695879597F9E8
:101E0000089523DF880B990B089597FB072E16F48E
:101E1000009407D077FD09D00E94460F07FC05D03B
:101E20003EF4909581959F4F0895709561957F4FF1
:101E30000895A1E21A2EAA1BBB1BFD010DC0AA1F0B
:101E4000BB1FEE1FFF1FA217B307E407F50720F023
:101E5000A21BB30BE40BF50B661F771F881F991F9E
:101E60001A9469F760957095809590959B01AC01E7
:101E7000BD01CF0108950E94600FA59F900DB49FF2
:101E8000900DA49F800D911D11240895AA1BBB1BCA
:101E900051E107C0AA1FBB1FA617B70710F0A61B6A
:101EA000B70B881F991F5A95A9F780959095BC018B
:101EB000CD010895EE0FFF1F0590F491E02D0994D8
:101EC000A29FB001B39FC001A39F700D811D11247B
:101ED000911DB29F700D811D1124911D0895CF9306
:101EE000DF938230910510F482E090E0E0912A05C2
:101EF000F0912B0520E030E0A0E0B0E0309739F120
:101F00004081518148175907B8F04817590771F4B3
:101F100082819381109729F013969C938E93129748
:101F20002CC090932B0580932A0527C021153105DD
:101F300031F04217530718F0A901DB0101C0EF018E
:101F40009A01BD01DF010280F381E02DD7CF211579
:101F50003105F9F0281B390B2430310580F48A81D2
:101F60009B816115710521F0FB019383828304C07D
:101F700090932B0580932A05FE01329644C0FE0102
:101F8000E20FF31F81939193225031093983288303
:101F90003AC02091280530912905232B41F4209146
:101FA00002013091030130932905209328052091E7
:101FB0000001309101012115310541F42DB73EB7E3
:101FC0004091040150910501241B350BE091280537
:101FD000F0912905E217F307A0F42E1B3F0B2817F9
:101FE000390778F0AC014E5F5F4F2417350748F092
:101FF0004E0F5F1F509329054093280581939193BD
:1020000002C0E0E0F0E0CF01DF91CF910895CF93DF
:10201000DF93009709F487C0FC0132971382128284
:10202000C0912A05D0912B05209781F42081318120
:10203000280F391F80912805909129058217930751
:1020400079F5F0932905E09328056DC0DE0120E0C5
:1020500030E0AE17BF0750F412964D915C91139784
:102060009D014115510509F1DA01F3CFB383A28334
:1020700040815181840F951F8A179B0771F48D91C0
:102080009C911197840F951F0296918380831296DD
:102090008D919C911397938382832115310529F4A7
:1020A000F0932B05E0932A053EC0D9011396FC93CB
:1020B000EE9312974D915D91A40FB51FEA17FB07A0
:1020C00079F480819181840F951F0296D901119630
:1020D0009C938E938281938113969C938E931297F7
:1020E000E0E0F0E08A819B81009719F0FE01EC01AD
:1020F000F9CFCE01029628813981820F931F20915A
:102100002805309129052817390769F4309729F4F3
:1021100010922B0510922A0502C013821282D093CE
:102120002905C0932805DF91CF910895A0E0B0E084
:10213000ECE9F0E10C946D11EC01CB01209719F45E
:102140000E946F0FB8C0FE01E60FF71F9E012250DC
:102150003109E217F30708F4ACC0D9010D911C91C5
:10216000119706171707B8F00530110508F49FC03E
:10217000A801445051094617570708F498C0025067
:102180001109061B170B019311936D937C93CF01DB
:102190000E9407108CC05B01A01AB10A4E01800E8C
:1021A000911EA0912A05B0912B05612C712C60E045
:1021B00070E0109709F449C0A815B905C9F5ED906C
:1021C000FC901197670142E0C40ED11CCA14DB04D5
:1021D00078F147018A189B08640142E0C40ED11CC3
:1021E0001296BC9012971396AC91B5E0CB16D10421
:1021F00040F0B282A38391828082D9018D939C9317
:1022000009C00E5F1F4F0E0D1F1DF90111830083C2
:10221000EB2DFA2F6115710531F0DB011396FC935C
:10222000EE93129744C0F0932B05E0932A053FC02C
:102230006D917C9111976616770608F43B01BD01FC
:1022400012960D90BC91A02DB4CF6091280570918D
:10225000290568157905E9F468167906D0F44091E6
:102260000001509101014115510541F44DB75EB790
:102270006091040170910501461B570BE417F507A7
:10228000C0F4F0932905E0932805F9019183808338
:102290000EC00E946F0F7C01009759F0A801BE018B
:1022A0000E946011CE010E940710C70104C0CE0138
:1022B00002C080E090E0CDB7DEB7EEE00C9489116B
:1022C000FB01DC0102C001900D9241505040D8F753
:1022D00008952F923F924F925F926F927F928F92CA
:1022E0009F92AF92BF92CF92DF92EF92FF920F93A5
:1022F0001F93CF93DF93CDB7DEB7CA1BDB0B0FB6AF
:10230000F894DEBF0FBECDBF09942A88398848886B
:102310005F846E847D848C849B84AA84B984C88401
:10232000DF80EE80FD800C811B81AA81B981CE0FF8
:10233000D11D0FB6F894DEBF0FBECDBFED010895DD
:04234000F894FFCF3F
:1023440000002C0580002A2A2A7475726E4C4544BC
:102354006F6E2A2A2A005265643A20002C204772A4
:1023640065656E3A20002C20426C75653A20002A7F
:102374002A2A2A44454255473A20494E204D435083
:102384003339303120494E4954002D2D3E204144EB
:10239400432056616C75653A2000596F7520656E4F
:1023A40074657265643A20007468697320726F758D
:1023B40074696E6520657870656374656420656909
:1023C400746865722061203120666F7220636F6EBD
:1023D4006669672031206F72203220666F72206335
:1023E4006F6E666967203200000000008F020000F3
:1023F400000090020A2A2A2A2A3E207048205365A7
:102404006C6563746564000A2A2A2A2A3E2074656E
:102414006D70657261747572652053656C65637463
:102424006564000A2A2A2A2A3E205475726E206F97
:102434006666204C45442053656C6563746564008E
:102444000A2A2A2A2A3E2070756D70732053656CFF
:102454006563746564000A2A2A2A2A2A2A2A2A2AEF
:102464002A2A2A2A2A2A2A2A2A2A2A2A2A2A2A2AC8
:102474002A2A2A2A2A2A2A2A002D2D2D3E20436F71
:102484006E66696720313A203058002D2D2D3E208C
:10249400436F6E66696720323A203058002D2D2D27
:1024A4003E20436F6E66696720312073686F756CD8
:1024B4006420626520305833432E2E68657265208F
:1024C4006973207468652076616C756520696E2077
:1024D4006D656D6F72793A203058002A2A2A2A2AAB
:1024E4002A2A2A2A2A2A2A2A2A2A2A2A2A2A2A2A48
:1024F4002A2A2A2A2A2A2A2A2A2A2A2A2A2A005636
:102504006F6C742072656164696E673A200043756C
:102514007272656E74206D656E75206E616D653ABC
:1025240020003C3C3C20004865616C746879207054
:102534004820536869656C6420446961676E6F73F1
:1025440074696320546573747320004C45440070AF
:10255400480070756D7073005350490074656D7058
:1025640065726174757265007265616420434F4ED3
:102574004649472062797465730073657420434F3C
:102584004E464947203120746F20323420626974EA
:102594007320616E64204F53523D323536007265AC
:1025A400616420414443005475726E204C454420BC
:1025B4006F6E005475726E204C4544206F66660041
:1025C4000A2A2A2A2A3E205475726E206F6E204CE5
:1025D40045442053656C65637465642028436F6DBE
:1025E4006D6F6E20416E6F6465204C454429004533
:1025F4004E544552205252522C4747472C42424295
:1026040020666F7220746865205245442C2047521E
:1026140045454E2C20424C55452076616C756573BA
:10262400206F6620746865204C45442028652E6719
:102634002E2072656420697320302C3235352C329B
:102644003535293A00000000004A08B609CA07E5F2
:1026540007D70728086E616E00696E66006F76669C
:04266400002E000044
:00000001FF
