:100000000C94F2000C941A010C941A010C941A012D
:100010000C941A010C941A010C941A010C941A01F4
:100020000C941A010C941A010C941A010C941A01E4
:100030000C941A010C941A010C941A010C941A01D4
:100040000C94C6050C941A010C94E0080C94120947
:100050000C941A010C941A010C941A010C941A01B4
:100060000C941A010C941A0107634236B79BD8A767
:100070001A39685618AEBAAB558C1D3CB7CC5763CD
:10008000BD6DEDFD753EF6177231BF000000803F7B
:1000900008000000BE922449123EABAAAA2ABECD97
:1000A000CCCC4C3E00000080BEABAAAAAA3E000009
:1000B0000000BF000000803F000000000008417801
:1000C000D3BB4387D1133D190E3CC3BD4282AD2B38
:1000D0003E68EC8276BED98FE1A93E4C80EFFFBE30
:1000E00001C4FF7F3F00000000000A417661696C97
:1000F00061626C6520636F6D6D616E64733A0A2096
:10010000203F20202020202D2073686F77732061EE
:100110007661696C61626C6520636F6D616E64739A
:100120000A20206420202020202D2073656C656328
:10013000746564202273656C65637465642220694C
:1001400074656D0A20207520202020202D20676FE7
:1001500020746F2070726576696F7573206974659D
:100160006D0A20206E20202020202D20676F207413
:100170006F206E657874206974656D0A2020622096
:10018000202020202D20676F206261636B0A000011
:100190000000080002010000030407000000000046
:1001A0000000000102040810204080010204081031
:1001B00020010204081020040404040404040402BE
:1001C00002020202020303030303030000000025EE
:1001D0000028002B0000000000240027002A000057
:1001E0001005420911241FBECFEFD8E0DEBFCDBFFE
:1001F00014E0A0E0B1E0E4E6F3E202C005900D9265
:10020000A632B107D9F725E0A6E2B4E001C01D92FD
:10021000A632B207E1F711E0C4EED1E004C02297A4
:10022000FE010E946C0FC03ED107C9F70E94B905BC
:100230000C94B0110C940000CF93DF93EC01862F47
:10024000688329834A8361E00E942A0761E08981EB
:100250000E942A0761E08A81DF91CF910C942A07DE
:10026000FF920F931F93CF93DF93EC01062F142F70
:10027000F22E66E071E085E894E00E94E00966E114
:1002800071E085E894E00E94C3094AE050E0602FE5
:1002900085E894E00E94AA0A6CE171E085E894E0A8
:1002A0000E94C3094AE050E0612F85E894E00E9473
:1002B000AA0A66E271E085E894E00E94C3094AE078
:1002C00050E06F2D85E894E00E94B10A602F70E045
:1002D00088810E94A206612F70E089810E94A20697
:1002E0006F2D70E08A81DF91CF911F910F91FF9068
:1002F0000C94A2060895DC011496ED91FC911597DB
:10030000309709F0099580E090E00895FC01828122
:1003100093810895FC017383628383E391E0918369
:1003200080831582148217821682118610861286A7
:1003300013860895FC014385242F30E0828590E0E8
:1003400001972817390761F081E0840F83872681A0
:100350009781A22FB92FA80FB11DA80FB11D05C0FD
:10036000662349F01386A681B7818D919C91958370
:10037000848381E0089580E00895FC0183858111E4
:1003800003C0662389F08285815083872681978107
:10039000A22FB92FA80FB11DA80FB11D8D919C914F
:1003A0009583848381E0089580E00895FC0183852E
:1003B00026819781E22FF92FE80FF11DE80FF11D3B
:1003C00080819181009739F0DC01ED91FC910190E1
:1003D000F081E02D099480E090E00895EF92FF9283
:1003E0000F931F93CF93DF93EC018B017A016A8502
:1003F00070E06F5F7F4F660F771F8E819F810E9435
:10040000A6109F838E83009791F02A85FC01E20F4E
:10041000F11DE20FF11D11830083F801F582E482E2
:100420008A85811102C01D830C838F5F8A87DF91CB
:10043000CF911F910F91FF90EF9008950F931F930D
:10044000CF93DF93EC018B016A8570E06F5F7F4F84
:10045000660F771F8E819F810E94A6109F838E83D7
:10046000009799F0F801D187C0872A85FC01E20F37
:10047000F11DE20FF11D11830083211102C01D83C4
:100480000C832F5F2A87C80102C080E090E0DF91D3
:10049000CF911F910F910895FC0126818781E22F52
:1004A000F82FE60FF11DE60FF11D8081918108956F
:1004B000FC01848195810895FC0182850895FC01E9
:1004C0007383628389E391E0918380831582148230
:1004D0000895FC0111821082138212820895FC019A
:1004E000828193810C949A01FC01828193810C9406
:1004F000BD010F931F93CF93DF931F92CDB7DEB74C
:100500008C01FC018281938169830E94D6016981FB
:10051000009711F0F80105C0662329F0F8018081E9
:100520009181938382830F90DF91CF911F910F91DF
:100530000895FC01A281B38180819181A817B90738
:1005400041F018968D919C9119979383828381E055
:10055000089580E00895FC01718360837383628352
:100560000895FC018281938108958EBD0DB407FE2C
:10057000FDCF8EB508951F93CF93DF931F92CDB714
:10058000DEB7862F142F61E029830E942A0761E0DD
:10059000812F0E942A0760E02981822F0E942A076A
:1005A00080E00E94B60B83E00E94BB0B0E94A00B70
:1005B00061E0812F0F90DF91CF911F910C94630721
:1005C0000F931F93CF93DF931F92CDB7DEB7162FF4
:1005D00060E0812F49830E9463074981842F8160F5
:1005E0000E94B5028FEF0E94B502082F61E0812FB3
:1005F0000E946307802F0F90DF91CF911F910F9181
:100600000895CF93DF93C62F44E150E00E94E002AB
:10061000D82F60E08C2F0E94630784E10E94B5020E
:100620008D2F8C600E94B50261E08C2FDF91CF91FD
:100630000C9463078F929F92AF92BF92CF92DF92FA
:10064000EF92FF920F931F93CF93DF9300D000D0D0
:10065000CDB7DEB78B0188E0489F50011124812C73
:10066000912C6B01E12CF12C8A149B046CF5B401E4
:10067000882777FD8095982F0E949D0C9B01AC01E7
:1006800060E070E080E090E40E94B00D9B01AC015E
:10069000C701B60129833A834B835C830E949B0C7C
:1006A00029813A814B815C810E942F0C87FF08C011
:1006B0004AE050E060E070E085E894E00E94950A2E
:1006C000EFEF8E1A9E0AD0CF42E050E0B80185E8E5
:1006D00094E00E94C80A6BE371E085E894E00E9410
:1006E000C30940E150E0B80185E894E00F900F9015
:1006F0000F900F90DF91CF911F910F91FF90EF908E
:10070000DF90CF90BF90AF909F908F900C94CE0AC7
:10071000DF92EF92FF920F931F93CF93DF93EC0141
:10072000D62E44E150E00E94E002082F60E471E020
:1007300085E894E00E94C30910E041E0B801CE01D1
:100740000E941A03F02EEE2446E150E06D2DCE01FA
:100750000E94E002082F6EE571E085E894E00E94B7
:10076000C30910E041E0B801CE010E941A03C7019D
:10077000802B912BDF91CF911F910F91FF90EF90E4
:10078000DF900895EF92FF920F931F93CF93DF9323
:10079000EC01F62EE42E0E94BB026CE771E085E8C6
:1007A00094E00E94E0096F2DCE010E9488038C0125
:1007B0006CE971E085E894E00E94C30940E150E0F3
:1007C000B80185E894E00E94CE0A6FEA71E085E8FE
:1007D00094E00E94E0096F2DCE010E9401036CE7B6
:1007E00071E085E894E00E94E0096F2DCE010E943F
:1007F000880360E08E2D0E94630762E370E080E072
:1008000090E00E943F0669E172E085E894E00E9472
:10081000E00961E08E2D0E9463076F2DCE010E94DA
:100820008803DF91CF911F910F91FF90EF90089572
:1008300064E472E085E894E00C94E00961E672E01B
:1008400085E894E00C94E00964E772E085E894E0C0
:100850000C94E0096AE872E085E894E00C94E00901
:1008600066EA72E085E894E00E94E00922E044E054
:100870006AE089E294E00C94C2036CEC72E085E8D3
:1008800094E00E94E00923E045E069E089E294E019
:100890000C94C2031F93CF93DF93CAEED0E0FE0106
:1008A0001491112371F01A3029F46DE085E894E079
:1008B0000E94C509612F85E894E00E94C509219630
:1008C000EECFDF91CF911F910895CF92DF92EF92FB
:1008D000FF920F931F93CF93DF936BE171E085E855
:1008E00094E00E94E00988E794E00E94B1028C0144
:1008F00062EF72E085E894E00E94C309C8010E949B
:100900008601BC0185E894E00E94E009C8010E94CC
:1009100058026C01C0E0D0E0C8010E945C0290E087
:10092000C817D907ECF46C2FC8010E944C027C0157
:100930000E948601BC0185E894E00E94C309CE14A0
:10094000DF0431F466E073E085E894E00E94C309B7
:100950006BE171E085E894E00E94E0092196DCCF2C
:10096000DF91CF911F910F91FF90EF90DF90CF908B
:10097000089526E040E855E260E070E085E894E004
:100980000E947E080E944A0468E474E08CE694E0C9
:100990000E941E0240E354E06CE374E088E494E0BB
:1009A0000E94EE014DE354E066E374E088E494E0D5
:1009B0000E94EE0160E674E08CE694E00E941E0264
:1009C00047E555E060E374E080E694E00E94EE01C4
:1009D00048E154E06AE274E080E694E00E94EE01AF
:1009E0004EE154E06AE574E08CE694E00E94EE018A
:1009F00044E254E064E574E08CE694E00E94EE0189
:100A00004AE254E062E474E08CE694E00E94EE0175
:100A10006CE674E088E794E00E94AB020C946504F5
:100A200088E794E00E9469026BE073E08CE694E052
:100A30000E948A016FE273E080E694E00E948A01DE
:100A400063E373E08AE594E00E945F0266E373E08B
:100A500084E594E00E945F026CE373E088E494E034
:100A60000E948A0160E473E082E494E00E945F02E5
:100A70006CE473E08CE394E00E945F0262E673E052
:100A800086E394E00E945F0268E773E080E394E00D
:100A90000E945F0264E873E08AE294E00E945F02D1
:100AA00021E140E162E186E294E00C941C011F9395
:100AB000CF93DF931F92CDB7DEB761E973E085E88E
:100AC00094E00E94E00960EC73E085E894E00E9405
:100AD000E00985E894E00E949907892BD1F385E825
:100AE00094E00E949D0B162F85E894E00E949D0BD8
:100AF000462F85E894E049830E949D0B262F49816B
:100B0000612F86E294E00F90DF91CF911F910C94BA
:100B1000300185E894E00E94B40718164CF584363D
:100B2000F9F02CF48F3311F18236A9F008958E3646
:100B300059F0853719F08836D9F418C060E088E795
:100B400094E00E94740205C060E088E794E00E948F
:100B50006F020C94650488E794E00E949902F9CF33
:100B600061E088E794E00E947902F3CF0C944A0494
:100B700008950E9467060E94B904C8ECD7E00E945D
:100B800089052097E1F30E94C807F9CF1F920F92C1
:100B90000FB60F9211242F933F938F939F93AF9390
:100BA000BF9380917D0490917E04A0917F04B091C9
:100BB000800430917C0423E0230F2D3720F401962C
:100BC000A11DB11D05C026E8230F0296A11DB11D70
:100BD00020937C0480937D0490937E04A0937F04F3
:100BE000B09380048091810490918204A091830449
:100BF000B09184040196A11DB11D8093810490934E
:100C00008204A0938304B0938404BF91AF919F9119
:100C10008F913F912F910F900FBE0F901F901895BD
:100C20002FB7F89460917D0470917E0480917F04C9
:100C3000909180042FBF08953FB7F894809181046C
:100C400090918204A0918304B091840426B5A89B5E
:100C500005C02F3F19F00196A11DB11D3FBF6627AA
:100C6000782F892F9A2F620F711D811D911D42E0EF
:100C7000660F771F881F991F4A95D1F70895CF9265
:100C8000DF92EF92FF92CF93DF936B017C010E9482
:100C90001C06EB01C114D104E104F10489F00E94A7
:100CA000C90B0E941C066C1B7D0B683E734090F3C1
:100CB00081E0C81AD108E108F108C851DC4FEACF39
:100CC000DF91CF91FF90EF90DF90CF9008957894CF
:100CD00084B5826084BD84B5816084BD85B5826041
:100CE00085BD85B5816085BDEEE6F0E080818160DF
:100CF0008083E1E8F0E010828081826080838081DF
:100D000081608083E0E8F0E0808181608083E1EBB6
:100D1000F0E0808184608083E0EBF0E0808181609E
:100D20008083EAE7F0E08081846080838081826054
:100D3000808380818160808380818068808310923D
:100D4000C10008951F93CF93DF93182FEB0161E04B
:100D50000E942A07209711F460E004C0CF3FD1051C
:100D600039F461E0812FDF91CF911F910C946307DB
:100D7000E12FF0E0E157FE4FE491E330F9F048F461
:100D8000E130B9F0E230A1F584B5806284BDC8BD20
:100D900034C0E730E9F0E83019F1E43049F58091EA
:100DA0008000806280938000D0938B00C0938A0083
:100DB00024C084B5806884BDC7BD1FC080918000F9
:100DC000806880938000D0938900C093880015C00C
:100DD0008091B00080688093B000C093B3000DC0D4
:100DE0008091B00080628093B000C093B40005C0D1
:100DF000C038D1050CF0B5CFAFCFDF91CF911F91A7
:100E00000895833081F028F4813099F08230A1F088
:100E100008958730A9F08830B9F08430D1F48091FA
:100E200080008F7D03C0809180008F778093800049
:100E3000089584B58F7702C084B58F7D84BD0895F1
:100E40008091B0008F7703C08091B0008F7D809338
:100E5000B0000895CF93DF9390E0FC01ED55FE4F75
:100E60002491FC01E954FE4F8491882349F190E0DC
:100E7000880F991FFC01EB52FE4FA591B491855349
:100E80009E4FFC01C591D4919FB7611108C0F894A1
:100E90008C91209582238C93888182230AC06230B2
:100EA00051F4F8948C91322F309583238C93888160
:100EB000822B888304C0F8948C91822B8C939FBFE3
:100EC000DF91CF9108950F931F93CF93DF931F92DC
:100ED000CDB7DEB7282F30E0F901E157FE4F8491FE
:100EE000F901ED55FE4F1491F901E954FE4F0491BB
:100EF0000023C9F0882321F069830E9401076981DA
:100F0000E02FF0E0EE0FFF1FE553FE4FA591B491E7
:100F10009FB7F8948C91611103C01095812301C093
:100F2000812B8C939FBF0F90DF91CF911F910F91D9
:100F30000895FC01818D228D90E0805C9F4F821B83
:100F4000910960E470E00E94150F0895FC01918DF5
:100F5000828D981731F0828DE80FF11D858D90E01C
:100F600008958FEF9FEF0895FC01918D828D981762
:100F700061F0828DDF01A80FB11D5D968C91928D7D
:100F80009F5F9F73928F90E008958FEF9FEF08957A
:100F900088E399E0892B49F080E090E0892B29F0E3
:100FA0000E94380981110C9400000895FC01848D81
:100FB000DF01A80FB11DA35ABF4F2C91848D90E083
:100FC00001968F739927848FA689B7892C93A0895E
:100FD000B1898C9180648C93938D848D981306C015
:100FE0000288F389E02D80818F7D80830895CF93DF
:100FF000DF93EC01888D8823C9F0EA89FB89808121
:1010000085FD05C0A889B9898C9186FD0FC00FB6F2
:1010100007FCF5CF808185FFF2CFA889B9898C9133
:1010200085FFEDCFCE010E94D607E7CFDF91CF91AC
:101030000895CF92DF92FF920F931F93CF93DF9388
:101040001F92CDB7DEB76C01DC015B969C915B977C
:101050005C968C915C97981307C05096ED91FC912B
:101060005197808185FD32C0F601038D10E00F5F3E
:101070001F4F0F731127F02EF601848DF81211C047
:101080000FB607FCF9CFD6015096ED91FC91519720
:10109000808185FFF1CFC60169830E94D6076981EF
:1010A000EBCF838DE80FF11DE35AFF4F6083D6012C
:1010B0005B960C935B975296ED91FC9153978081D0
:1010C0008062808381E058968C930DC0D60156963D
:1010D000ED91FC91579760835096ED91FC9151975B
:1010E00080818064808381E090E00F90DF91CF91D8
:1010F0001F910F91FF90DF90CF900895BF92CF92F4
:10110000DF92EF92FF92CF93DF93EC016A017B01B4
:10111000B22EE889F98982E08083411581EE580773
:1011200061057105A1F060E079E08DE390E0A70131
:1011300096010E94290F2150310941095109569504
:10114000479537952795211580E1380798F0E8896C
:10115000F989108260E874E88EE190E0A7019601B9
:101160000E94290F2150310941095109569547958F
:1011700037952795EC85FD853083EE85FF852083A7
:10118000188EEC89FD89B082EA89FB8980818061B3
:101190008083EA89FB89808188608083EA89FB8972
:1011A000808180688083EA89FB8980818F7D80834C
:1011B000DF91CF91FF90EF90DF90CF90BF90089597
:1011C0001F920F920FB60F9211242F938F939F931C
:1011D000EF93FF93E0919504F09196048081E09164
:1011E0009B04F0919C0482FD12C0908180919E042A
:1011F0008F5F8F7320919F04821751F0E0919E04BE
:10120000F0E0EB57FB4F958F80939E0401C08081E7
:10121000FF91EF919F918F912F910F900FBE0F90A3
:101220001F9018951F920F920FB60F9211242F93B3
:101230003F934F935F936F937F938F939F93AF935E
:10124000BF93EF93FF9385E894E00E94D607FF9148
:10125000EF91BF91AF919F918F917F916F915F912E
:101260004F913F912F910F900FBE0F901F901895A7
:1012700085E894E00E94990721E0892B09F420E099
:10128000822F0895109288041092870488EE93E0CC
:10129000A0E0B0E08093890490938A04A0938B042B
:1012A000B0938C048AE194E0909386048093850443
:1012B00085EC90E0909392048093910484EC90E00C
:1012C000909394048093930480EC90E09093960420
:1012D0008093950481EC90E0909398048093970418
:1012E00082EC90E090939A048093990486EC90E0CD
:1012F00090939C0480939B0410929E0410929F04F0
:101300001092A0041092A1040895CF92DF92EF9260
:10131000FF920F931F93CF93DF936C017A01EB0140
:10132000E60EF71E00E010E0CE15DF0561F06991D2
:10133000D601ED91FC910190F081E02DC601099557
:10134000080F191FF1CFC801DF91CF911F910F91A5
:10135000FF90EF90DF90CF9008956115710581F0B7
:10136000DB010D900020E9F7AD0141505109461B0A
:10137000570BDC01ED91FC910280F381E02D099483
:1013800080E090E008950C94AD09DC01ED91FC91B2
:101390000190F081E02D09940F931F93CF93DF9379
:1013A000EC016DE00E94C5098C016AE0CE010E944B
:1013B000C509800F911FDF91CF911F910F91089563
:1013C0000F931F93CF93DF93EC010E94AD098C0123
:1013D000CE010E94CC09800F911FDF91CF911F9108
:1013E0000F9108958F929F92AF92BF92CF92DF920A
:1013F000EF92FF920F931F93CF93DF93CDB7DEB79A
:10140000A1970FB6F894DEBF0FBECDBF7C01C42EEE
:10141000E52FCB01D22E19A221E02D1510F02AE0E4
:10142000D22E8E010F5D1F4F8D2C912CA12CB12C33
:101430006C2D7E2FA50194010E94290F8C2DD29E28
:1014400080191124015011098A3014F4805D01C003
:10145000895CF8018083211531054105510521F092
:10146000C22EE32FCA01E4CFB801C7010E94AD0923
:10147000A1960FB6F894DEBF0FBECDBFDF91CF911E
:101480001F910F91FF90EF90DF90CF90BF90AF90A2
:101490009F908F900895CF92DF92EF92FF920F93DB
:1014A0001F93CF93DF93EC016A017B012115310576
:1014B00079F4E881F9810190F081E02D642FDF91CA
:1014C000CF911F910F91FF90EF90DF90CF900994F3
:1014D0002A303105E9F477FF1AC06DE20E94C50990
:1014E0008C0144275527BA014C195D096E097F0903
:1014F0002AE0CE010E94F209800F911FDF91CF9167
:101500001F910F91FF90EF90DF90CF9008952AE008
:10151000B701A601CE01DF91CF911F910F91FF90EE
:10152000EF90DF90CF900C94F2099A01AB016627FF
:1015300057FD6095762F0C944B0A2115310541F427
:10154000DC01ED91FC910190F081E02D642F099474
:101550000C94F2099A01462F50E060E070E00C9480
:101560009D0A0F931F93CF93DF93EC019A01462FAF
:1015700050E060E070E00E949D0A8C01CE010E9464
:10158000CC09800F911FDF91CF911F910F9108958A
:101590009A01AB0160E070E00C949D0A0F931F93D9
:1015A000CF93DF93EC019A01AB0160E070E00E9401
:1015B0009D0A8C01CE010E94CC09800F911FDF9102
:1015C000CF911F910F9108950F931F93CF93DF93A6
:1015D000EC010E941006688779878A879B87E881DB
:1015E000F9810084F185E02DCE01099597FF15C0A2
:1015F0000E941006088519852A853B85601B710BA2
:10160000820B930B0C811D812E813F816017710726
:101610008207930720F38FEF9FEFDF91CF911F9108
:101620000F910895CF93DF93EC01CE010E94E40A5D
:1016300097FD11C08D32910571F09C012053310945
:101640002A30310540F0E881F9810680F781E02DEC
:10165000CE010995EACFDF91CF910895CF92DF9225
:10166000FF920F931F93CF93DF9300D000D0CDB79D
:10167000DEB76C01062F0E94120BFC0197FD4BC0D8
:1016800020E030E0A901F12C112707FD1095E017AB
:10169000F107E9F0ED32F105C1F0CF01C0970A97EB
:1016A000B0F4AAE0B0E00E944B0F9B01AC01CF0167
:1016B000AA2797FDA095BA2F280F391F4A1F5B1F35
:1016C000205331094109510902C0FF24F394D60186
:1016D000ED91FC910680F781E02DC60129833A83C4
:1016E0004B835C830995C6010E94E40AFC01C09704
:1016F00029813A814B815C810A9748F2E017F10712
:1017000031F2FF2061F066277727CB01621B730B54
:10171000840B950B06C060E070E0CB0102C0CA01EB
:10172000B9010F900F900F900F90DF91CF911F9103
:101730000F91FF90DF90CF90089561E00C942E0BF5
:1017400061E08AE00E94630761E08AE00E942A0764
:101750008CB580618CBD8CB580648CBD61E08DE002
:101760000E942A0761E08BE00C942A079CB5937FC6
:10177000982B9CBD08952CB5982F93702C7F922B9D
:101780009CBD9DB582FB882780F99E7F982B9DBDCF
:10179000089508955058BB27AA270ED044C135D1CB
:1017A00030F03AD120F031F49F3F11F41EF42AC1F9
:1017B0000EF4E095E7FB20C1E92F46D180F3BA177C
:1017C000620773078407950718F071F49EF55EC1F0
:1017D0000EF4E0950B2EBA2FA02D0B01B90190014C
:1017E0000C01CA01A0011124FF27591B99F0593F90
:1017F00050F4503E68F11A16F040A22F232F342FD8
:101800004427585FF3CF469537952795A795F04025
:101810005395C9F77EF41F16BA0B620B730B840B3A
:10182000BAF09150A1F0FF0FBB1F661F771F881FF2
:10183000C2F70EC0BA0F621F731F841F48F487954A
:1018400077956795B795F7959E3F08F0B3CF939539
:10185000880F08F09927EE0F979587950895A8D0DF
:1018600008F481E008950CD0DEC0D6D040F0CDD091
:1018700030F021F45F3F19F0BFC0511108C1C2C060
:10188000E3D098F39923C9F35523B1F3951B550B76
:10189000BB27AA2762177307840738F09F5F5F4F43
:1018A000220F331F441FAA1FA9F333D00E2E3AF084
:1018B000E0E830D091505040E695001CCAF729D09E
:1018C000FE2F27D0660F771F881FBB1F26173707ED
:1018D0004807AB07B0E809F0BB0B802DBF01FF271D
:1018E00093585F4F2AF09E3F510568F085C0CFC0E6
:1018F0005F3FECF3983EDCF3869577956795B79557
:10190000F7959F5FC9F7880F911D9695879597F971
:101910000895E1E0660F771F881FBB1F62177307EA
:101920008407BA0720F0621B730B840BBA0BEE1FFF
:1019300088F7E0950895E89409C097FB3EF49095E8
:101940008095709561957F4F8F4F9F4F9923A9F098
:10195000F92F96E9BB279395F69587957795679527
:10196000B795F111F8CFFAF4BB0F11F460FF1BC06B
:101970006F5F7F4F8F4F9F4F16C0882311F096E9FE
:1019800011C0772321F09EE8872F762F05C06623AC
:1019900071F096E8862F70E060E02AF09A95660F65
:1019A000771F881FDAF7880F9695879597F908951E
:1019B000990F0008550FAA0BE0E8FEEF1616170660
:1019C000E807F907C0F012161306E407F50798F0C8
:1019D000621B730B840B950B39F40A2661F0232BE1
:1019E000242B252B21F408950A2609F4A140A6955D
:1019F0008FEF811D811D089597F99F6780E870E042
:101A000060E008959FEF80EC089500240A94161674
:101A1000170618060906089500240A9412161306DC
:101A2000140605060895092E0394000C11F488236A
:101A300052F0BB0F40F4BF2B11F460FF04C06F5F86
:101A40007F4F8F4F9F4F089557FD9058440F551F5C
:101A500059F05F3F71F04795880F97FB991F61F030
:101A60009F3F79F087950895121613061406551FA7
:101A7000F2CF4695F1DF08C0161617061806991F13
:101A8000F1CF86957105610508940895E894BB2708
:101A900066277727CB0197F908950BD0C4CFB5DF20
:101AA00028F0BADF18F0952309F0A6CFABCF1124A8
:101AB000EECFCADFA0F3959FD1F3950F50E0551FED
:101AC000629FF001729FBB27F00DB11D639FAA2793
:101AD000F00DB11DAA1F649F6627B00DA11D661FE2
:101AE000829F2227B00DA11D621F739FB00DA11D03
:101AF000621F839FA00D611D221F749F3327A00DBD
:101B0000611D231F849F600D211D822F762F6A2F58
:101B100011249F5750408AF0E1F088234AF0EE0FDD
:101B2000FF1FBB1F661F771F881F91505040A9F7EA
:101B30009E3F510570F060CFAACF5F3FECF3983E17
:101B4000DCF3869577956795B795F795E7959F5F51
:101B5000C1F7FE2B880F911D9695879597F90895EB
:101B6000FA01EE0FFF1F30962105310599F161153D
:101B7000710561F48038BFE39B0749F168949038A0
:101B8000810561F08038BFEF9B0741F0992342F552
:101B9000FF3FE1053105210511F1E8940894E7952F
:101BA000D901AA2329F4AB2FBE2FF85FD0F310C0C0
:101BB000FF5F70F4A695E0F7F73950F019F0FF3A9F
:101BC00038F49F779F930CD00F9007FC905808959E
:101BD0003EF018CF60E070E080E89FE308954FE7A3
:101BE0009F775F934F933F932F939ED02F913F9179
:101BF0004F915F9152DF05C019F40EF0FDCE46CF34
:101C000001CF2ADFC8F39638C0F707F80F92E8949F
:101C10002BE33AEA48EB5FE74EDF0F920F920F9209
:101C20004DB75EB70F92C0D0E8E6F0E016D04F9106
:101C30005F91EF91FF91E595EE1FFF1F49F0FE5771
:101C4000E0684427EE0F441FFA95E1F74195550BE4
:101C500032D00F9007FE26C00895DF93CF931F93D5
:101C60000F93FF92EF92DF927B018C01689405C085
:101C7000DA2EEF011EDFFE01E894A5912591359142
:101C800045915591AEF3EF0197DDFE019701A80153
:101C9000DA9479F7DF90EF90FF900F911F91CF9139
:101CA000DF9108959B01AC0160E070E080E89FE364
:101CB000DACDA2CEACC0D0DEE8F39923D9F3940FED
:101CC000511DBBF39150504094F059F0882332F0ED
:101CD000660F771F881F91505040C1F79E3F5105F6
:101CE00044F7880F911D9695879597F908955F3F62
:101CF000ACF0983E9CF0BB27869577956795B79595
:101D000008F4B1609395C1F7BB0F58F711F460FF69
:101D1000E8CF6F5F7F4F8F4F9F4FE3CFB8CE0EF06E
:101D200076C070CE689468CE97DEC8F39923D1F35D
:101D3000C6F3DF93CF931F930F93FF92C92FDD2735
:101D400088232AF02197660F771F881FDAF720E093
:101D500030E040E85FEB9FE3883920F0803E30F0D0
:101D600021968F7718DDE0E9F0E003C014DDEDEB9C
:101D7000F0E073DF8B01BE01EC01FB2E6F577109A0
:101D80007595771F880B990BD8DD28E132E741E381
:101D90005FE38FDEAF2D9801AE01FF900F911F9191
:101DA000CF91DF9109DD3FCEFA01DC01AA0FBB1F05
:101DB0009B01AC01BF5728F42227332744275078D2
:101DC0001FC0B75188F4AB2F00244695379527954F
:101DD000011CA395D2F3002069F0220F331F441F8A
:101DE000B395DAF30DD0D6CC61307105A0E88A073F
:101DF000B94630F49B01AC01662777278827907895
:101E0000309621F0208331834283538308959F3F8E
:101E100031F0915020F4879577956795B795880FA5
:101E2000911D9695879597F9089597FB072E16F4BF
:101E3000009407D077FD09D00E94560F07FC05D00B
:101E40003EF4909581959F4F0895709561957F4FD1
:101E50000895A1E21A2EAA1BBB1BFD010DC0AA1FEB
:101E6000BB1FEE1FFF1FA217B307E407F50720F003
:101E7000A21BB30BE40BF50B661F771F881F991F7E
:101E80001A9469F760957095809590959B01AC01C7
:101E9000BD01CF0108950E94700FA59F900DB49FC2
:101EA000900DA49F800D911D11240895AA1BBB1BAA
:101EB00051E107C0AA1FBB1FA617B70710F0A61B4A
:101EC000B70B881F991F5A95A9F780959095BC016B
:101ED000CD010895EE0FFF1F0590F491E02D0994B8
:101EE000A29FB001B39FC001A39F700D811D11245B
:101EF000911DB29F700D811D1124911D0895CF93E6
:101F0000DF938230910510F482E090E0E0912405A7
:101F1000F091250520E030E0A0E0B0E0309739F105
:101F20004081518148175907B8F04817590771F493
:101F300082819381109729F013969C938E93129728
:101F40002CC0909325058093240527C021153105C9
:101F500031F04217530718F0A901DB0101C0EF016E
:101F60009A01BD01DF010280F381E02DD7CF211559
:101F70003105F9F0281B390B2430310580F48A81B2
:101F80009B816115710521F0FB019383828304C05D
:101F90009093250580932405FE01329644C0FE01EE
:101FA000E20FF31F819391932250310939832883E3
:101FB0003AC02091220530912305232B41F4209132
:101FC00002013091030130932305209322052091D3
:101FD0000001309101012115310541F42DB73EB7C3
:101FE0004091040150910501241B350BE09122051D
:101FF000F0912305E217F307A0F42E1B3F0B2817DF
:10200000390778F0AC014E5F5F4F2417350748F071
:102010004E0F5F1F509323054093220581939193A8
:1020200002C0E0E0F0E0CF01DF91CF910895CF93BF
:10203000DF93009709F487C0FC0132971382128264
:10204000C0912405D0912505209781F4208131810C
:10205000280F391F8091220590912305821793073D
:1020600079F5F0932305E09322056DC0DE0120E0B1
:1020700030E0AE17BF0750F412964D915C91139764
:102080009D014115510509F1DA01F3CFB383A28314
:1020900040815181840F951F8A179B0771F48D91A0
:1020A0009C911197840F951F0296918380831296BD
:1020B0008D919C911397938382832115310529F487
:1020C000F0932505E09324053EC0D9011396FC93B7
:1020D000EE9312974D915D91A40FB51FEA17FB0780
:1020E00079F480819181840F951F0296D901119610
:1020F0009C938E938281938113969C938E931297D7
:10210000E0E0F0E08A819B81009719F0FE01EC018C
:10211000F9CFCE01029628813981820F931F209139
:102120002205309123052817390769F4309729F4DF
:10213000109225051092240502C013821282D093BA
:102140002305C0932205DF91CF910895A0E0B0E070
:10215000ECEAF0E10C947D11EC01CB01209719F42D
:102160000E947F0FB8C0FE01E60FF71F9E012250AC
:102170003109E217F30708F4ACC0D9010D911C91A5
:10218000119706171707B8F00530110508F49FC01E
:10219000A801445051094617570708F498C0025047
:1021A0001109061B170B019311936D937C93CF01BB
:1021B0000E9417108CC05B01A01AB10A4E01800E5C
:1021C000911EA0912405B0912505612C712C60E031
:1021D00070E0109709F449C0A815B905C9F5ED904C
:1021E000FC901197670142E0C40ED11CCA14DB04B5
:1021F00078F147018A189B08640142E0C40ED11CA3
:102200001296BC9012971396AC91B5E0CB16D10400
:1022100040F0B282A38391828082D9018D939C93F6
:1022200009C00E5F1F4F0E0D1F1DF90111830083A2
:10223000EB2DFA2F6115710531F0DB011396FC933C
:10224000EE93129744C0F0932505E09324053FC018
:102250006D917C9111976616770608F43B01BD01DC
:1022600012960D90BC91A02DB4CF60912205709173
:10227000230568157905E9F468167906D0F44091CC
:102280000001509101014115510541F44DB75EB770
:102290006091040170910501461B570BE417F50787
:1022A000C0F4F0932305E0932205F9019183808324
:1022B0000EC00E947F0F7C01009759F0A801BE015B
:1022C0000E947011CE010E941710C70104C0CE01F8
:1022D00002C080E090E0CDB7DEB7EEE00C9499113B
:1022E000FB01DC0102C001900D9241505040D8F733
:1022F00008952F923F924F925F926F927F928F92AA
:102300009F92AF92BF92CF92DF92EF92FF920F9384
:102310001F93CF93DF93CDB7DEB7CA1BDB0B0FB68E
:10232000F894DEBF0FBECDBF09942A88398848884B
:102330005F846E847D848C849B84AA84B984C884E1
:10234000DF80EE80FD800C811B81AA81B981CE0FD8
:10235000D11D0FB6F894DEBF0FBECDBFED010895BD
:04236000F894FFCF1F
:102364000000260580002A2A2A7475726E4C4544A2
:102374006F6E2A2A2A005265643A20002C20477284
:1023840065656E3A20002C20426C75653A20000089
:102394000000007A01000000007B017C203058001E
:1023A4002D3E4269747320696E20636F6E6669679F
:1023B40020312072656769737465723A20002D3E7E
:1023C4004269747320696E20636F6E666967203298
:1023D4002072656769737465723A20002A2A2A2A72
:1023E400205265616420434F4E4649472072656719
:1023F400697374657273202A2A2A2A002052656739
:1024040069737465722076616C7565733A20002A6D
:102414002A2A2A204368616E676520746865204112
:1024240044432077696474682066726F6D20313686
:1024340020627974657320746F2032342062797459
:10244400657320666F722043483020616E642043B8
:102454004831202873657420696E20434F4E4649E5
:10246400472031202D207365652064617461736891
:10247400656574202A2A2A2A002A2A2A205265738A
:10248400657420434F4E46494720726567697374EB
:1024940065727320746F2064656661756C74202A9C
:1024A4002A2A2A000A2A2A2A2A3E205475726E20D1
:1024B4006F6666204C45442053656C65637465649F
:1024C400000A2A2A2A2A3E2070482053656C656334
:1024D400746564000A2A2A2A2A3E2070756D707376
:1024E4002053656C6563746564000A2A2A2A2A3EAF
:1024F4002074656D70657261747572652053656CC6
:102504006563746564000A2A2A2A2A3E20486561A4
:102514006C746879202A2A70482A2A2053686965CD
:102524006C642053656C6563746564000A2A2A2A06
:102534002A3E204865616C746879202A2A45432A1A
:102544002A20536869656C642053656C65637465FF
:10255400640043757272656E74206D656E75206ECD
:10256400616D653A20003C3C3C20004865616C7418
:10257400687920704820536869656C6420446961F7
:10258400676E6F7374696320546573747320004CB1
:1025940045440070480070756D70730053504900D5
:1025A40074656D7065726174757265004865616CFF
:1025B400746879202A2A70482A2A20536869656C2D
:1025C40064004865616C746879202A2A45432A2A84
:1025D40020536869656C64005475726E204C4544E0
:1025E400206F6E005475726E204C4544206F6666F1
:1025F400000A2A2A2A2A3E205475726E206F6E2001
:102604004C45442053656C65637465642028436FAE
:102614006D6D6F6E20416E6F6465204C45442900DA
:10262400454E544552205252522C4747472C424261
:102634004220666F7220746865205245442C2047FE
:102644005245454E2C20424C55452076616C7565AB
:1026540073206F6620746865204C45442028652EDD
:10266400672E2072656420697320302C3235352C36
:10267400323535293A000000000019088509990708
:06268400B407A607F707EA
:00000001FF
