:100000000C94B2000C94DA000C94DA000C94DA0030
:100010000C94DA000C94DA000C94DA000C94DA00F8
:100020000C94DA000C94DA000C94DA000C94DA00E8
:100030000C94DA000C94DA000C94DA000C94DA00D8
:100040000C9421080C94DA000C943B0B0C946D0B6F
:100050000C94DA000C94DA000C94DA000C94DA00B8
:100060000C94DA000C94DA000A417661696C6162E2
:100070006C6520636F6D6D616E64733A0A20203F7A
:1000800020202020202D2073686F777320617661F7
:10009000696C61626C6520636F6D616E64730A20C8
:1000A000206420202020202D2073656C65637465FA
:1000B00064202273656C65637465642220697465CD
:1000C0006D0A20207520202020202D20676F2074AD
:1000D0006F2070726576696F7573206974656D0A3B
:1000E00020206E20202020202D20676F20746F207C
:1000F0006E657874206974656D0A20206220202066
:1001000020202D20676F206261636B0A00000000D1
:1001100008000201000003040700000000000000C6
:100120000001020408102040800102040810200190
:10013000020408102004040404040404040202025B
:10014000020202030303030303000000002500284A
:10015000002B0000000000240027002A00001705E3
:1001600075069D0B11241FBECFEFD8E0DEBFCDBFBB
:1001700015E0A0E0B1E0EAE4F8E202C005900D92DB
:10018000A437B107D9F726E0A4E7B5E001C01D9276
:10019000AA3AB207E1F711E0C4E6D1E004C0229721
:1001A000FE010E94DF11CE35D107C9F70E94140865
:1001B0000C9423140C940000CF93DF93EC01862F52
:1001C000688329834A8361E00E94850961E089810F
:1001D0000E94850961E08A810E9485096FEF70E0C5
:1001E00088810E94FD086FEF70E089810E94FD0800
:1001F0006FEF70E08A81DF91CF910C94FD08FF9240
:100200000F931F93CF93DF93EC01062F142FF22E41
:1002100066E071E089E096E00E943B0C66E171E0E7
:1002200089E096E00E941E0C4AE050E0602F89E0D1
:1002300096E00E94FD0C6CE171E089E096E00E947E
:100240001E0C4AE050E0612F89E096E00E94FD0C10
:1002500066E271E089E096E00E941E0C4AE050E000
:100260006F2D89E096E00E94040D602F70E0888178
:100270000E94FD08612F70E089810E94FD086F2DAA
:1002800070E08A81DF91CF911F910F91FF900C94C4
:10029000FD08CF93DF93EC016FEF70E088810E943F
:1002A000FD086FEF70E089810E94FD086FEF70E03C
:1002B0008A81DF91CF910C94FD088EBD0DB407FEAD
:1002C000FDCF8EB50895EF92FF921F93CF93DF93EA
:1002D00000D0CDB7DEB77C01162F6FE271E089E068
:1002E00096E02A8349830E943B0CF70110834981E1
:1002F00041832A81228361E0812F0E94850961E088
:10030000F70181810E94850960E0F70182810E94E6
:10031000850980E00E94FE0E83E00E94030F0E9488
:10032000E80E60E0F70181810E94BE0961E0F701FB
:1003300081810F900F90DF91CF911F91FF90EF90EF
:100340000C94BE09CF92DF92EF92FF920F931F930E
:10035000CF93DF9300D01F92CDB7DEB77C01662329
:1003600029F0613009F04FC013E001C010E019829C
:100370001A821B8260E0F70180810E94BE09812FF2
:1003800081600E945D018E010F5F1F4F6E01F4E0DE
:10039000CF0ED11C8FEF0E945D01F80181938F0178
:1003A000EC15FD05B9F761E0F70180810E94BE09F7
:1003B0008981CA80D12CE12CF12CFE2CED2CDC2C77
:1003C000CC24E82A8B81C82A6AE471E089E096E0AF
:1003D0000E941E0C2AE030E0B701A60189E096E0F9
:1003E0000E941B0DC701B6010E94141020E030E0EE
:1003F00040EC5BE40E947B0F24E13EEA47E150E4DD
:100400000E94CA1004C060E070E080E89FEB0F908B
:100410000F900F90DF91CF911F910F91FF90EF9070
:10042000DF90CF9008951F93CF93DF93EC01162FA9
:1004300060E088810E94BE09812F0E945D018FEFDC
:100440000E945D01182F61E088810E94BE09812F02
:10045000DF91CF911F910895CF93C62F613021F086
:10046000623031F467E101C065E1CF910C94130271
:100470006AE571E089E096E00E943B0C4AE050E0BA
:100480006C2F89E096E00E94FD0C68E671E089E03F
:1004900096E00E943B0C8FEFCF910895EF92FF9270
:1004A0001F93CF93DF931F92CDB7DEB77C01162F3A
:1004B00060E0FC01808149830E94BE09812F0E9477
:1004C0005D014981842F0E945D0161E0F701808117
:1004D0000F90DF91CF911F91FF90EF900C94BE0988
:1004E000CF93C62F613021F0623031F466E101C054
:1004F00064E1CF910C944E026AE571E089E096E0E8
:100500000E943B0C4AE050E06C2F89E096E00E948C
:10051000FD0C68E671E089E096E0CF910C943B0C0D
:100520000895DC011496ED91FC911597309709F030
:10053000099580E090E00895FC01828193810895FF
:10054000FC01738362838CEA91E09183808315823E
:1005500014821782168211861086128613860895D9
:10056000FC014385242F30E0828590E00197281715
:10057000390761F081E0840F838726819781A22F5C
:10058000B92FA80FB11DA80FB11D05C0662349F0F2
:100590001386A681B7818D919C919583848381E098
:1005A000089580E00895FC018385811103C06623CE
:1005B00089F082858150838726819781A22FB92F68
:1005C000A80FB11DA80FB11D8D919C9195838483B7
:1005D00081E0089580E00895FC018385268197815C
:1005E000E22FF92FE80FF11DE80FF11D80819181B5
:1005F000009739F0DC01ED91FC910190F081E02D44
:10060000099480E090E00895EF92FF920F931F937A
:10061000CF93DF93EC018B017A016A8570E06F5F05
:100620007F4F660F771F8E819F810E9419139F83D2
:100630008E83009791F02A85FC01E20FF11DE20FF5
:10064000F11D11830083F801F582E4828A8581110E
:1006500002C01D830C838F5F8A87DF91CF911F912A
:100660000F91FF90EF9008950F931F93CF93DF9317
:10067000EC018B016A8570E06F5F7F4F660F771F1B
:100680008E819F810E9419139F838E83009799F01A
:10069000F801D187C0872A85FC01E20FF11DE20F26
:1006A000F11D11830083211102C01D830C832F5F74
:1006B0002A87C80102C080E090E0DF91CF911F91AE
:1006C0000F910895FC0126818781E22FF82FE60F14
:1006D000F11DE60FF11D808191810895FC01848157
:1006E00095810895FC0182850895FC0173836283DE
:1006F00082EB91E091838083158214820895FC013E
:1007000011821082138212820895FC0182819381EA
:100710000C94B002FC01828193810C94D3020F935C
:100720001F93CF93DF931F92CDB7DEB78C01FC01EF
:100730008281938169830E94EC026981009711F0A4
:10074000F80105C0662329F0F80180819181938327
:1007500082830F90DF91CF911F910F910895FC013B
:10076000A281B38180819181A817B90741F01896C1
:100770008D919C9119979383828381E0089580E005
:100780000895FC0171836083738362830895FC0183
:10079000828193810895FC0110821182128213825A
:1007A000108611861286138614861586168617867D
:1007B000108A118A128A138A148A158A168A178A4D
:1007C00008950C94CB034F925F926F927F928F9219
:1007D0009F92AF92BF92CF92DF92EF92FF920F93D0
:1007E0001F93CF93DF9300D000D0CDB7DEB78C013D
:1007F0006A017B01FC0180809180A280B380181483
:1008000019041A041B042CF04487558766877787E0
:100810001CC0FC012485358546855785C701B60176
:100820000E94770F87FF05C0F801C486D586E6864B
:10083000F786F8012089318942895389C701B601B9
:100840000E94C61018162CF4F801C08AD18AE28AD8
:10085000F38AF8012085318542855385C701B601A9
:100860000E94130F2B013C01F8016087718782877A
:100870009387C501B4016F5F7F4F8F4F9F4F608398
:100880007183828393836230710581059105ECF158
:100890000E94161069837A838B839C839B01AC0131
:1008A000C301B2010E947B0FA70196010E94120FA3
:1008B0006B017C01F80164837583868397839B01B8
:1008C000AC0169817A818B819C810E94CA10A70149
:1008D00096010E94CA106B017C01C501B4010E94FF
:1008E00016109B01AC01C701B6010E947B0F9B0152
:1008F000AC01F80164897589868997890E94130F74
:10090000F801648B758B868B978B0F900F900F90EF
:100910000F90DF91CF911F910F91FF90EF90DF909B
:10092000CF90BF90AF909F908F907F906F905F908F
:100930004F900895FC0160817181828193810895B7
:10094000CF93DF93EC01688179818A819B811616B0
:100950001706180619065CF40E9416109B01AC01DC
:10096000688579858A859B850E947B0F04C060E03D
:1009700070E080EC9FE7DF91CF910895CF93DF93F4
:10098000EC01688179818A819B8116161706180609
:10099000190674F40E9416109B01AC016C897D89C4
:1009A0008E899F890E947B0FDF91CF910C9431112A
:1009B00060E070E080EC9FE7DF91CF910895CF92E7
:1009C000DF92EF92FF9261E084E795E00E94A2013E
:1009D0006B017C0164EB71E089E096E00E941E0CE3
:1009E00022E030E0B701A60189E096E00E94180EEF
:1009F00060EC71E089E096E00E941E0CA701960170
:100A000060E070E48CE196E40E947B0F6B017C0156
:100A100022E030E0AB01BC0189E096E00E941A0EB2
:100A2000C701B601FF90EF90DF90CF90089522E0CC
:100A300044E06AE084E795E00C9463016BED71E0BB
:100A400089E096E00C943B0C6EEE71E089E096E054
:100A50000E943B0C83E995E00C944901CF92DF9210
:100A6000EF92FF926BE072E089E096E00E943B0C0F
:100A70008FE895E00E94DF046B017C0167E272E081
:100A800089E096E00E941E0C22E030E0B701A6014A
:100A900089E096E0FF90EF90DF90CF900C941A0ED3
:100AA000CF9363E472E089E096E00E943B0C61E042
:100AB00080E995E00E942C02C82F66E672E089E08A
:100AC00096E00E941E0C40E150E06C2F89E096E019
:100AD0000E94040D62E080E995E00E942C02C82F7C
:100AE00068E772E089E096E00E941E0C40E150E069
:100AF0006C2F89E096E0CF910C94040DCF934CE3DA
:100B000061E080E995E00E94700261E080E995E093
:100B10000E942C02C82F6AE872E089E096E00E94E9
:100B20001E0C40E150E06C2F89E096E0CF910C94D0
:100B3000040D1F93CF93DF93C8E6D0E0FE0114911C
:100B4000112371F01A3029F46DE089E096E00E94DB
:100B5000200C612F89E096E00E94200C2196EECFB8
:100B6000DF91CF911F910895CF92DF92EF92FF9284
:100B70000F931F93CF93DF9369E175E089E096E0CF
:100B80000E943B0C8CEF95E00E94C7038C0168EC3F
:100B900072E089E096E00E941E0CC8010E949C024F
:100BA000BC0189E096E00E943B0CC8010E946E03E4
:100BB0006C01C0E0D0E0C8010E94720390E0C81749
:100BC000D907ECF46C2FC8010E9462037C010E94DB
:100BD0009C02BC0189E096E00E941E0CCE14DF044A
:100BE00031F46CED72E089E096E00E941E0C69E140
:100BF00075E089E096E00E943B0C2196DCCFDF9106
:100C0000CF911F910F91FF90EF90DF90CF900895BB
:100C100026E040E855E260E070E089E096E00E945E
:100C2000D90A0E94990566EC75E080EF95E00E9474
:100C3000340340E555E06AEB75E086EC95E00E94F0
:100C400004034EE755E064EB75E086EC95E00E9406
:100C5000040343E757E06EEA75E086EC95E00E94F6
:100C6000040364EE75E080EF95E00E94340349EDE3
:100C700056E068EA75E084EE95E00E94040344E2E1
:100C800055E062EA75E084EE95E00E9404034EE1CF
:100C900055E062ED75E080EF95E00E94040368ED99
:100CA00075E080EF95E00E9434034BE057E06CE97B
:100CB00075E088ED95E00E9404034FE357E066E994
:100CC00075E088ED95E00E9404034EE255E060EC8B
:100CD00075E080EF95E00E94040360EF75E08CEF13
:100CE00095E00E94C1030C94B4058CEF95E00E943E
:100CF0007F0361EE72E080EF95E00E94A00265E064
:100D000073E084EE95E00E94A00269E073E088ED54
:100D100095E00E94A0026FE073E082ED95E00E94F2
:100D2000750362E173E086EC95E00E94A00266E143
:100D300073E080EC95E00E94750362E273E08AEB59
:100D400095E00E94750364E373E084EB95E00E94F4
:100D5000750368E573E08EEA95E00E94750361E62D
:100D600073E088EA95E00E9475036DE673E082EA1D
:100D700095E00E9475036AE773E08CE995E00E94B4
:100D8000750364EA73E086E995E00E94750321E14A
:100D900040E162E183E995E00E94DC0022E044E06A
:100DA0006AE080E995E00E94630187E795E00C9492
:100DB000E1031F93CF93DF931F92CDB7DEB76CECA7
:100DC00073E089E096E00E943B0C6BEF73E089E0F2
:100DD00096E00E943B0C89E096E00E94F409892B82
:100DE000D1F389E096E00E94E50E162F89E096E0A7
:100DF0000E94E50E462F89E096E049830E94E50EA9
:100E0000262F4981612F83E995E00F90DF91CF91E3
:100E10001F910C94FF0061E574E089E096E00E9468
:100E20003B0C61E08EE00E94850989E096E00E941B
:100E3000F409892B19F56FEF70E08EE00E94FD0830
:100E40006BE674E089E096E00E943B0C60ED77E091
:100E500080E090E00E949A0860E070E08EE00E94DE
:100E6000FD086BE774E089E096E00E943B0C60EDC2
:100E700077E080E090E00E949A08D7CF08956CE870
:100E800074E089E096E00E943B0C61E08FE00E94F4
:100E9000850989E096E00E94F409892B19F56FEF26
:100EA00070E08FE00E94FD0864EA74E089E096E05B
:100EB0000E943B0C60ED77E080E090E00E949A0891
:100EC00060E070E08FE00E94FD0862EB74E089E072
:100ED00096E00E943B0C60ED77E080E090E00E949D
:100EE0009A08D7CF08950F931F93CF93DF9361ECA8
:100EF00074E089E096E00E943B0C65EE74E089E0C6
:100F000096E00E943B0C89E096E00E94F409892B50
:100F1000D1F389E096E00E94E50E8B0187E795E02A
:100F20000E94CB03C0E0D0E0C017D10768F460E0B6
:100F300080E995E00E94A201AB01BC0187E795E042
:100F40000E94E3032196F0CF6AE175E089E096E024
:100F50000E941E0C6DE275E089E096E00E941E0C76
:100F600087E795E00E949A04AB01BC012AE030E0DB
:100F700089E096E00E94A60C67E375E089E096E0C0
:100F80000E941E0C87E795E00E94A004AB01BC0103
:100F900022E030E089E096E00E94180E63E475E0FC
:100FA00089E096E00E941E0C87E795E00E94BE044F
:100FB000AB01BC0122E030E089E096E0DF91CF9107
:100FC0001F910F910C941A0E89E096E00E940F0A6F
:100FD00018164CF58436F9F02CF48F3311F1823663
:100FE000A9F008958E3659F0853719F08836D9F46E
:100FF00018C060E08CEF95E00E948A0305C060E0B5
:101000008CEF95E00E9485030C94B4058CEF95E07D
:101010000E94AF03F9CF61E08CEF95E00E948F034F
:10102000F3CF0C94990508950E94C2080E94080607
:10103000C3E2DAE00E94E4072097E1F30E94230A6A
:10104000F9CF1F920F920FB60F9211242F933F9357
:101050008F939F93AF93BF93809101069091020667
:10106000A0910306B09104063091000623E0230FFF
:101070002D3720F40196A11DB11D05C026E8230FD0
:101080000296A11DB11D2093000680930106909346
:101090000206A0930306B093040680910506909182
:1010A0000606A0910706B09108060196A11DB11D84
:1010B0008093050690930606A0930706B093080652
:1010C000BF91AF919F918F913F912F910F900FBE44
:1010D0000F901F9018952FB7F894609101067091AA
:1010E000020680910306909104062FBF08953FB732
:1010F000F8948091050690910606A0910706B0919C
:10110000080626B5A89B05C02F3F19F00196A11D22
:10111000B11D3FBF6627782F892F9A2F620F711D4F
:10112000811D911D42E0660F771F881F991F4A9508
:10113000D1F70895CF92DF92EF92FF92CF93DF9392
:101140006B017C010E947708EB01C114D104E1041A
:10115000F10489F00E94110F0E9477086C1B7D0B2F
:10116000683E734090F381E0C81AD108E108F108A5
:10117000C851DC4FEACFDF91CF91FF90EF90DF9025
:10118000CF900895789484B5826084BD84B58160E1
:1011900084BD85B5826085BD85B5816085BDEEE67F
:1011A000F0E0808181608083E1E8F0E0108280815E
:1011B00082608083808181608083E0E8F0E08081CC
:1011C00081608083E1EBF0E0808184608083E0EBEC
:1011D000F0E0808181608083EAE7F0E080818460D4
:1011E0008083808182608083808181608083808130
:1011F000806880831092C10008951F93CF93DF937E
:10120000182FEB0161E00E948509209711F460E03E
:1012100004C0CF3FD10539F461E0812FDF91CF9138
:101220001F910C94BE09E12FF0E0E35FFE4FE491C3
:10123000E330F9F048F4E130B9F0E230A1F584B5DB
:10124000806284BDC8BD34C0E730E9F0E83019F1F0
:10125000E43049F580918000806280938000D093D3
:101260008B00C0938A0024C084B5806884BDC7BD4C
:101270001FC080918000806880938000D093890097
:10128000C093880015C08091B00080688093B00042
:10129000C093B3000DC08091B00080628093B00015
:1012A000C093B40005C0C038D1050CF0B5CFAFCFA6
:1012B000DF91CF911F910895833081F028F4813020
:1012C00099F08230A1F008958730A9F08830B9F004
:1012D0008430D1F4809180008F7D03C080918000A4
:1012E0008F7780938000089584B58F7702C084B58E
:1012F0008F7D84BD08958091B0008F7703C0809169
:10130000B0008F7D8093B0000895CF93DF9390E07D
:10131000FC01EF5DFE4F2491FC01EB5CFE4F8491DC
:10132000882349F190E0880F991FFC01ED5AFE4F88
:10133000A591B491875B9E4FFC01C591D4919FB755
:10134000611108C0F8948C91209582238C93888138
:1013500082230AC0623051F4F8948C91322F309578
:1013600083238C938881822B888304C0F8948C918A
:10137000822B8C939FBFDF91CF9108950F931F9382
:10138000CF93DF931F92CDB7DEB7282F30E0F9015E
:10139000E35FFE4F8491F901EF5DFE4F1491F90177
:1013A000EB5CFE4F04910023C9F0882321F0698390
:1013B0000E945C096981E02FF0E0EE0FFF1FE75B00
:1013C000FE4FA591B4919FB7F8948C91611103C021
:1013D0001095812301C0812B8C939FBF0F90DF91CB
:1013E000CF911F910F910895FC01818D228D90E086
:1013F000805C9F4F821B910960E470E00E9488111D
:101400000895FC01918D828D981731F0828DE80F3F
:10141000F11D858D90E008958FEF9FEF0895FC01F9
:10142000918D828D981761F0828DDF01A80FB11D1B
:101430005D968C91928D9F5F9F73928F90E008953F
:101440008FEF9FEF089583E99BE0892B49F080E0BF
:1014500090E0892B29F00E94930B81110C940000DD
:101460000895FC01848DDF01A80FB11DA35ABF4F61
:101470002C91848D90E001968F739927848FA68993
:10148000B7892C93A089B1898C9180648C93938DBA
:10149000848D981306C00288F389E02D80818F7DAA
:1014A00080830895CF93DF93EC01888D8823C9F062
:1014B000EA89FB89808185FD05C0A889B9898C915D
:1014C00086FD0FC00FB607FCF5CF808185FFF2CFF8
:1014D000A889B9898C9185FFEDCFCE010E94310A90
:1014E000E7CFDF91CF910895CF92DF92FF920F93D4
:1014F0001F93CF93DF931F92CDB7DEB76C01DC0152
:101500005B969C915B975C968C915C97981307C057
:101510005096ED91FC915197808185FD32C0F60186
:10152000038D10E00F5F1F4F0F731127F02EF60190
:10153000848DF81211C00FB607FCF9CFD601509672
:10154000ED91FC915197808185FFF1CFC6016983B0
:101550000E94310A6981EBCF838DE80FF11DE35AB8
:10156000FF4F6083D6015B960C935B975296ED918B
:10157000FC91539780818062808381E058968C93A0
:101580000DC0D6015696ED91FC9157976083509609
:10159000ED91FC91519780818064808381E090E09F
:1015A0000F90DF91CF911F910F91FF90DF90CF901F
:1015B0000895BF92CF92DF92EF92FF92CF93DF9385
:1015C000EC016A017B01B22EE889F98982E080830F
:1015D000411581EE580761057105A1F060E079E0E1
:1015E0008DE390E0A70196010E949C1121503109E2
:1015F000410951095695479537952795211580E161
:10160000380798F0E889F989108260E874E88EE17B
:1016100090E0A70196010E949C11215031094109D7
:1016200051095695479537952795EC85FD8530836B
:10163000EE85FF852083188EEC89FD89B082EA89CA
:10164000FB89808180618083EA89FB898081886051
:101650008083EA89FB89808180688083EA89FB89AD
:1016600080818F7D8083DF91CF91FF90EF90DF901D
:10167000CF90BF9008951F920F920FB60F92112432
:101680002F938F939F93EF93FF93E0911906F0911F
:101690001A068081E0911F06F091200682FD12C09B
:1016A0009081809122068F5F8F732091230682178D
:1016B00051F0E0912206F0E0E75FF94F958F8093BB
:1016C000220601C08081FF91EF919F918F912F9110
:1016D0000F900FBE0F901F9018951F920F920FB68C
:1016E0000F9211242F933F934F935F936F937F93A8
:1016F0008F939F93AF93BF93EF93FF9389E096E00F
:101700000E94310AFF91EF91BF91AF919F918F910C
:101710007F916F915F914F913F912F910F900FBEED
:101720000F901F90189589E096E00E94F40921E03F
:10173000892B09F420E0822F089510920C06109254
:101740000B0688EE93E0A0E0B0E080930D06909346
:101750000E06A0930F06B093100689E595E09093CE
:101760000A068093090685EC90E090931606809314
:10177000150684EC90E0909318068093170680EC91
:1017800090E090931A068093190681EC90E0909374
:101790001C0680931B0682EC90E090931E068093BB
:1017A0001D0686EC90E09093200680931F06109211
:1017B0002206109223061092240610922506089500
:1017C000CF92DF92EF92FF920F931F93CF93DF930D
:1017D0006C017A01EB01E60EF71E00E010E0CE1579
:1017E000DF0561F06991D601ED91FC910190F081E6
:1017F000E02DC6010995080F191FF1CFC801DF912F
:10180000CF911F910F91FF90EF90DF90CF900895AF
:101810006115710581F0DB010D900020E9F7AD0144
:1018200041505109461B570BDC01ED91FC910280A0
:10183000F381E02D099480E090E008950C94080C69
:10184000DC01ED91FC910190F081E02D09940F9362
:101850001F93CF93DF93EC016DE00E94200C8C016D
:101860006AE0CE010E94200C800F911FDF91CF9182
:101870001F910F9108950F931F93CF93DF93EC0166
:101880000E94080C8C01CE010E94270C800F911F32
:10189000DF91CF911F910F9108958F929F92AF92F8
:1018A000BF92CF92DF92EF92FF920F931F93CF934D
:1018B000DF93CDB7DEB7A1970FB6F894DEBF0FBEAA
:1018C000CDBF7C01C42EE52FCB01D22E19A221E081
:1018D0002D1510F02AE0D22E8E010F5D1F4F8D2C9A
:1018E000912CA12CB12C6C2D7E2FA50194010E946E
:1018F0009C118C2DD29E80191124015011098A301F
:1019000014F4805D01C0895CF801808321153105E4
:101910004105510521F0C22EE32FCA01E4CFB801E1
:10192000C7010E94080CA1960FB6F894DEBF0FBE47
:10193000CDBFDF91CF911F910F91FF90EF90DF907E
:10194000CF90BF90AF909F908F900895CF92DF92ED
:10195000EF92FF920F931F93CF93DF93EC016A01F5
:101960007B012115310579F4E881F9810190F0813D
:10197000E02D642FDF91CF911F910F91FF90EF9099
:10198000DF90CF9009942A303105E9F477FF1AC02F
:101990006DE20E94200C8C0144275527BA014C1996
:1019A0005D096E097F092AE0CE010E944D0C800F6F
:1019B000911FDF91CF911F910F91FF90EF90DF90DA
:1019C000CF9008952AE0B701A601CE01DF91CF9113
:1019D0001F910F91FF90EF90DF90CF900C944D0CE2
:1019E0002115310541F4DC01ED91FC910190F0816C
:1019F000E02D642F09940C944D0C9A01462F50E071
:101A000060E070E00C94F00C0F931F93CF93DF9382
:101A1000EC019A01462F50E060E070E00E94F00C6B
:101A20008C01CE010E94270C800F911FDF91CF9176
:101A30001F910F9108950F931F93CF93DF93EC01A4
:101A40000E94F00C8C01CE010E94270C800F911F88
:101A5000DF91CF911F910F9108954F925F926F92F6
:101A60007F928F929F92AF92BF92CF92DF92EF922E
:101A7000FF920F931F93CF93DF93EC016A017B01D9
:101A8000B22E9A01AB01C701B6010E946F118823E3
:101A900019F065E675E027C026013701E89477F86C
:101AA0002FEF3FEF4FE75FE7C301B2010E946F11D5
:101AB00081110DC02FEF3FEF4FE75FE7C301B20188
:101AC0000E94770F18161CF469E675E00CC02FEF22
:101AD0003FEF4FE75FE4C701B6010E94C61018163A
:101AE000ACF46DE675E0CE01DF91CF911F910F91BF
:101AF000FF90EF90DF90CF90BF90AF909F908F902E
:101B00007F906F905F904F900C94080C2FEF3FEFF9
:101B10004FE75FECC701B6010E94770F87FDE1CF69
:101B200020E030E0A901C701B6010E94770F87FFCE
:101B30000AC06DE2CE010E94200C8C01F7FAF094ED
:101B4000F7F8F09402C000E010E0A12C60E070E033
:101B500080E09FE3AB1441F020E030E040E251E44C
:101B60000E947B0FA394F6CF9B01AC01C701B60185
:101B70000E94130F6B017C010E94E80F2B013C01B6
:101B80000E9414109B01AC01C701B6010E94120F04
:101B90006B017C012AE0B301A201CE010E944D0C31
:101BA000080F191FBB2039F061E775E0CE010E94D4
:101BB000080C080F191F7B2C772041F120E030E042
:101BC00040E251E4C701B6010E94CA106B017C01DA
:101BD0000E94E30F4B01AA2497FCA094BA2C2AE0A0
:101BE00030E0B501A401CE010E94A60C080F191F18
:101BF000C501B4010E9416109B01AC01C701B601DA
:101C00000E94120F6B017C017A94D6CFC801DF913C
:101C1000CF911F910F91FF90EF90DF90CF90BF90E9
:101C2000AF909F908F907F906F905F904F900895AE
:101C30000C942D0D0F931F93CF93DF93EC010E9413
:101C40002D0D8C01CE010E94270C800F911FDF917A
:101C5000CF911F910F9108950F931F93CF93DF930F
:101C6000EC010E946B08688779878A879B87E881E7
:101C7000F9810084F185E02DCE01099597FF15C00B
:101C80000E946B08088519852A853B85601B710BAE
:101C9000820B930B0C811D812E813F816017710790
:101CA0008207930720F38FEF9FEFDF91CF911F9172
:101CB0000F910895CF93DF93EC01CE010E942C0E7B
:101CC00097FD11C08D32910571F09C0120533109AF
:101CD0002A30310540F0E881F9810680F781E02D56
:101CE000CE010995EACFDF91CF910895CF92DF928F
:101CF000FF920F931F93CF93DF9300D000D0CDB707
:101D0000DEB76C01062F0E945A0EFC0197FD4BC0F6
:101D100020E030E0A901F12C112707FD1095E01714
:101D2000F107E9F0ED32F105C1F0CF01C0970A9754
:101D3000B0F4AAE0B0E00E94BE119B01AC01CF015B
:101D4000AA2797FDA095BA2F280F391F4A1F5B1F9E
:101D5000205331094109510902C0FF24F394D601EF
:101D6000ED91FC910680F781E02DC60129833A832D
:101D70004B835C830995C6010E942C0EFC01C09721
:101D800029813A814B815C810A9748F2E017F1077B
:101D900031F2FF2061F066277727CB01621B730BBE
:101DA000840B950B06C060E070E0CB0102C0CA0155
:101DB000B9010F900F900F900F90DF91CF911F916D
:101DC0000F91FF90DF90CF90089561E00C94760E14
:101DD00061E08AE00E94BE0961E08AE00E94850914
:101DE0008CB580618CBD8CB580648CBD61E08DE06C
:101DF0000E94850961E08BE00C9485099CB5937F76
:101E0000982B9CBD08952CB5982F93702C7F922B06
:101E10009CBD9DB582FB882780F99E7F982B9DBD38
:101E2000089508955058BB27AA270ED075C166D1D2
:101E300030F06BD120F031F49F3F11F41EF45BC100
:101E40000EF4E095E7FB51C1E92F77D180F3BA1783
:101E5000620773078407950718F071F49EF58FC128
:101E60000EF4E0950B2EBA2FA02D0B01B9019001B5
:101E70000C01CA01A0011124FF27591B99F0593FF9
:101E800050F4503E68F11A16F040A22F232F342F41
:101E90004427585FF3CF469537952795A795F0408F
:101EA0005395C9F77EF41F16BA0B620B730B840BA4
:101EB000BAF09150A1F0FF0FBB1F661F771F881F5C
:101EC000C2F70EC0BA0F621F731F841F48F48795B4
:101ED00077956795B795F7959E3F08F0B3CF9395A3
:101EE000880F08F09927EE0F979587950895D9D018
:101EF00008F481E008950CD00FC107D140F0FED066
:101F000030F021F45F3F19F0F0C0511139C1F3C036
:101F100014D198F39923C9F35523B1F3951B550BAD
:101F2000BB27AA2762177307840738F09F5F5F4FAC
:101F3000220F331F441FAA1FA9F333D00E2E3AF0ED
:101F4000E0E830D091505040E695001CCAF729D007
:101F5000FE2F27D0660F771F881FBB1F2617370756
:101F60004807AB07B0E809F0BB0B802DBF01FF2786
:101F700093585F4F2AF09E3F510568F0B6C000C1EC
:101F80005F3FECF3983EDCF3869577956795B795C0
:101F9000F7959F5FC9F7880F911D9695879597F9DB
:101FA0000895E1E0660F771F881FBB1F6217730754
:101FB0008407BA0720F0621B730B840BBA0BEE1F69
:101FC00088F7E095089504D06894B111D9C00895B8
:101FD000BCD088F09F5790F0B92F9927B751A0F047
:101FE000D1F0660F771F881F991F1AF0BA95C9F7AD
:101FF00012C0B13081F0C3D0B1E00895C0C0672FE6
:10200000782F8827B85F39F0B93FCCF3869577955C
:102010006795B395D9F73EF4909580957095619545
:102020007F4F8F4F9F4F0895E89409C097FB3EF470
:1020300090958095709561957F4F8F4F9F4F992315
:10204000A9F0F92F96E9BB279395F6958795779593
:102050006795B795F111F8CFFAF4BB0F11F460FF53
:102060001BC06F5F7F4F8F4F9F4F16C0882311F0AB
:1020700096E911C0772321F09EE8872F762F05C0BF
:10208000662371F096E8862F70E060E02AF09A955A
:10209000660F771F881FDAF7880F9695879597F94F
:1020A0000895990F0008550FAA0BE0E8FEEF1616E9
:1020B0001706E807F907C0F012161306E407F5073C
:1020C00098F0621B730B840B950B39F40A2661F0B0
:1020D000232B242B252B21F408950A2609F4A14053
:1020E000A6958FEF811D811D089597F99F6780E860
:1020F00070E060E008959FEF80EC089500240A945A
:102100001616170618060906089500240A941216D2
:102110001306140605060895092E0394000C11F405
:10212000882352F0BB0F40F4BF2B11F460FF04C0B2
:102130006F5F7F4F8F4F9F4F089557FD9058440F0B
:10214000551F59F05F3F71F04795880F97FB991F16
:1021500061F09F3F79F087950895121613061406D3
:10216000551FF2CF4695F1DF08C016161706180660
:10217000991FF1CF86957105610508940895E8943B
:10218000BB2766277727CB0197F908958ADF08F4E4
:102190008FEF08950BD0C0CFB1DF28F0B6DF18F075
:1021A000952309F0A2CFA7CF1124EACFC6DFA0F371
:1021B000959FD1F3950F50E0551F629FF001729FDC
:1021C000BB27F00DB11D639FAA27F00DB11DAA1FFB
:1021D000649F6627B00DA11D661F829F2227B00D48
:1021E000A11D621F739FB00DA11D621F839FA00DD3
:1021F000611D221F749F3327A00D611D231F849F23
:10220000600D211D822F762F6A2F11249F57504079
:102210008AF0E1F088234AF0EE0FFF1FBB1F661F14
:10222000771F881F91505040A9F79E3F510570F0CD
:102230005CCFA6CF5F3FECF3983EDCF386957795B5
:102240006795B795F795E7959F5FC1F7FE2B880FC8
:10225000911D9695879597F9089511F40EF44BCF3B
:1022600042C073DFD0F39923D9F3CEF39F57550BB8
:1022700087FF47D00024A0E640EA90018058569599
:10228000979528F4805C660F771F881F20F026172B
:102290003707480730F4621B730B840B2029312960
:1022A0004A2BA69517940794202531254A2758F7DD
:1022B000660F771F881F20F026173707480730F46E
:1022C000620B730B840B200D311D411DA09581F70E
:1022D000B901842F9158880F969587950895E1DE6E
:1022E000880B990B08959F3F31F0915020F487950A
:1022F00077956795B795880F911D9695879597F96E
:10230000089591505040660F771F881FD2F70895A7
:1023100097FB072E16F4009407D077FD09D00E9492
:10232000C91107FC05D03EF4909581959F4F089503
:10233000709561957F4F0895A1E21A2EAA1BBB1BD1
:10234000FD010DC0AA1FBB1FEE1FFF1FA217B30781
:10235000E407F50720F0A21BB30BE40BF50B661F97
:10236000771F881F991F1A9469F76095709580955B
:1023700090959B01AC01BD01CF0108950E94E3112E
:10238000A59F900DB49F900DA49F800D911D1124C9
:102390000895AA1BBB1B51E107C0AA1FBB1FA617AC
:1023A000B70710F0A61BB70B881F991F5A95A9F7FE
:1023B00080959095BC01CD010895EE0FFF1F05900B
:1023C000F491E02D0994A29FB001B39FC001A39F97
:1023D000700D811D1124911DB29F700D811D11245E
:1023E000911D0895CF93DF938230910510F482E020
:1023F00090E0E091A806F091A90620E030E0A0E08E
:10240000B0E0309739F14081518148175907B8F051
:102410004817590771F482819381109729F0139618
:102420009C938E9312972CC09093A9068093A80634
:1024300027C02115310531F04217530718F0A901C3
:10244000DB0101C0EF019A01BD01DF010280F381D0
:10245000E02DD7CF21153105F9F0281B390B243099
:10246000310580F48A819B816115710521F0FB01A2
:102470009383828304C09093A9068093A806FE01EB
:10248000329644C0FE01E20FF31F819391932250D4
:102490003109398328833AC02091A6063091A706D6
:1024A000232B41F420910201309103013093A706C0
:1024B0002093A606209100013091010121153105DC
:1024C00041F42DB73EB74091040150910501241B02
:1024D000350BE091A606F091A706E217F307A0F4EA
:1024E0002E1B3F0B2817390778F0AC014E5F5F4F6A
:1024F0002417350748F04E0F5F1F5093A7064093EF
:10250000A6068193919302C0E0E0F0E0CF01DF9155
:10251000CF910895CF93DF93009709F487C0FC0112
:10252000329713821282C091A806D091A9062097F3
:1025300081F420813181280F391F8091A606909166
:10254000A7068217930779F5F093A706E093A606EE
:102550006DC0DE0120E030E0AE17BF0750F41296E8
:102560004D915C9113979D014115510509F1DA01D7
:10257000F3CFB383A28340815181840F951F8A17C3
:102580009B0771F48D919C911197840F951F029672
:102590009183808312968D919C911397938382836C
:1025A0002115310529F4F093A906E093A8063EC051
:1025B000D9011396FC93EE9312974D915D91A40F60
:1025C000B51FEA17FB0779F480819181840F951F6D
:1025D0000296D90111969C938E93828193811396D2
:1025E0009C938E931297E0E0F0E08A819B810097A4
:1025F00019F0FE01EC01F9CFCE0102962881398154
:10260000820F931F2091A6063091A706281739073D
:1026100069F4309729F41092A9061092A80602C016
:1026200013821282D093A706C093A606DF91CF91A2
:102630000895A0E0B0E0EFE1F3E10C94F013EC01B9
:10264000CB01209719F40E94F211B8C0FE01E60FE9
:10265000F71F9E0122503109E217F30708F4ACC0BE
:10266000D9010D911C91119706171707B8F0053085
:10267000110508F49FC0A801445051094617570797
:1026800008F498C002501109061B170B019311930F
:102690006D937C93CF010E948A128CC05B01A01ABB
:1026A000B10A4E01800E911EA091A806B091A90614
:1026B000612C712C60E070E0109709F449C0A815F6
:1026C000B905C9F5ED90FC901197670142E0C40E81
:1026D000D11CCA14DB0478F147018A189B086401F5
:1026E00042E0C40ED11C1296BC9012971396AC9186
:1026F000B5E0CB16D10440F0B282A38391828082F0
:10270000D9018D939C9309C00E5F1F4F0E0D1F1DA5
:10271000F90111830083EB2DFA2F6115710531F05A
:10272000DB011396FC93EE93129744C0F093A90635
:10273000E093A8063FC06D917C91119766167706CD
:1027400008F43B01BD0112960D90BC91A02DB4CFB1
:102750006091A6067091A70668157905E9F46816D8
:102760007906D0F4409100015091010141155105C5
:1027700041F44DB75EB76091040170910501461BAD
:10278000570BE417F507C0F4F093A706E093A606ED
:10279000F901918380830EC00E94F2117C010097A1
:1027A00059F0A801BE010E94E313CE010E948A12D3
:1027B000C70104C0CE0102C080E090E0CDB7DEB713
:1027C000EEE00C940C14FB01DC0102C001900D92B0
:1027D00041505040D8F708952F923F924F925F9208
:1027E0006F927F928F929F92AF92BF92CF92DF9221
:1027F000EF92FF920F931F93CF93DF93CDB7DEB786
:10280000CA1BDB0B0FB6F894DEBF0FBECDBF099419
:102810002A88398848885F846E847D848C849B8470
:10282000AA84B984C884DF80EE80FD800C811B817E
:10283000AA81B981CE0FD11D0FB6F894DEBF0FBEAD
:0A284000CDBFED010895F894FFCF1D
:10284A000000AA0680002A2A2A7475726E4C454432
:10285A006F6E2A2A2A005265643A20002C20477299
:10286A0065656E3A20002C20426C75653A20002A74
:10287A002A2A2A44454255473A20494E204D435078
:10288A003339303120494E4954002D2D3E204144E0
:10289A00432056616C75653A2000596F7520656E44
:1028AA0074657265643A20007468697320726F7582
:1028BA0074696E65206578706563746564206569FE
:1028CA00746865722061203120666F7220636F6EB2
:1028DA006669672031206F72203220666F7220632A
:1028EA006F6E6669672032000000000090020000E7
:1028FA00000091022D2D3E20766F6C74733A2000F1
:10290A00207C20546865726D6973746F72205265F9
:10291A0073697374616E63653A20000A2A2A2A2A47
:10292A003E2070482053656C6563746564000A2A0A
:10293A002A2A2A3E205475726E206F6666204C45FC
:10294A00442053656C6563746564000A2A2A2A2A3E
:10295A003E2074656D706572617475726520536589
:10296A006C6563746564002D2D3E20546865726D34
:10297A006973746F7220726573697374616E6365CB
:10298A003A20000A2A2A2A2A2A2A2A2A2A2A2A2AE1
:10299A002A2A2A2A2A2A2A2A2A2A2A2A2A2A2A2A8D
:1029AA002A2A2A2A2A002D2D2D3E20436F6E666977
:1029BA006720313A203058002D2D2D3E20436F6E6E
:1029CA0066696720323A203058002D2D2D3E20436B
:1029DA006F6E66696720312073686F756C64206258
:1029EA006520305833432E2E68657265206973203E
:1029FA007468652076616C756520696E206D656DF9
:102A0A006F72793A2030580043757272656E74207D
:102A1A006D656E75206E616D653A20003C3C3C2008
:102A2A00004865616C74687920704820536869654C
:102A3A006C6420446961676E6F73746963205465BE
:102A4A0073747320004C45440070756D7073007088
:102A5A0048005350490074656D70657261747572EF
:102A6A0065007265616420434F4E4649472062798A
:102A7A007465730073657420434F4E46494720318D
:102A8A0020746F203234206269747320616E64206E
:102A9A004F53523D323536007265616420414443DA
:102AAA00005475726E204C4544206F6E0054757246
:102ABA006E204C4544206F6666005465737420444A
:102ACA006F776E2050756D702028562B203D20633D
:102ADA006F6E6E20352C205357203D20636F6E6E2B
:102AEA0020362900546573742055702050756D7016
:102AFA002028562B203D20636F6E6E20372C2053E2
:102B0A0057203D20636F6E6E203829000A2A2A2A30
:102B1A002A3E205475726E206F6E204C4544205315
:102B2A00656C65637465642028436F6D6D6F6E20F4
:102B3A00416E6F6465204C45442900454E54455208
:102B4A00205252522C4747472C42424220666F720B
:102B5A0020746865205245442C20475245454E2C26
:102B6A0020424C55452076616C756573206F66204E
:102B7A00746865204C45442028652E672E207265AE
:102B8A006420697320302C3235352C323535293A98
:102B9A00000A2A2A2A2A3E2054657374207468651A
:102BAA0020646F776E2070756D7000446F776E20A9
:102BBA0070756D70206973204F4E00446F776E20D8
:102BCA0070756D70206973204F4646000A2A2A2ABA
:102BDA002A3E2054657374207468652075702070CD
:102BEA00756D700055702070756D70206973204F77
:102BFA004E0055702070756D70206973204F4646DF
:102C0A00002A2A2A2A2A2A2A2A2A2A2A2A2A2A2A44
:102C1A002A2A2A2A2A2A2A2A2A2A2A2A2A2A2A2A0A
:102C2A002A2A2A2A00456E746572206E756D6265BD
:102C3A00722072656164696E677320746F207461B3
:102C4A006B6520616E206176657261676520616ED1
:102C5A00642053544445563A200043483020566F66
:102C6A006C742072656164696E673A2000202043A3
:102C7A006F756E743A20002020417665726167652F
:102C8A003A2000202053746420646576696174696F
:102C9A006F6E3A200000000000740AE00BF4090F7E
:102CAA000A010A520A6E616E00696E66006F7666E4
:042CBA00002E0000E8
:00000001FF
