:100000000C94B2000C94DA000C94DA000C94DA0030
:100010000C94DA000C94DA000C94DA000C94DA00F8
:100020000C94DA000C94DA000C94DA000C94DA00E8
:100030000C94DA000C94DA000C94DA000C94DA00D8
:100040000C94B9070C94DA000C94D30A0C94050BA9
:100050000C94DA000C94DA000C94DA000C94DA00B8
:100060000C94DA000C94DA000A417661696C6162E2
:100070006C6520636F6D6D616E64733A0A20203F7A
:1000800020202020202D2073686F777320617661F7
:10009000696C61626C6520636F6D616E64730A20C8
:1000A000206420202020202D2073656C65637465FA
:1000B00064202273656C65637465642220697465CD
:1000C0006D0A20207520202020202D20676F2074AD
:1000D0006F2070726576696F7573206974656D0A3B
:1000E00020206E20202020202D20676F20746F207C
:1000F0006E657874206974656D0A20206220202066
:1001000020202D20676F206261636B0A00000000D1
:1001100008000201000003040700000000000000C6
:100120000001020408102040800102040810200190
:10013000020408102004040404040404040202025B
:10014000020202030303030303000000002500284A
:10015000002B0000000000240027002A00001705E3
:100160008106350B11241FBECFEFD8E0DEBFCDBF17
:1001700014E0A0E0B1E0EAE7F7E202C005900D92DA
:10018000A83CB107D9F725E0A8ECB4E001C01D9266
:10019000AC3EB207E1F711E0C4E6D1E004C022971B
:1001A000FE010E947711CE35D107C9F70E94AC0736
:1001B0000C94BB130C940000CF93DF93EC01862FBB
:1001C000688329834A8361E00E941D0961E0898177
:1001D0000E941D0961E08A810E941D096FEF70E095
:1001E00088810E9495086FEF70E089810E949508D0
:1001F0006FEF70E08A81DF91CF910C949508FF92A8
:100200000F931F93CF93DF93EC01062F142FF22E41
:1002100066E071E08BE495E00E94D30B66E171E04B
:100220008BE495E00E94B60B4AE050E0602F8BE42F
:1002300095E00E94950C6CE171E08BE495E00E94E2
:10024000B60B4AE050E0612F8BE495E00E94950CDC
:1002500066E271E08BE495E00E94B60B4AE050E064
:100260006F2D8BE495E00E949C0C602F70E08881DC
:100270000E949508612F70E089810E9495086F2D7A
:1002800070E08A81DF91CF911F910F91FF900C94C4
:100290009508CF93DF93EC016FEF70E088810E94A7
:1002A00095086FEF70E089810E9495086FEF70E00C
:1002B0008A81DF91CF910C9495088EBD0DB407FE15
:1002C000FDCF8EB50895EF92FF921F93CF93DF93EA
:1002D00000D0CDB7DEB77C01162F6FE271E08BE462
:1002E00095E02A8349830E94D30BF701108349814B
:1002F00041832A81228361E0812F0E941D0961E0F0
:10030000F70181810E941D0960E0F70182810E944E
:100310001D0980E00E94960E83E00E949B0E0E94C1
:10032000800E60E0F70181810E94560961E0F701CB
:1003300081810F900F90DF91CF911F91FF90EF90EF
:100340000C945609CF92DF92EF92FF920F931F9376
:10035000CF93DF9300D01F92CDB7DEB77C01662329
:1003600029F0613009F04FC013E001C010E019829C
:100370001A821B8260E0F70180810E945609812F5A
:1003800081600E945D018E010F5F1F4F6E01F4E0DE
:10039000CF0ED11C8FEF0E945D01F80181938F0178
:1003A000EC15FD05B9F761E0F70180810E9456095F
:1003B0008981CA80D12CE12CF12CFE2CED2CDC2C77
:1003C000CC24E82A8B81C82A6AE471E08BE495E0AA
:1003D0000E94B60B2AE030E0B701A6018BE495E05D
:1003E0000E94B30CC701B6010E94AC0F20E030E0C0
:1003F00040EC5BE40E94130F24E13EEA47E150E445
:100400000E94621004C060E070E080E89FEB0F90F3
:100410000F900F90DF91CF911F910F91FF90EF9070
:10042000DF90CF9008951F93CF93DF93EC01162FA9
:1004300060E088810E945609812F0E945D018FEF44
:100440000E945D01182F61E088810E945609812F6A
:10045000DF91CF911F910895CF93C62F613021F086
:10046000623031F467E101C065E1CF910C94130271
:100470006AE571E08BE495E00E94D30B4AE050E01E
:100480006C2F8BE495E00E94950C68E671E08BE49C
:1004900095E00E94D30B8FEFCF910895EF92FF92DA
:1004A0001F93CF93DF931F92CDB7DEB77C01162F3A
:1004B00060E0FC01808149830E945609812F0E94DF
:1004C0005D014981842F0E945D0161E0F701808117
:1004D0000F90DF91CF911F91FF90EF900C945609F0
:1004E000CF93C62F613021F0623031F466E101C054
:1004F00064E1CF910C944E026AE571E08BE495E0E3
:100500000E94D30B4AE050E06C2F8BE495E00E94F0
:10051000950C68E671E08BE495E0CF910C94D30BD9
:100520000895DC011496ED91FC911597309709F030
:10053000099580E090E00895FC01828193810895FF
:10054000FC01738362838CEA91E09183808315823E
:1005500014821782168211861086128613860895D9
:10056000FC014385242F30E0828590E00197281715
:10057000390761F081E0840F838726819781A22F5C
:10058000B92FA80FB11DA80FB11D05C0662349F0F2
:100590001386A681B7818D919C919583848381E098
:1005A000089580E00895FC018385811103C06623CE
:1005B00089F082858150838726819781A22FB92F68
:1005C000A80FB11DA80FB11D8D919C9195838483B7
:1005D00081E0089580E00895FC018385268197815C
:1005E000E22FF92FE80FF11DE80FF11D80819181B5
:1005F000009739F0DC01ED91FC910190F081E02D44
:10060000099480E090E00895EF92FF920F931F937A
:10061000CF93DF93EC018B017A016A8570E06F5F05
:100620007F4F660F771F8E819F810E94B1129F833B
:100630008E83009791F02A85FC01E20FF11DE20FF5
:10064000F11D11830083F801F582E4828A8581110E
:1006500002C01D830C838F5F8A87DF91CF911F912A
:100660000F91FF90EF9008950F931F93CF93DF9317
:10067000EC018B016A8570E06F5F7F4F660F771F1B
:100680008E819F810E94B1129F838E83009799F083
:10069000F801D187C0872A85FC01E20FF11DE20F26
:1006A000F11D11830083211102C01D830C832F5F74
:1006B0002A87C80102C080E090E0DF91CF911F91AE
:1006C0000F910895FC0126818781E22FF82FE60F14
:1006D000F11DE60FF11D808191810895FC01848157
:1006E00095810895FC0182850895FC0173836283DE
:1006F00082EB91E091838083158214820895FC013E
:1007000011821082138212820895FC0182819381EA
:100710000C94B002FC01828193810C94D3020F935C
:100720001F93CF93DF931F92CDB7DEB78C01FC01EF
:100730008281938169830E94EC026981009711F0A4
:10074000F80105C0662329F0F80180819181938327
:1007500082830F90DF91CF911F910F910895FC013B
:10076000A281B38180819181A817B90741F01896C1
:100770008D919C9119979383828381E0089580E005
:100780000895FC0171836083738362830895FC0183
:10079000828193810895FC0110821182128213825A
:1007A000108611861286138614861586168617867D
:1007B000108A118A128A138A148A158A168A178A4D
:1007C00008950C94CB034F925F926F927F928F9219
:1007D0009F92AF92BF92CF92DF92EF92FF920F93D0
:1007E0001F93CF93DF9300D000D0CDB7DEB78C013D
:1007F0006A017B01FC0180809180A280B380181483
:1008000019041A041B042CF04487558766877787E0
:100810001CC0FC012485358546855785C701B60176
:100820000E940F0F87FF05C0F801C486D586E686B3
:10083000F786F8012089318942895389C701B601B9
:100840000E945E1018162CF4F801C08AD18AE28A40
:10085000F38AF8012085318542855385C701B601A9
:100860000E94AB0E2B013C01F801608771878287E3
:100870009387C501B4016F5F7F4F8F4F9F4F608398
:100880007183828393836230710581059105ECF158
:100890000E94AE0F69837A838B839C839B01AC019A
:1008A000C301B2010E94130FA70196010E94AA0E74
:1008B0006B017C01F80164837583868397839B01B8
:1008C000AC0169817A818B819C810E946210A701B1
:1008D00096010E9462106B017C01C501B4010E9467
:1008E000AE0F9B01AC01C701B6010E94130F9B0123
:1008F000AC01F80164897589868997890E94AB0EDD
:10090000F801648B758B868B978B0F900F900F90EF
:100910000F90DF91CF911F910F91FF90EF90DF909B
:10092000CF90BF90AF909F908F907F906F905F908F
:100930004F900895FC0160817181828193810895B7
:10094000CF93DF93EC01688179818A819B811616B0
:100950001706180619065CF40E94AE0F9B01AC0145
:10096000688579858A859B850E94130F04C060E0A5
:1009700070E080EC9FE7DF91CF910895CF93DF93F4
:10098000EC01688179818A819B8116161706180609
:10099000190674F40E94AE0F9B01AC016C897D892D
:1009A0008E899F890E94130FDF91CF910C94C910FB
:1009B00060E070E080EC9FE7DF91CF910895CF92E7
:1009C000DF92EF92FF9261E088EC94E00E94A20136
:1009D0006B017C0164EB71E08BE495E00E94B60B47
:1009E00022E030E0B701A6018BE495E00E94B00D53
:1009F00060EC71E08BE495E00E94B60BA7019601D4
:100A000060E070E48CE196E40E94130F6B017C01BE
:100A100022E030E0AB01BC018BE495E00E94B20D16
:100A2000C701B601FF90EF90DF90CF90089522E0CC
:100A300044E06AE088EC94E00C9463016BED71E0B3
:100A40008BE495E00C94D30B6EEE71E08BE495E0B3
:100A50000E94D30B87EE94E00C9449016BE072E0A6
:100A60008BE495E00E94D30B61E085E00E941D09B4
:100A70006FEF70E085E00E94950868EB7BE080E016
:100A800090E00E94320860E070E085E00C949508E8
:100A9000CF92DF92EF92FF9261E272E08BE495E0F9
:100AA0000E94D30B83EE94E00E94DF046B017C0173
:100AB0006DE372E08BE495E00E94B60B22E030E03B
:100AC000B701A6018BE495E0FF90EF90DF90CF9007
:100AD0000C94B20DCF9369E572E08BE495E00E942F
:100AE000D30B61E084EE94E00E942C02C82F6CE7E7
:100AF00072E08BE495E00E94B60B40E150E06C2F71
:100B00008BE495E00E949C0C62E084EE94E00E94ED
:100B10002C02C82F6EE872E08BE495E00E94B60BC1
:100B200040E150E06C2F8BE495E0CF910C949C0C4D
:100B3000CF934CE361E084EE94E00E94700261E0A8
:100B400084EE94E00E942C02C82F60EA72E08BE4ED
:100B500095E00E94B60B40E150E06C2F8BE495E0ED
:100B6000CF910C949C0C1F93CF93DF93C8E6D0E0F9
:100B7000FE011491112371F01A3029F46DE08BE419
:100B800095E00E94B80B612F8BE495E00E94B80BB2
:100B90002196EECFDF91CF911F910895CF92DF92F2
:100BA000EF92FF920F931F93CF93DF936DE674E064
:100BB0008BE495E00E94D30B8EE395E00E94C7037F
:100BC0008C016EED72E08BE495E00E94B60BC801DB
:100BD0000E949C02BC018BE495E00E94D30BC801EB
:100BE0000E946E036C01C0E0D0E0C8010E94720355
:100BF00090E0C817D907ECF46C2FC8010E9462037B
:100C00007C010E949C02BC018BE495E00E94B60B23
:100C1000CE14DF0431F462EF72E08BE495E00E94C1
:100C2000B60B6DE674E08BE495E00E94D30B219641
:100C3000DCCFDF91CF911F910F91FF90EF90DF906C
:100C4000CF90089526E040E855E260E070E08BE444
:100C500095E00E94710A0E94B3056EE075E082E3A0
:100C600095E00E9434034AE655E062E075E08EE0CC
:100C700095E00E94040348E955E06CEF74E08EE0D3
:100C800095E00E9404034BE057E066EF74E08EE0CD
:100C900095E00E94040366E275E082E395E00E941D
:100CA000340349ED56E060EF74E086E295E00E947F
:100CB000040344E255E06AEE74E086E295E00E94A7
:100CC00004034EE155E060E275E082E395E00E94A6
:100CD00004034EE255E06AE175E082E395E00E948C
:100CE000040348E455E068E075E082E395E00E9483
:100CF000040362E375E08EE395E00E94C1030C9467
:100D0000CE058EE395E00E947F0367EF72E082E3F9
:100D100095E00E94A0026BE173E086E295E00E94FC
:100D2000A0026FE173E080E295E00E94750362E249
:100D300073E08AE195E00E94750368E273E08EE05B
:100D400095E00E94A0026CE273E088E095E00E94CA
:100D5000750368E373E082E095E00E9475036AE43E
:100D600073E08CEF94E00E9475036EE673E086EF0B
:100D700094E00E94750367E773E080EF94E00E94BF
:100D8000750363E873E08AEE94E00E94750321E145
:100D900040E162E187EE94E00E94DC0022E044E062
:100DA0006AE084EE94E00E9463018BEC94E00C9482
:100DB000E1031F93CF93DF931F92CDB7DEB760E9B6
:100DC00073E08BE495E00E94D30B6FEB73E08BE450
:100DD00095E00E94D30B8BE495E00E948C09892B4F
:100DE000D1F38BE495E00E947D0E162F8BE495E005
:100DF0000E947D0E462F8BE495E049830E947D0E74
:100E0000262F4981612F87EE94E00F90DF91CF91DB
:100E10001F910C94FF000F931F93CF93DF9365E115
:100E200074E08BE495E00E94D30B69E374E08BE4FB
:100E300095E00E94D30B8BE495E00E948C09892BEE
:100E4000D1F38BE495E00E947D0E8B018BEC94E056
:100E50000E94CB03C0E0D0E0C017D10768F460E087
:100E600084EE94E00E94A201AB01BC018BEC94E003
:100E70000E94E3032196F0CF6EE674E08BE495E0E8
:100E80000E94B60B61E874E08BE495E00E94B60B1B
:100E90008BEC94E00E949A04AB01BC012AE030E0A4
:100EA0008BE495E00E943E0C6BE874E08BE495E0E7
:100EB0000E94B60B8BEC94E00E94A004AB01BC0135
:100EC00022E030E08BE495E00E94B00D67E974E029
:100ED0008BE495E00E94B60B8BEC94E00E94BE047C
:100EE000AB01BC0122E030E08BE495E0DF91CF91D3
:100EF0001F910F910C94B20D8BE495E00E94A7090D
:100F000018164CF58436F9F02CF48F3311F1823633
:100F1000A9F008958E3659F0853719F08836D9F43E
:100F200018C060E08EE395E00E948A0305C060E08F
:100F30008EE395E00E9485030C94CE058EE395E048
:100F40000E94AF03F9CF61E08EE395E00E948F032A
:100F5000F3CF0C94B30508950E945A080E9422060C
:100F6000CBEBD9E00E947C072097E1F30E94BB09FC
:100F7000F9CF1F920F920FB60F9211242F933F9328
:100F80008F939F93AF93BF938091430590914405B6
:100F9000A0914505B09146053091420523E0230F0D
:100FA0002D3720F40196A11DB11D05C026E8230FA1
:100FB0000296A11DB11D2093420580934305909395
:100FC0004405A0934505B09346058091470590914F
:100FD0004805A0914905B0914A050196A11DB11D92
:100FE0008093470590934805A0934905B0934A051F
:100FF000BF91AF919F918F913F912F910F900FBE15
:101000000F901F9018952FB7F89460914305709139
:10101000440580914505909146052FBF08953FB73F
:10102000F8948091470590914805A0914905B091A9
:101030004A0526B5A89B05C02F3F19F00196A11DB2
:10104000B11D3FBF6627782F892F9A2F620F711D20
:10105000811D911D42E0660F771F881F991F4A95D9
:10106000D1F70895CF92DF92EF92FF92CF93DF9363
:101070006B017C010E940F08EB01C114D104E10453
:10108000F10489F00E94A90E0E940F086C1B7D0BD1
:10109000683E734090F381E0C81AD108E108F10876
:1010A000C851DC4FEACFDF91CF91FF90EF90DF90F6
:1010B000CF900895789484B5826084BD84B58160B2
:1010C00084BD85B5826085BD85B5816085BDEEE650
:1010D000F0E0808181608083E1E8F0E0108280812F
:1010E00082608083808181608083E0E8F0E080819D
:1010F00081608083E1EBF0E0808184608083E0EBBD
:10110000F0E0808181608083EAE7F0E080818460A4
:101110008083808182608083808181608083808100
:10112000806880831092C10008951F93CF93DF934E
:10113000182FEB0161E00E941D09209711F460E077
:1011400004C0CF3FD10539F461E0812FDF91CF9109
:101150001F910C945609E12FF0E0E35FFE4FE491FC
:10116000E330F9F048F4E130B9F0E230A1F584B5AC
:10117000806284BDC8BD34C0E730E9F0E83019F1C1
:10118000E43049F580918000806280938000D093A4
:101190008B00C0938A0024C084B5806884BDC7BD1D
:1011A0001FC080918000806880938000D093890068
:1011B000C093880015C08091B00080688093B00013
:1011C000C093B3000DC08091B00080628093B000E6
:1011D000C093B40005C0C038D1050CF0B5CFAFCF77
:1011E000DF91CF911F910895833081F028F48130F1
:1011F00099F08230A1F008958730A9F08830B9F0D5
:101200008430D1F4809180008F7D03C08091800074
:101210008F7780938000089584B58F7702C084B55E
:101220008F7D84BD08958091B0008F7703C0809139
:10123000B0008F7D8093B0000895CF93DF9390E04E
:10124000FC01EF5DFE4F2491FC01EB5CFE4F8491AD
:10125000882349F190E0880F991FFC01ED5AFE4F59
:10126000A591B491875B9E4FFC01C591D4919FB726
:10127000611108C0F8948C91209582238C93888109
:1012800082230AC0623051F4F8948C91322F309549
:1012900083238C938881822B888304C0F8948C915B
:1012A000822B8C939FBFDF91CF9108950F931F9353
:1012B000CF93DF931F92CDB7DEB7282F30E0F9012F
:1012C000E35FFE4F8491F901EF5DFE4F1491F90148
:1012D000EB5CFE4F04910023C9F0882321F0698361
:1012E0000E94F4086981E02FF0E0EE0FFF1FE75B3A
:1012F000FE4FA591B4919FB7F8948C91611103C0F2
:101300001095812301C0812B8C939FBF0F90DF919B
:10131000CF911F910F910895FC01818D228D90E056
:10132000805C9F4F821B910960E470E00E94201155
:101330000895FC01918D828D981731F0828DE80F10
:10134000F11D858D90E008958FEF9FEF0895FC01CA
:10135000918D828D981761F0828DDF01A80FB11DEC
:101360005D968C91928D9F5F9F73928F90E0089510
:101370008FEF9FEF08958BE29BE0892B49F080E08F
:1013800090E0892B29F00E942B0B81110C94000016
:101390000895FC01848DDF01A80FB11DA35ABF4F32
:1013A0002C91848D90E001968F739927848FA68964
:1013B000B7892C93A089B1898C9180648C93938D8B
:1013C000848D981306C00288F389E02D80818F7D7B
:1013D00080830895CF93DF93EC01888D8823C9F033
:1013E000EA89FB89808185FD05C0A889B9898C912E
:1013F00086FD0FC00FB607FCF5CF808185FFF2CFC9
:10140000A889B9898C9185FFEDCFCE010E94C909C9
:10141000E7CFDF91CF910895CF92DF92FF920F93A4
:101420001F93CF93DF931F92CDB7DEB76C01DC0122
:101430005B969C915B975C968C915C97981307C028
:101440005096ED91FC915197808185FD32C0F60157
:10145000038D10E00F5F1F4F0F731127F02EF60161
:10146000848DF81211C00FB607FCF9CFD601509643
:10147000ED91FC915197808185FFF1CFC601698381
:101480000E94C9096981EBCF838DE80FF11DE35AF2
:10149000FF4F6083D6015B960C935B975296ED915C
:1014A000FC91539780818062808381E058968C9371
:1014B0000DC0D6015696ED91FC91579760835096DA
:1014C000ED91FC91519780818064808381E090E070
:1014D0000F90DF91CF911F910F91FF90DF90CF90F0
:1014E0000895BF92CF92DF92EF92FF92CF93DF9356
:1014F000EC016A017B01B22EE889F98982E08083E0
:10150000411581EE580761057105A1F060E079E0B1
:101510008DE390E0A70196010E943411215031091A
:10152000410951095695479537952795211580E131
:10153000380798F0E889F989108260E874E88EE14C
:1015400090E0A70196010E94341121503109410910
:1015500051095695479537952795EC85FD8530833C
:10156000EE85FF852083188EEC89FD89B082EA899B
:10157000FB89808180618083EA89FB898081886022
:101580008083EA89FB89808180688083EA89FB897E
:1015900080818F7D8083DF91CF91FF90EF90DF90EE
:1015A000CF90BF9008951F920F920FB60F92112403
:1015B0002F938F939F93EF93FF93E0915B05F091AF
:1015C0005C058081E0916105F091620582FD12C0A9
:1015D0009081809164058F5F8F73209165058217DC
:1015E00051F0E0916405F0E0E55BFA4F958F809350
:1015F000640501C08081FF91EF919F918F912F91A0
:101600000F900FBE0F901F9018951F920F920FB65C
:101610000F9211242F933F934F935F936F937F9378
:101620008F939F93AF93BF93EF93FF938BE495E0DA
:101630000E94C909FF91EF91BF91AF919F918F9146
:101640007F916F915F914F913F912F910F900FBEBE
:101650000F901F9018958BE495E00E948C0921E073
:10166000892B09F420E0822F089510924E051092E4
:101670004D0588EE93E0A0E0B0E080934F05909395
:101680005005A0935105B09352058DEA94E09093D4
:101690004C0580934B0585EC90E090935805809322
:1016A000570584EC90E090935A058093590580EC9F
:1016B00090E090935C0580935B0581EC90E09093C3
:1016C0005E0580935D0582EC90E0909360058093C9
:1016D0005F0586EC90E0909362058093610510921F
:1016E00064051092650510926605109267050895CD
:1016F000CF92DF92EF92FF920F931F93CF93DF93DE
:101700006C017A01EB01E60EF71E00E010E0CE1549
:10171000DF0561F06991D601ED91FC910190F081B6
:10172000E02DC6010995080F191FF1CFC801DF91FF
:10173000CF911F910F91FF90EF90DF90CF90089580
:101740006115710581F0DB010D900020E9F7AD0115
:1017500041505109461B570BDC01ED91FC91028071
:10176000F381E02D099480E090E008950C94A00BA3
:10177000DC01ED91FC910190F081E02D09940F9333
:101780001F93CF93DF93EC016DE00E94B80B8C01A7
:101790006AE0CE010E94B80B800F911FDF91CF91BC
:1017A0001F910F9108950F931F93CF93DF93EC0137
:1017B0000E94A00B8C01CE010E94BF0B800F911FD5
:1017C000DF91CF911F910F9108958F929F92AF92C9
:1017D000BF92CF92DF92EF92FF920F931F93CF931E
:1017E000DF93CDB7DEB7A1970FB6F894DEBF0FBE7B
:1017F000CDBF7C01C42EE52FCB01D22E19A221E052
:101800002D1510F02AE0D22E8E010F5D1F4F8D2C6A
:10181000912CA12CB12C6C2D7E2FA50194010E943E
:1018200034118C2DD29E80191124015011098A3057
:1018300014F4805D01C0895CF801808321153105B5
:101840004105510521F0C22EE32FCA01E4CFB801B2
:10185000C7010E94A00BA1960FB6F894DEBF0FBE81
:10186000CDBFDF91CF911F910F91FF90EF90DF904F
:10187000CF90BF90AF909F908F900895CF92DF92BE
:10188000EF92FF920F931F93CF93DF93EC016A01C6
:101890007B012115310579F4E881F9810190F0810E
:1018A000E02D642FDF91CF911F910F91FF90EF906A
:1018B000DF90CF9009942A303105E9F477FF1AC000
:1018C0006DE20E94B80B8C0144275527BA014C19D0
:1018D0005D096E097F092AE0CE010E94E50B800FA9
:1018E000911FDF91CF911F910F91FF90EF90DF90AB
:1018F000CF9008952AE0B701A601CE01DF91CF91E4
:101900001F910F91FF90EF90DF90CF900C94E50B1B
:101910002115310541F4DC01ED91FC910190F0813C
:10192000E02D642F09940C94E50B9A01462F50E0AA
:1019300060E070E00C94880C0F931F93CF93DF93BB
:10194000EC019A01462F50E060E070E00E94880CA4
:101950008C01CE010E94BF0B800F911FDF91CF91B0
:101960001F910F9108950F931F93CF93DF93EC0175
:101970000E94880C8C01CE010E94BF0B800F911F2A
:10198000DF91CF911F910F9108954F925F926F92C7
:101990007F928F929F92AF92BF92CF92DF92EF92FF
:1019A000FF920F931F93CF93DF93EC016A017B01AA
:1019B000B22E9A01AB01C701B6010E94071188231C
:1019C00019F069EB74E027C026013701E89477F835
:1019D0002FEF3FEF4FE75FE7C301B2010E9407110E
:1019E00081110DC02FEF3FEF4FE75FE7C301B20159
:1019F0000E940F0F18161CF46DEB74E00CC02FEF53
:101A00003FEF4FE75FE4C701B6010E945E10181672
:101A1000ACF461EC74E0CE01DF91CF911F910F9196
:101A2000FF90EF90DF90CF90BF90AF909F908F90FE
:101A30007F906F905F904F900C94A00B2FEF3FEF33
:101A40004FE75FECC701B6010E940F0F87FDE1CFA2
:101A500020E030E0A901C701B6010E940F0F87FF07
:101A60000AC06DE2CE010E94B80B8C01F7FAF09427
:101A7000F7F8F09402C000E010E0A12C60E070E004
:101A800080E09FE3AB1441F020E030E040E251E41D
:101A90000E94130FA394F6CF9B01AC01C701B601BE
:101AA0000E94AB0E6B017C010E94800F2B013C0158
:101AB0000E94AC0F9B01AC01C701B6010E94AA0EA7
:101AC0006B017C012AE0B301A201CE010E94E50B6B
:101AD000080F191FBB2039F065EC74E0CE010E949D
:101AE000A00B080F191F7B2C772041F120E030E07C
:101AF00040E251E4C701B6010E9462106B017C0113
:101B00000E947B0F4B01AA2497FCA094BA2C2AE0D8
:101B100030E0B501A401CE010E943E0C080F191F50
:101B2000C501B4010E94AE0F9B01AC01C701B60113
:101B30000E94AA0E6B017C017A94D6CFC801DF9176
:101B4000CF911F910F91FF90EF90DF90CF90BF90BA
:101B5000AF909F908F907F906F905F904F9008957F
:101B60000C94C50C0F931F93CF93DF93EC010E944D
:101B7000C50C8C01CE010E94BF0B800F911FDF911D
:101B8000CF911F910F9108950F931F93CF93DF93E0
:101B9000EC010E940308688779878A879B87E88120
:101BA000F9810084F185E02DCE01099597FF15C0DC
:101BB0000E940308088519852A853B85601B710BE7
:101BC000820B930B0C811D812E813F816017710761
:101BD0008207930720F38FEF9FEFDF91CF911F9143
:101BE0000F910895CF93DF93EC01CE010E94C40DB5
:101BF00097FD11C08D32910571F09C012053310980
:101C00002A30310540F0E881F9810680F781E02D26
:101C1000CE010995EACFDF91CF910895CF92DF925F
:101C2000FF920F931F93CF93DF9300D000D0CDB7D7
:101C3000DEB76C01062F0E94F20DFC0197FD4BC030
:101C400020E030E0A901F12C112707FD1095E017E5
:101C5000F107E9F0ED32F105C1F0CF01C0970A9725
:101C6000B0F4AAE0B0E00E9456119B01AC01CF0194
:101C7000AA2797FDA095BA2F280F391F4A1F5B1F6F
:101C8000205331094109510902C0FF24F394D601C0
:101C9000ED91FC910680F781E02DC60129833A83FE
:101CA0004B835C830995C6010E94C40DFC01C0975B
:101CB00029813A814B815C810A9748F2E017F1074C
:101CC00031F2FF2061F066277727CB01621B730B8F
:101CD000840B950B06C060E070E0CB0102C0CA0126
:101CE000B9010F900F900F900F90DF91CF911F913E
:101CF0000F91FF90DF90CF90089561E00C940E0E4D
:101D000061E08AE00E94560961E08AE00E941D09B4
:101D10008CB580618CBD8CB580648CBD61E08DE03C
:101D20000E941D0961E08BE00C941D099CB5937F16
:101D3000982B9CBD08952CB5982F93702C7F922BD7
:101D40009CBD9DB582FB882780F99E7F982B9DBD09
:101D5000089508955058BB27AA270ED075C166D1A3
:101D600030F06BD120F031F49F3F11F41EF45BC1D1
:101D70000EF4E095E7FB51C1E92F77D180F3BA1754
:101D8000620773078407950718F071F49EF58FC1F9
:101D90000EF4E0950B2EBA2FA02D0B01B901900186
:101DA0000C01CA01A0011124FF27591B99F0593FCA
:101DB00050F4503E68F11A16F040A22F232F342F12
:101DC0004427585FF3CF469537952795A795F04060
:101DD0005395C9F77EF41F16BA0B620B730B840B75
:101DE000BAF09150A1F0FF0FBB1F661F771F881F2D
:101DF000C2F70EC0BA0F621F731F841F48F4879585
:101E000077956795B795F7959E3F08F0B3CF939573
:101E1000880F08F09927EE0F979587950895D9D0E8
:101E200008F481E008950CD00FC107D140F0FED036
:101E300030F021F45F3F19F0F0C0511139C1F3C007
:101E400014D198F39923C9F35523B1F3951B550B7E
:101E5000BB27AA2762177307840738F09F5F5F4F7D
:101E6000220F331F441FAA1FA9F333D00E2E3AF0BE
:101E7000E0E830D091505040E695001CCAF729D0D8
:101E8000FE2F27D0660F771F881FBB1F2617370727
:101E90004807AB07B0E809F0BB0B802DBF01FF2757
:101EA00093585F4F2AF09E3F510568F0B6C000C1BD
:101EB0005F3FECF3983EDCF3869577956795B79591
:101EC000F7959F5FC9F7880F911D9695879597F9AC
:101ED0000895E1E0660F771F881FBB1F6217730725
:101EE0008407BA0720F0621B730B840BBA0BEE1F3A
:101EF00088F7E095089504D06894B111D9C0089589
:101F0000BCD088F09F5790F0B92F9927B751A0F017
:101F1000D1F0660F771F881F991F1AF0BA95C9F77D
:101F200012C0B13081F0C3D0B1E00895C0C0672FB6
:101F3000782F8827B85F39F0B93FCCF3869577952D
:101F40006795B395D9F73EF4909580957095619516
:101F50007F4F8F4F9F4F0895E89409C097FB3EF441
:101F600090958095709561957F4F8F4F9F4F9923E6
:101F7000A9F0F92F96E9BB279395F6958795779564
:101F80006795B795F111F8CFFAF4BB0F11F460FF24
:101F90001BC06F5F7F4F8F4F9F4F16C0882311F07C
:101FA00096E911C0772321F09EE8872F762F05C090
:101FB000662371F096E8862F70E060E02AF09A952B
:101FC000660F771F881FDAF7880F9695879597F920
:101FD0000895990F0008550FAA0BE0E8FEEF1616BA
:101FE0001706E807F907C0F012161306E407F5070D
:101FF00098F0621B730B840B950B39F40A2661F081
:10200000232B242B252B21F408950A2609F4A14023
:10201000A6958FEF811D811D089597F99F6780E830
:1020200070E060E008959FEF80EC089500240A942A
:102030001616170618060906089500240A941216A3
:102040001306140605060895092E0394000C11F4D6
:10205000882352F0BB0F40F4BF2B11F460FF04C083
:102060006F5F7F4F8F4F9F4F089557FD9058440FDC
:10207000551F59F05F3F71F04795880F97FB991FE7
:1020800061F09F3F79F087950895121613061406A4
:10209000551FF2CF4695F1DF08C016161706180631
:1020A000991FF1CF86957105610508940895E8940C
:1020B000BB2766277727CB0197F908958ADF08F4B5
:1020C0008FEF08950BD0C0CFB1DF28F0B6DF18F046
:1020D000952309F0A2CFA7CF1124EACFC6DFA0F342
:1020E000959FD1F3950F50E0551F629FF001729FAD
:1020F000BB27F00DB11D639FAA27F00DB11DAA1FCC
:10210000649F6627B00DA11D661F829F2227B00D18
:10211000A11D621F739FB00DA11D621F839FA00DA3
:10212000611D221F749F3327A00D611D231F849FF3
:10213000600D211D822F762F6A2F11249F5750404A
:102140008AF0E1F088234AF0EE0FFF1FBB1F661FE5
:10215000771F881F91505040A9F79E3F510570F09E
:102160005CCFA6CF5F3FECF3983EDCF38695779586
:102170006795B795F795E7959F5FC1F7FE2B880F99
:10218000911D9695879597F9089511F40EF44BCF0C
:1021900042C073DFD0F39923D9F3CEF39F57550B89
:1021A00087FF47D00024A0E640EA9001805856956A
:1021B000979528F4805C660F771F881F20F02617FC
:1021C0003707480730F4621B730B840B2029312931
:1021D0004A2BA69517940794202531254A2758F7AE
:1021E000660F771F881F20F026173707480730F43F
:1021F000620B730B840B200D311D411DA09581F7DF
:10220000B901842F9158880F969587950895E1DE3E
:10221000880B990B08959F3F31F0915020F48795DA
:1022200077956795B795880F911D9695879597F93E
:10223000089591505040660F771F881FD2F7089578
:1022400097FB072E16F4009407D077FD09D00E9463
:10225000611107FC05D03EF4909581959F4F08953C
:10226000709561957F4F0895A1E21A2EAA1BBB1BA2
:10227000FD010DC0AA1FBB1FEE1FFF1FA217B30752
:10228000E407F50720F0A21BB30BE40BF50B661F68
:10229000771F881F991F1A9469F76095709580952C
:1022A00090959B01AC01BD01CF0108950E947B1167
:1022B000A59F900DB49F900DA49F800D911D11249A
:1022C0000895AA1BBB1B51E107C0AA1FBB1FA6177D
:1022D000B70710F0A61BB70B881F991F5A95A9F7CF
:1022E00080959095BC01CD010895EE0FFF1F0590DC
:1022F000F491E02D0994A29FB001B39FC001A39F68
:10230000700D811D1124911DB29F700D811D11242E
:10231000911D0895CF93DF938230910510F482E0F0
:1023200090E0E091EA05F091EB0520E030E0A0E0DC
:10233000B0E0309739F14081518148175907B8F022
:102340004817590771F482819381109729F01396E9
:102350009C938E9312972CC09093EB058093EA0583
:1023600027C02115310531F04217530718F0A90194
:10237000DB0101C0EF019A01BD01DF010280F381A1
:10238000E02DD7CF21153105F9F0281B390B24306A
:10239000310580F48A819B816115710521F0FB0173
:1023A0009383828304C09093EB058093EA05FE013A
:1023B000329644C0FE01E20FF31F819391932250A5
:1023C0003109398328833AC02091E8053091E90525
:1023D000232B41F420910201309103013093E90550
:1023E0002093E8052091000130910101211531056C
:1023F00041F42DB73EB74091040150910501241BD3
:10240000350BE091E805F091E905E217F307A0F438
:102410002E1B3F0B2817390778F0AC014E5F5F4F3A
:102420002417350748F04E0F5F1F5093E90540937E
:10243000E8058193919302C0E0E0F0E0CF01DF91E5
:10244000CF910895CF93DF93009709F487C0FC01E3
:10245000329713821282C091EA05D091EB05209742
:1024600081F420813181280F391F8091E8059091F6
:10247000E9058217930779F5F093E905E093E805FC
:102480006DC0DE0120E030E0AE17BF0750F41296B9
:102490004D915C9113979D014115510509F1DA01A8
:1024A000F3CFB383A28340815181840F951F8A1794
:1024B0009B0771F48D919C911197840F951F029643
:1024C0009183808312968D919C911397938382833D
:1024D0002115310529F4F093EB05E093EA053EC0A0
:1024E000D9011396FC93EE9312974D915D91A40F31
:1024F000B51FEA17FB0779F480819181840F951F3E
:102500000296D90111969C938E93828193811396A2
:102510009C938E931297E0E0F0E08A819B81009774
:1025200019F0FE01EC01F9CFCE0102962881398124
:10253000820F931F2091E8053091E905281739078C
:1025400069F4309729F41092EB051092EA0502C065
:1025500013821282D093E905C093E805DF91CF91F1
:102560000895A0E0B0E0E7EBF2E10C948813EC01F1
:10257000CB01209719F40E948A11B8C0FE01E60F22
:10258000F71F9E0122503109E217F30708F4ACC08F
:10259000D9010D911C91119706171707B8F0053056
:1025A000110508F49FC0A801445051094617570768
:1025B00008F498C002501109061B170B01931193E0
:1025C0006D937C93CF010E9422128CC05B01A01AF4
:1025D000B10A4E01800E911EA091EA05B091EB0563
:1025E000612C712C60E070E0109709F449C0A815C7
:1025F000B905C9F5ED90FC901197670142E0C40E52
:10260000D11CCA14DB0478F147018A189B086401C5
:1026100042E0C40ED11C1296BC9012971396AC9156
:10262000B5E0CB16D10440F0B282A38391828082C0
:10263000D9018D939C9309C00E5F1F4F0E0D1F1D76
:10264000F90111830083EB2DFA2F6115710531F02B
:10265000DB011396FC93EE93129744C0F093EB05C5
:10266000E093EA053FC06D917C911197661677065D
:1026700008F43B01BD0112960D90BC91A02DB4CF82
:102680006091E8057091E90568157905E9F4681627
:102690007906D0F440910001509101014115510596
:1026A00041F44DB75EB76091040170910501461B7E
:1026B000570BE417F507C0F4F093E905E093E8053C
:1026C000F901918380830EC00E948A117C010097DA
:1026D00059F0A801BE010E947B13CE010E94221274
:1026E000C70104C0CE0102C080E090E0CDB7DEB7E4
:1026F000EEE00C94A413FB01DC0102C001900D92EA
:1027000041505040D8F708952F923F924F925F92D8
:102710006F927F928F929F92AF92BF92CF92DF92F1
:10272000EF92FF920F931F93CF93DF93CDB7DEB756
:10273000CA1BDB0B0FB6F894DEBF0FBECDBF0994EA
:102740002A88398848885F846E847D848C849B8441
:10275000AA84B984C884DF80EE80FD800C811B814F
:10276000AA81B981CE0FD11D0FB6F894DEBF0FBE7E
:0A277000CDBFED010895F894FFCFEE
:10277A000000EC0580002A2A2A7475726E4C4544C2
:10278A006F6E2A2A2A005265643A20002C2047726A
:10279A0065656E3A20002C20426C75653A20002A45
:1027AA002A2A2A44454255473A20494E204D435049
:1027BA003339303120494E4954002D2D3E204144B1
:1027CA00432056616C75653A2000596F7520656E15
:1027DA0074657265643A20007468697320726F7553
:1027EA0074696E65206578706563746564206569CF
:1027FA00746865722061203120666F7220636F6E83
:10280A006669672031206F72203220666F722063FA
:10281A006F6E6669672032000000000090020000B7
:10282A00000091022D2D3E20766F6C74733A2000C1
:10283A00207C20546865726D6973746F72205265CA
:10284A0073697374616E63653A20000A2A2A2A2A18
:10285A003E2070482053656C6563746564000A2ADB
:10286A002A2A2A3E205475726E206F6666204C45CD
:10287A00442053656C6563746564000A2A2A2A2A0F
:10288A003E2070756D70732053656C656374656462
:10289A00000A2A2A2A2A3E2074656D7065726174BC
:1028AA007572652053656C6563746564002D2D3EF1
:1028BA0020546865726D6973746F722072657369EA
:1028CA007374616E63653A20000A2A2A2A2A2A2A20
:1028DA002A2A2A2A2A2A2A2A2A2A2A2A2A2A2A2A4E
:1028EA002A2A2A2A2A2A2A2A2A2A2A002D2D2D3E4B
:1028FA0020436F6E66696720313A203058002D2DCB
:10290A002D3E20436F6E66696720323A20305800A8
:10291A002D2D2D3E20436F6E666967203120736826
:10292A006F756C6420626520305833432E2E6865BB
:10293A007265206973207468652076616C756520FC
:10294A00696E206D656D6F72793A20305800437553
:10295A007272656E74206D656E75206E616D653A72
:10296A0020003C3C3C20004865616C74687920700A
:10297A004820536869656C6420446961676E6F73A7
:10298A0074696320546573747320004C4544007065
:10299A00480070756D7073005350490074656D700E
:1029AA0065726174757265007265616420434F4E89
:1029BA004649472062797465730073657420434FF2
:1029CA004E464947203120746F20323420626974A0
:1029DA007320616E64204F53523D32353600726562
:1029EA00616420414443005475726E204C45442072
:1029FA006F6E005475726E204C4544206F666600F7
:102A0A000A2A2A2A2A3E205475726E206F6E204C9A
:102A1A0045442053656C65637465642028436F6D73
:102A2A006D6F6E20416E6F6465204C4544290045E8
:102A3A004E544552205252522C4747472C4242424A
:102A4A0020666F7220746865205245442C204752D4
:102A5A0045454E2C20424C55452076616C75657370
:102A6A00206F6620746865204C45442028652E67CF
:102A7A002E2072656420697320302C3235352C3251
:102A8A003535293A002A2A2A2A2A2A2A2A2A2A2AA1
:102A9A002A2A2A2A2A2A2A2A2A2A2A2A2A2A2A2A8C
:102AAA002A2A2A2A2A2A2A2A00456E746572206E40
:102ABA00756D6265722072656164696E67732074F0
:102ACA006F2074616B6520616E2061766572616743
:102ADA006520616E642053544445563A20004348A9
:102AEA003020566F6C742072656164696E673A2093
:102AFA00002020436F756E743A20002020417665CD
:102B0A00726167653A2000202053746420646576F8
:102B1A00696174696F6E3A2000000000000C0A783F
:102B2A000B8C09A7099909EA096E616E00696E663C
:082B3A00006F7666002E00001A
:00000001FF
