:100000000C94F2000C941A010C941A010C941A012D
:100010000C941A010C941A010C941A010C941A01F4
:100020000C941A010C941A010C941A010C941A01E4
:100030000C941A010C941A010C941A010C941A01D4
:100040000C9419050C941A010C947D070C94AF07BD
:100050000C941A010C941A010C941A010C941A01B4
:100060000C941A010C941A0107634236B79BD8A767
:100070001A39685618AEBAAB558C1D3CB7CC5763CD
:10008000BD6DEDFD753EF6177231BF000000803F7B
:1000900008000000BE922449123EABAAAA2ABECD97
:1000A000CCCC4C3E00000080BEABAAAAAA3E000009
:1000B0000000BF000000803F000000000008417801
:1000C000D3BB4387D1133D190E3CC3BD4282AD2B38
:1000D0003E68EC8276BED98FE1A93E4C80EFFFBE30
:1000E00001C4FF7F3F00000000000A417661696C97
:1000F00061626C6520636F6D6D616E64733A0A2096
:10010000203F20202020202D2073686F77732061EE
:100110007661696C61626C6520636F6D616E64739A
:100120000A20206420202020202D2073656C656328
:10013000746564202273656C65637465642220694C
:1001400074656D0A20207520202020202D20676FE7
:1001500020746F2070726576696F7573206974659D
:100160006D0A20206E20202020202D20676F207413
:100170006F206E657874206974656D0A2020622096
:10018000202020202D20676F206261636B0A000011
:100190000000080002010000030407000000000046
:1001A0000000000102040810204080010204081031
:1001B00020010204081020040404040404040402BE
:1001C00002020202020303030303030000000025EE
:1001D0000028002B0000000000240027002A000057
:1001E0009C04DF0711241FBECFEFD8E0DEBFCDBFD8
:1001F00013E0A0E0B1E0E0EFFEE102C005900D9257
:10020000A635B107D9F724E0A6E5B3E001C01D92F9
:10021000A335B207E1F711E0C4EED1E004C02297A4
:10022000FE010E94410DC03ED107C9F70E940C0596
:100230000C94760F0C9400000895DC011496ED9157
:10024000FC911597309709F0099580E090E00895AA
:10025000FC01828193810895FC01738362838AE0AB
:1002600091E0918380831582148217821682118611
:100270001086128613860895FC014385242F30E0F2
:10028000828590E001972817390761F081E0840F9B
:10029000838726819781A22FB92FA80FB11DA80FA0
:1002A000B11D05C0662349F01386A681B7818D91E3
:1002B0009C919583848381E0089580E00895FC01FA
:1002C0008385811103C0662389F0828581508387ED
:1002D00026819781A22FB92FA80FB11DA80FB11D9C
:1002E0008D919C919583848381E0089580E00895A9
:1002F000FC01838526819781E22FF92FE80FF11DFC
:10030000E80FF11D80819181009739F0DC01ED91BA
:10031000FC910190F081E02D099480E090E0089537
:10032000EF92FF920F931F93CF93DF93EC018B011A
:100330007A016A8570E06F5F7F4F660F771F8E814D
:100340009F810E946C0E9F838E83009791F02A8577
:10035000FC01E20FF11DE20FF11D11830083F80192
:10036000F582E4828A85811102C01D830C838F5F30
:100370008A87DF91CF911F910F91FF90EF900895A1
:100380000F931F93CF93DF93EC018B016A8570E08D
:100390006F5F7F4F660F771F8E819F810E946C0E6B
:1003A0009F838E83009799F0F801D187C0872A85B3
:1003B000FC01E20FF11DE20FF11D118300832111F9
:1003C00002C01D830C832F5F2A87C80102C080E012
:1003D00090E0DF91CF911F910F910895FC0126814C
:1003E0008781E22FF82FE60FF11DE60FF11D8081C6
:1003F00091810895FC01848195810895FC01828595
:100400000895FC017383628380E191E0918380838E
:10041000158214820895FC011182108213821282C7
:100420000895FC01828193810C943C01FC0182813E
:1004300093810C945F010F931F93CF93DF931F92CF
:10044000CDB7DEB78C01FC018281938169830E9464
:1004500078016981009711F0F80105C0662329F041
:10046000F80180819181938382830F90DF91CF91F6
:100470001F910F910895FC01A281B3818081918128
:10048000A817B90741F018968D919C9119979383FD
:10049000828381E0089580E00895FC017183608388
:1004A000738362830895FC018281938108950F9381
:1004B0001F93CF93DF931F92CDB7DEB7062F142F74
:1004C00062E171E082EB93E029830E947D0865E29E
:1004D00071E082EB93E00E9460084AE050E0602FF8
:1004E00082EB93E00E94470968E371E082EB93E0BE
:1004F0000E9460084AE050E0612F82EB93E00E9486
:10050000470963E471E082EB93E00E9460084AE0EF
:1005100050E02981622F82EB93E00E944E0961E056
:10052000802F0E94C70561E0812F0E94C70561E00E
:10053000812F0E94000680E00E94970983E00E94BC
:100540009C090F90DF91CF911F910F910C9481091D
:100550008F929F92AF92BF92CF92DF92EF92FF92D3
:100560000F931F93CF93DF9300D000D0CDB7DEB7AA
:100570008B0188E0480250011124812C912C6B01E1
:10058000E12CF12C8A149B046CF5B401882777FDCB
:100590008095982F0E947D0A9B01AC0160E070E07D
:1005A00080E090E40E94900B9B01AC01C701B60172
:1005B00029833A834B835C830E947B0A29813A8199
:1005C0004B815C810E940F0A87FF08C04AE050E01F
:1005D00060E070E082EB93E00E943209EFEF8E1A48
:1005E0009E0AD0CF42E050E0B80182EB93E00E9437
:1005F00065096BE471E082EB93E00E94600840E1E2
:1006000050E0B80182EB93E00F900F900F900F90A5
:10061000DF91CF911F910F91FF90EF90DF90CF90DE
:10062000BF90AF909F908F900C946B090F931F9386
:10063000CF93DF93EC01062F142F60E571E082EB7E
:1006400093E00E947D0860E0802F0E940006116008
:1006500069E671E082EB93E00E946008612F70E030
:1006600041E0CE010E94A8021EBD0DB407FEFDCFE1
:10067000CEB561E0802F0E9400068C2FDF91CF91D4
:100680001F910F9108950F931F93CF93DF93EC0168
:10069000162F68E771E082EB93E00E94600842E069
:1006A00064E170E0CE010E94A80244E150E0612FB5
:1006B000CE010E941603082F6EE871E082EB93E0F2
:1006C0000E946008602F772767FD709541E0CE019A
:1006D0000E94A8026AEA71E082EB93E00E9460083F
:1006E00042E066E170E0CE010E94A80246E150E0DF
:1006F000612FCE010E941603182F60EC71E082EB8F
:1007000093E00E946008612F772767FD709541E0B4
:10071000CE01DF91CF911F910F910C94A8021F93EE
:10072000CF93DF93EC01162F0E945702612FCE0169
:100730000E944303DF91CF911F9108956CED71E00A
:1007400082EB93E00C947D0868EF71E082EB93E01C
:100750000C947D0865E172E082EB93E00C947D08D7
:1007600068E272E082EB93E00C947D086EE372E045
:1007700082EB93E00C947D086AE572E082EB93E0F3
:100780000E947D0822E044E06AE086E593E00C9454
:100790008F0360E872E082EB93E00E947D0823E023
:1007A00045E069E086E593E00C948F031F93CF93B7
:1007B000DF93CAEED0E0FE011491112371F01A30DC
:1007C00029F46DE082EB93E00E946208612F82EBD6
:1007D00093E00E9462082196EECFDF91CF911F91A6
:1007E0000895CF92DF92EF92FF920F931F93CF93D2
:1007F000DF936DE871E082EB93E00E947D0885EA6B
:1008000093E00E9453028C0166EA72E082EB93E06F
:100810000E946008C8010E942801BC0182EB93E09D
:100820000E947D08C8010E94FA016C01C0E0D0E07E
:10083000C8010E94FE0190E0C817D907ECF46C2FA4
:10084000C8010E94EE017C010E942801BC0182EBDC
:1008500093E00E946008CE14DF0431F46AEB72E08A
:1008600082EB93E00E9460086DE871E082EB93E018
:100870000E947D082196DCCFDF91CF911F910F91CF
:10088000FF90EF90DF90CF90089526E040E855E28A
:1008900060E070E082EB93E00E941B070E94D603A9
:1008A00065E773E089E993E00E94C0014CEB53E0F7
:1008B00069E673E085E793E00E94900149EC53E01C
:1008C00063E673E085E793E00E9490016DE873E0D2
:1008D00089E993E00E94C0014EE953E06DE573E0C1
:1008E0008DE893E00E94900144EA53E067E573E0ED
:1008F0008DE893E00E9490014AEA53E067E873E0D4
:1009000089E993E00E94900140EB53E061E873E0D5
:1009100089E993E00E94900146EB53E06FE673E0B3
:1009200089E993E00E94900169E973E085EA93E028
:100930000E944D020C94F10385EA93E00E940B02A1
:100940006FEB72E089E993E00E942C0163EE72E0A4
:100950008DE893E00E942C0167EE72E087E893E057
:100960000E9401026AEE72E081E893E00E940102B7
:1009700060EF72E085E793E00E942C0164EF72E083
:100980008FE693E00E94010260E073E089E693E065
:100990000E94010266E173E083E693E00E94010297
:1009A0006CE273E08DE593E00E94010268E373E07E
:1009B00087E593E00C94010282EB93E00E945106DC
:1009C00018164CF58436F9F02CF48F3311F1823679
:1009D000A9F008958E3659F0853719F08836D9F484
:1009E00018C060E085EA93E00E94160205C060E04E
:1009F00085EA93E00E9411020C94F10385EA93E0EA
:100A00000E943B02F9CF61E085EA93E00E941B025D
:100A1000F3CF0C94D60308950E9463050E94450409
:100A2000C5E6D6E00E94DC042097E1F30E9465064B
:100A3000F9CF1F920F920FB60F9211242F933F936D
:100A40008F939F93AF93BF938091AA039091AB0331
:100A5000A091AC03B091AD033091A90323E0230F23
:100A60002D3720F40196A11DB11D05C026E8230FE6
:100A70000296A11DB11D2093A9038093AA03909310
:100A8000AB03A093AC03B093AD038091AE03909100
:100A9000AF03A091B003B091B1030196A11DB11DA8
:100AA0008093AE039093AF03A093B003B093B103D0
:100AB000BF91AF919F918F913F912F910F900FBE5A
:100AC0000F901F901895789484B5826084BD84B58A
:100AD000816084BD85B5826085BD85B5816085BD39
:100AE000EEE6F0E0808181608083E1E8F0E0108252
:100AF000808182608083808181608083E0E8F0E093
:100B0000808181608083E1EBF0E08081846080837C
:100B1000E0EBF0E0808181608083EAE7F0E08081B3
:100B20008460808380818260808380818160808313
:100B30008081806880831092C1000895833081F0A5
:100B400028F4813099F08230A1F008958730A9F01F
:100B50008830B9F08430D1F4809180008F7D03C05B
:100B6000809180008F7780938000089584B58F777F
:100B700002C084B58F7D84BD08958091B0008F77C9
:100B800003C08091B0008F7D8093B0000895CF9313
:100B9000DF9390E0FC01ED55FE4F2491FC01E954F8
:100BA000FE4F8491882349F190E0880F991FFC0142
:100BB000EB52FE4FA591B49185539E4FFC01C59118
:100BC000D4919FB7611108C0F8948C91209582232D
:100BD0008C93888182230AC0623051F4F8948C91FE
:100BE000322F309583238C938881822B888304C095
:100BF000F8948C91822B8C939FBFDF91CF910895B5
:100C00000F931F93CF93DF931F92CDB7DEB7282F9B
:100C100030E0F901E157FE4F8491F901ED55FE4FA7
:100C20001491F901E954FE4F04910023C9F088237F
:100C300021F069830E949E056981E02FF0E0EE0FAC
:100C4000FF1FE553FE4FA591B4919FB7F8948C9187
:100C5000611103C01095812301C0812B8C939FBF2C
:100C60000F90DF91CF911F910F910895FC01818D1D
:100C7000228D90E0805C9F4F821B910960E470E0C0
:100C80000E94F50C0895FC01918D828D981731F02A
:100C9000828DE80FF11D858D90E008958FEF9FEF15
:100CA0000895FC01918D828D981761F0828DDF018E
:100CB000A80FB11D5D968C91928D9F5F9F73928F4F
:100CC00090E008958FEF9FEF089585ED97E0892BD1
:100CD00049F080E090E0892B29F00E94D50781112E
:100CE0000C9400000895FC01848DDF01A80FB11D54
:100CF000A35ABF4F2C91848D90E001968F73992752
:100D0000848FA689B7892C93A089B1898C9180643E
:100D10008C93938D848D981306C00288F389E02DFF
:100D200080818F7D80830895CF93DF93EC01888D40
:100D30008823C9F0EA89FB89808185FD05C0A889DF
:100D4000B9898C9186FD0FC00FB607FCF5CF808165
:100D500085FFF2CFA889B9898C9185FFEDCFCE01AF
:100D60000E947306E7CFDF91CF910895CF92DF9273
:100D7000FF920F931F93CF93DF931F92CDB7DEB7F0
:100D80006C01DC015B969C915B975C968C915C9707
:100D9000981307C05096ED91FC915197808185FD85
:100DA00032C0F601038D10E00F5F1F4F0F73112744
:100DB000F02EF601848DF81211C00FB607FCF9CFA2
:100DC000D6015096ED91FC915197808185FFF1CF2E
:100DD000C60169830E9473066981EBCF838DE80F9A
:100DE000F11DE35AFF4F6083D6015B960C935B972E
:100DF0005296ED91FC91539780818062808381E0CF
:100E000058968C930DC0D6015696ED91FC9157974C
:100E100060835096ED91FC9151978081806480832E
:100E200081E090E00F90DF91CF911F910F91FF90A3
:100E3000DF90CF900895BF92CF92DF92EF92FF9212
:100E4000CF93DF93EC016A017B01B22EE889F98927
:100E500082E08083411581EE580761057105A1F09C
:100E600060E079E08DE390E0A70196010E94090D12
:100E700021503109410951095695479537952795D4
:100E8000211580E1380798F0E889F989108260E837
:100E900074E88EE190E0A70196010E94090D2150AF
:100EA0003109410951095695479537952795EC85A4
:100EB000FD853083EE85FF852083188EEC89FD89C2
:100EC000B082EA89FB89808180618083EA89FB891D
:100ED000808188608083EA89FB8980818068808343
:100EE000EA89FB8980818F7D8083DF91CF91FF909C
:100EF000EF90DF90CF90BF9008951F920F920FB6A2
:100F00000F9211242F938F939F93EF93FF93E09170
:100F1000C203F091C3038081E091C803F091C9033B
:100F200082FD12C090818091CB038F5F8F732091DF
:100F3000CC03821751F0E091CB03F0E0EE54FC4F6C
:100F4000958F8093CB0301C08081FF91EF919F919A
:100F50008F912F910F900FBE0F901F9018951F9299
:100F60000F920FB60F9211242F933F934F935F93DD
:100F70006F937F938F939F93AF93BF93EF93FF9361
:100F800082EB93E00E947306FF91EF91BF91AF91C6
:100F90009F918F917F916F915F914F913F912F9191
:100FA0000F900FBE0F901F90189582EB93E00E9458
:100FB000360621E0892B09F420E0822F0895109253
:100FC000B5031092B40388EE93E0A0E0B0E0809304
:100FD000B6039093B703A093B803B093B90389E421
:100FE00093E09093B3038093B20385EC90E09093E9
:100FF000BF038093BE0384EC90E09093C103809381
:10100000C00380EC90E09093C3038093C20381EC13
:1010100090E09093C5038093C40382EC90E090939A
:10102000C7038093C60386EC90E09093C903809336
:10103000C8031092CB031092CC031092CD031092F0
:10104000CE030895CF92DF92EF92FF920F931F93FA
:10105000CF93DF936C017A01EB01E60EF71E00E0FF
:1010600010E0CE15DF0561F06991D601ED91FC919C
:101070000190F081E02DC6010995080F191FF1CFED
:10108000C801DF91CF911F910F91FF90EF90DF90FA
:10109000CF9008956115710581F0DB010D9000205E
:1010A000E9F7AD0141505109461B570BDC01ED91A9
:1010B000FC910280F381E02D099480E090E0089596
:1010C0000C944A08DC01ED91FC910190F081E02D37
:1010D00009940F931F93CF93DF93EC016DE00E946F
:1010E00062088C016AE0CE010E946208800F911FA5
:1010F000DF91CF911F910F9108950F931F93CF937D
:10110000DF93EC010E944A088C01CE010E9469081D
:10111000800F911FDF91CF911F910F9108958F92B2
:101120009F92AF92BF92CF92DF92EF92FF920F9376
:101130001F93CF93DF93CDB7DEB7A1970FB6F89487
:10114000DEBF0FBECDBF7C01C42EE52FCB01D22E5A
:1011500019A221E02D1510F02AE0D22E8E010F5D8C
:101160001F4F8D2C912CA12CB12C6C2D7E2FA50105
:1011700094010E94090D8C2DD29E801911240150DA
:1011800011098A3014F4805D01C0895CF801808304
:10119000211531054105510521F0C22EE32FCA0169
:1011A000E4CFB801C7010E944A08A1960FB6F8948F
:1011B000DEBF0FBECDBFDF91CF911F910F91FF908A
:1011C000EF90DF90CF90BF90AF909F908F90089559
:1011D000CF92DF92EF92FF920F931F93CF93DF9303
:1011E000EC016A017B012115310579F4E881F9816F
:1011F0000190F081E02D642FDF91CF911F910F912D
:10120000FF90EF90DF90CF9009942A303105E9F4F8
:1012100077FF1AC06DE20E9462088C0144275527AF
:10122000BA014C195D096E097F092AE0CE010E94BE
:101230008F08800F911FDF91CF911F910F91FF9029
:10124000EF90DF90CF9008952AE0B701A601CE017C
:10125000DF91CF911F910F91FF90EF90DF90CF9092
:101260000C948F089A01AB01662757FD6095762F85
:101270000C94E8082115310541F4DC01ED91FC9155
:101280000190F081E02D642F09940C948F089A014D
:10129000462F50E060E070E00C943A090F931F93E2
:1012A000CF93DF93EC019A01462F50E060E070E0AD
:1012B0000E943A098C01CE010E946908800F911F9B
:1012C000DF91CF911F910F9108959A01AB0160E0DA
:1012D00070E00C943A090F931F93CF93DF93EC01C6
:1012E0009A01AB0160E070E00E943A098C01CE01E6
:1012F0000E946908800F911FDF91CF911F910F917C
:10130000089561E08AE00E94000661E08AE00E94A0
:10131000C7058CB580618CBD8CB580648CBD61E0E7
:101320008DE00E94C70561E08BE00C94C7059CB579
:10133000937F982B9CBD08952CB5982F93702C7F8C
:10134000922B9CBD9DB582FB882780F99E7F982BB0
:101350009DBD08955058BB27AA270ED044C135D152
:1013600030F03AD120F031F49F3F11F41EF42AC13D
:101370000EF4E095E7FB20C1E92F46D180F3BA17C0
:10138000620773078407950718F071F49EF55EC134
:101390000EF4E0950B2EBA2FA02D0B01B901900190
:1013A0000C01CA01A0011124FF27591B99F0593FD4
:1013B00050F4503E68F11A16F040A22F232F342F1C
:1013C0004427585FF3CF469537952795A795F0406A
:1013D0005395C9F77EF41F16BA0B620B730B840B7F
:1013E000BAF09150A1F0FF0FBB1F661F771F881F37
:1013F000C2F70EC0BA0F621F731F841F48F487958F
:1014000077956795B795F7959E3F08F0B3CF93957D
:10141000880F08F09927EE0F979587950895A8D023
:1014200008F481E008950CD0DEC0D6D040F0CDD0D5
:1014300030F021F45F3F19F0BFC0511108C1C2C0A4
:10144000E3D098F39923C9F35523B1F3951B550BBA
:10145000BB27AA2762177307840738F09F5F5F4F87
:10146000220F331F441FAA1FA9F333D00E2E3AF0C8
:10147000E0E830D091505040E695001CCAF729D0E2
:10148000FE2F27D0660F771F881FBB1F2617370731
:101490004807AB07B0E809F0BB0B802DBF01FF2761
:1014A00093585F4F2AF09E3F510568F085C0CFC02A
:1014B0005F3FECF3983EDCF3869577956795B7959B
:1014C000F7959F5FC9F7880F911D9695879597F9B6
:1014D0000895E1E0660F771F881FBB1F621773072F
:1014E0008407BA0720F0621B730B840BBA0BEE1F44
:1014F00088F7E0950895E89409C097FB3EF490952D
:101500008095709561957F4F8F4F9F4F9923A9F0DC
:10151000F92F96E9BB279395F6958795779567956B
:10152000B795F111F8CFFAF4BB0F11F460FF1BC0AF
:101530006F5F7F4F8F4F9F4F16C0882311F096E942
:1015400011C0772321F09EE8872F762F05C06623F0
:1015500071F096E8862F70E060E02AF09A95660FA9
:10156000771F881FDAF7880F9695879597F9089562
:10157000990F0008550FAA0BE0E8FEEF16161706A4
:10158000E807F907C0F012161306E407F50798F00C
:10159000621B730B840B950B39F40A2661F0232B25
:1015A000242B252B21F408950A2609F4A140A695A1
:1015B0008FEF811D811D089597F99F6780E870E086
:1015C00060E008959FEF80EC089500240A941616B9
:1015D000170618060906089500240A941216130621
:1015E000140605060895092E0394000C11F48823AF
:1015F00052F0BB0F40F4BF2B11F460FF04C06F5FCB
:101600007F4F8F4F9F4F089557FD9058440F551FA0
:1016100059F05F3F71F04795880F97FB991F61F074
:101620009F3F79F087950895121613061406551FEB
:10163000F2CF4695F1DF08C0161617061806991F57
:10164000F1CF86957105610508940895E894BB274C
:1016500066277727CB0197F908950BD0C4CFB5DF64
:1016600028F0BADF18F0952309F0A6CFABCF1124EC
:10167000EECFCADFA0F3959FD1F3950F50E0551F31
:10168000629FF001729FBB27F00DB11D639FAA27D7
:10169000F00DB11DAA1F649F6627B00DA11D661F26
:1016A000829F2227B00DA11D621F739FB00DA11D47
:1016B000621F839FA00D611D221F749F3327A00D01
:1016C000611D231F849F600D211D822F762F6A2F9D
:1016D00011249F5750408AF0E1F088234AF0EE0F22
:1016E000FF1FBB1F661F771F881F91505040A9F72F
:1016F0009E3F510570F060CFAACF5F3FECF3983E5C
:10170000DCF3869577956795B795F795E7959F5F95
:10171000C1F7FE2B880F911D9695879597F908952F
:10172000FA01EE0FFF1F30962105310599F1611581
:10173000710561F48038BFE39B0749F168949038E4
:10174000810561F08038BFEF9B0741F0992342F596
:10175000FF3FE1053105210511F1E8940894E79573
:10176000D901AA2329F4AB2FBE2FF85FD0F310C004
:10177000FF5F70F4A695E0F7F73950F019F0FF3AE3
:1017800038F49F779F930CD00F9007FC90580895E2
:101790003EF018CF60E070E080E89FE308954FE7E7
:1017A0009F775F934F933F932F939ED02F913F91BD
:1017B0004F915F9152DF05C019F40EF0FDCE46CF78
:1017C00001CF2ADFC8F39638C0F707F80F92E894E4
:1017D0002BE33AEA48EB5FE74EDF0F920F920F924E
:1017E0004DB75EB70F92C0D0E8E6F0E016D04F914B
:1017F0005F91EF91FF91E595EE1FFF1F49F0FE57B6
:10180000E0684427EE0F441FFA95E1F74195550B28
:1018100032D00F9007FE26C00895DF93CF931F9319
:101820000F93FF92EF92DF927B018C01689405C0C9
:10183000DA2EEF011EDFFE01E894A5912591359186
:1018400045915591AEF3EF0197DDFE019701A80197
:10185000DA9479F7DF90EF90FF900F911F91CF917D
:10186000DF9108959B01AC0160E070E080E89FE3A8
:10187000DACDA2CEACC0D0DEE8F39923D9F3940F31
:10188000511DBBF39150504094F059F0882332F031
:10189000660F771F881F91505040C1F79E3F51053A
:1018A00044F7880F911D9695879597F908955F3FA6
:1018B000ACF0983E9CF0BB27869577956795B795D9
:1018C00008F4B1609395C1F7BB0F58F711F460FFAE
:1018D000E8CF6F5F7F4F8F4F9F4FE3CFB8CE0EF0B3
:1018E00076C070CE689468CE97DEC8F39923D1F3A2
:1018F000C6F3DF93CF931F930F93FF92C92FDD277A
:1019000088232AF02197660F771F881FDAF720E0D7
:1019100030E040E85FEB9FE3883920F0803E30F014
:1019200021968F7718DDE0E9F0E003C014DDEDEBE0
:10193000F0E073DF8B01BE01EC01FB2E6F577109E4
:101940007595771F880B990BD8DD28E132E741E3C5
:101950005FE38FDEAF2D9801AE01FF900F911F91D5
:10196000CF91DF9109DD3FCEFA01DC01AA0FBB1F49
:101970009B01AC01BF5728F4222733274427507816
:101980001FC0B75188F4AB2F002446953795279593
:10199000011CA395D2F3002069F0220F331F441FCE
:1019A000B395DAF30DD0D6CC61307105A0E88A0783
:1019B000B94630F49B01AC016627772788279078D9
:1019C000309621F0208331834283538308959F3FD3
:1019D00031F0915020F4879577956795B795880FEA
:1019E000911D9695879597F9089597FB072E16F404
:1019F000009407D077FD09D00E942B0D07FC05D07D
:101A00003EF4909581959F4F0895709561957F4F15
:101A10000895A1E21A2EAA1BBB1BFD010DC0AA1F2F
:101A2000BB1FEE1FFF1FA217B307E407F50720F047
:101A3000A21BB30BE40BF50B661F771F881F991FC2
:101A40001A9469F760957095809590959B01AC010B
:101A5000BD01CF010895AA1BBB1B51E107C0AA1FFE
:101A6000BB1FA617B70710F0A61BB70B881F991F3F
:101A70005A95A9F780959095BC01CD010895EE0F78
:101A8000FF1F0590F491E02D0994CF93DF938230EE
:101A9000910510F482E090E0E0915104F09152043D
:101AA00020E030E0A0E0B0E0309739F14081518192
:101AB00048175907B8F04817590771F48281938184
:101AC000109729F013969C938E9312972CC09093A5
:101AD00052048093510427C02115310531F042177B
:101AE000530718F0A901DB0101C0EF019A01BD0104
:101AF000DF010280F381E02DD7CF21153105F9F008
:101B0000281B390B2430310580F48A819B816115B3
:101B1000710521F0FB019383828304C090935204EA
:101B200080935104FE01329644C0FE01E20FF31F80
:101B30008193919322503109398328833AC02091AF
:101B40004F0430915004232B41F420910201309135
:101B500003013093500420934F04209100013091F1
:101B600001012115310541F42DB73EB74091040123
:101B700050910501241B350BE0914F04F091500466
:101B8000E217F307A0F42E1B3F0B2817390778F054
:101B9000AC014E5F5F4F2417350748F04E0F5F1FB3
:101BA0005093500440934F048193919302C0E0E01E
:101BB000F0E0CF01DF91CF910895CF93DF930097AD
:101BC00009F487C0FC01329713821282C09151043C
:101BD000D0915204209781F420813181280F391F40
:101BE00080914F04909150048217930779F5F093F8
:101BF0005004E0934F046DC0DE0120E030E0AE17EA
:101C0000BF0750F412964D915C9113979D014115B9
:101C1000510509F1DA01F3CFB383A28340815181E9
:101C2000840F951F8A179B0771F48D919C911197D2
:101C3000840F951F02969183808312968D919C91BB
:101C40001397938382832115310529F4F09352046D
:101C5000E09351043EC0D9011396FC93EE93129782
:101C60004D915D91A40FB51FEA17FB0779F48081B0
:101C70009181840F951F0296D90111969C938E93A2
:101C80008281938113969C938E931297E0E0F0E00B
:101C90008A819B81009719F0FE01EC01F9CFCE01FA
:101CA000029628813981820F931F20914F04309131
:101CB00050042817390769F4309729F41092520418
:101CC0001092510402C013821282D0935004C09328
:101CD0004F04DF91CF910895A0E0B0E0E2E7FEE08D
:101CE0000C94430FEC01CB01209719F40E94450D91
:101CF000B8C0FE01E60FF71F9E0122503109E2171E
:101D0000F30708F4ACC0D9010D911C911197061787
:101D10001707B8F00530110508F49FC0A80144501A
:101D200051094617570708F498C002501109061BBD
:101D3000170B019311936D937C93CF010E94DD0DDE
:101D40008CC05B01A01AB10A4E01800E911EA091B9
:101D50005104B0915204612C712C60E070E0109736
:101D600009F449C0A815B905C9F5ED90FC90119783
:101D7000670142E0C40ED11CCA14DB0478F14701AC
:101D80008A189B08640142E0C40ED11C1296BC90D4
:101D900012971396AC91B5E0CB16D10440F0B28205
:101DA000A38391828082D9018D939C9309C00E5F99
:101DB0001F4F0E0D1F1DF90111830083EB2DFA2F0C
:101DC0006115710531F0DB011396FC93EE931297C8
:101DD00044C0F0935204E09351043FC06D917C9154
:101DE00011976616770608F43B01BD0112960D9017
:101DF000BC91A02DB4CF60914F0470915004681530
:101E00007905E9F468167906D0F440910001509103
:101E100001014115510541F44DB75EB760910401D0
:101E200070910501461B570BE417F507C0F4F093BA
:101E30005004E0934F04F901918380830EC00E9407
:101E4000450D7C01009759F0A801BE010E94360F94
:101E5000CE010E94DD0DC70104C0CE0102C080E0AA
:101E600090E0CDB7DEB7EEE00C945F0FFB01DC0134
:101E700002C001900D9241505040D8F708952F9222
:101E80003F924F925F926F927F928F929F92AF920A
:101E9000BF92CF92DF92EF92FF920F931F93CF9357
:101EA000DF93CDB7DEB7CA1BDB0B0FB6F894DEBFEE
:101EB0000FBECDBF09942A88398848885F846E8414
:101EC0007D848C849B84AA84B984C884DF80EE805E
:101ED000FD800C811B81AA81B981CE0FD11D0FB667
:101EE000F894DEBF0FBECDBFED010895F894FFCF8B
:101EF000000053048000000000001C0100000000EE
:101F00001D012A2A2A2A204D4350333930315F736C
:101F100065747570005350492050696E732D2D2DD6
:101F20003E202043533A2000207C20524553455404
:101F30003A2000207C2044523A20007C2030580077
:101F40002A2A2A2A204D4350333930315F636F6E7D
:101F50006669675F7265616400436F6E74726F6C6F
:101F600020627974653A200041646472657373205D
:101F70006F6620636F6E66696720313A20004269A0
:101F8000747320696E20636F6E66696720312072FA
:101F9000656769737465723A2000416464726573A1
:101FA00073206F6620636F6E66696720323A200087
:101FB0004269747320696E20636F6E6669672032B0
:101FC0002072656769737465723A20000A2A2A2AAA
:101FD0002A3E205475726E206F6E204C454420536B
:101FE000656C6563746564000A2A2A2A2A3E2054B7
:101FF00075726E206F6666204C45442053656C6593
:1020000063746564000A2A2A2A2A3E2070482053F5
:10201000656C6563746564000A2A2A2A2A3E20706A
:10202000756D70732053656C6563746564000A2A6E
:102030002A2A2A3E2074656D706572617475726516
:102040002053656C6563746564000A2A2A2A2A3E57
:10205000204865616C746879202A2A70482A2A20F1
:10206000536869656C642053656C656374656400CE
:102070000A2A2A2A2A3E204865616C746879202A37
:102080002A45432A2A20536869656C642053656C8D
:1020900065637465640043757272656E74206D6566
:1020A0006E75206E616D653A20003C3C3C20004816
:1020B00065616C74687920704820536869656C6448
:1020C00020446961676E6F7374696320546573742B
:1020D0007320004C45440070480070756D707300AB
:1020E0005350490074656D70657261747572650056
:1020F0004865616C746879202A2A70482A2A20531E
:102100006869656C64004865616C746879202A2A86
:1021100045432A2A20536869656C64005475726EC1
:10212000204C4544206F6E005475726E204C45441F
:10213000206F66660000000000B6062208360651D1
:06214000064306940600B0
:00000001FF
