:100000000C94DA030C9402040C9402040C94020481
:100010000C9402040C9402040C9402040C94020448
:100020000C9402040C9402040C9402040C94020438
:100030000C9402040C9402040C9402040C94020428
:100040000C94FD130C9402040C94DC0F0C940E1011
:100050000C9402040C9402040C9402040C94020408
:100060000C9402040C9402042C20426C75653A2016
:10007000002C20477265656E3A20005265643A2074
:10008000002A2A2A7475726E4C45446F6E2A2A2AF9
:10009000007468697320726F7574696E6520657885
:1000A0007065637465642065697468657220612099
:1000B0003120666F7220636F6E6669672031206F32
:1000C00072203220666F7220636F6E66696720321D
:1000D00000596F7520656E74657265643A2000740E
:1000E00068697320726F7574696E652065787065D4
:1000F00063746564206569746865722061203120CD
:10010000666F7220636F6E6669672031206F7220A0
:100110003220666F7220636F6E6669672032005905
:100120006F7520656E74657265643A20002A2A2A0C
:100130002A44454255473A20494E204D43503339D1
:10014000303120494E495400207C20546865726D3E
:100150006973746F7220526573697374616E63653D
:100160003A20002D2D3E20766F6C74733A20002AC1
:100170002A2A2A3E3E3E3E467265652052616D3A0D
:1001800020007C2020537464206465766961746962
:100190006F6E3A20007C2020417665726167653A77
:1001A00020007C2020436F756E743A20002D2D3E78
:1001B00020566F6C74733A2000456E746572206E21
:1001C000756D6265722072656164696E67733A204D
:1001D00000206973206E6F7420612076616C696401
:1001E000206368616E6E656C2E20204465666175C3
:1001F0006C74696E6720746F204368616E6E656C05
:100200002030004368616E6E656C2000456E746539
:1002100072204368616E6E656C202830206F7220FA
:1002200031293A20002A2A2A2A2A2A2A2A2A2A2A4C
:100230002A2A2A2A2A2A2A2A2A2A2A2A2A2A2A2A1E
:100240002A2A2A2A2A2A2A2A002D2D2D3E20436FC7
:100250006E66696720312073686F756C6420626513
:1002600020305833432E2E686572652069732074E0
:1002700068652076616C756520696E206D656D6FAF
:1002800072793A203058000A2A2A2A2A2A2A2A2A47
:100290002A2A2A2A2A2A2A2A2A2A2A2A2A2A2A2ABE
:1002A0002A2A2A2A2A2A2A2A2A000A2A2A2A2A2AF8
:1002B0002A2A2A2A2A2A2A2A2A2A2A2A2A2A2A2A9E
:1002C0002A2A2A2A2A2A2A2A2A2A2A2A002D2D2DAF
:1002D0003E20436F6E666967203220286465666140
:1002E000756C74203D2030584320293A2030580046
:1002F0002D2D2D3E20436F6E6669672031202864C6
:10030000656661756C74203D2030583130293A2083
:100310003058000A2A2A2A2A2A2A2A2A2A2A2A2A53
:100320002A2A2A2A2A2A2A2A2A2A2A2A2A2A2A2A2D
:100330002A2A2A2A2A002D2D3E20546865726D69CA
:1003400073746F7220726573697374616E63653A5A
:1003500020000A2A2A2A2A3E2074656D706572617F
:10036000747572652053656C6563746564005570BF
:100370002070756D70206973204F464600557020BF
:1003800070756D70206973204F4E000A2A2A2A2A40
:100390003E205465737420746865207570207075F4
:1003A0006D7000446F776E2070756D7020697320DA
:1003B0004F464600446F776E2070756D70206973EC
:1003C000204F4E000A2A2A2A2A3E205465737420A0
:1003D00074686520646F776E2070756D70002D2DC8
:1003E0003E2070483A20000A2A2A2A2A3E207265B6
:1003F00061642073656C6563746564002D2D2D2D1B
:100400002D2D2D2D2D2D2D2D2D2D2D2D2D2D2D2029
:10041000704820736C6F706520706172616D6574D7
:10042000657273202D2D2D2D2D2D2D2D2D2D2D2D46
:100430002D2D2D2D2D2D2D2D2D2D2D2D0050726579
:100440007373205820746F2065586974206F722070
:10045000616E79206B6579207768656E20746865B8
:100460002070482070726F626520697320696E2069
:10047000746865202A2A704820372A2A2063616C14
:100480006962726174696F6E20736F6C7574696FE5
:100490006E200050726573732061206B6579207740
:1004A00068656E207468652070482070726F6265A0
:1004B00020697320696E20746865202A2A7048209C
:1004C000342A2A2063616C6962726174696F6E20DC
:1004D000736F6C7574696F6E20000A2A2A2A2A3E8F
:1004E0002063616C6962726174696F6E2073656C00
:1004F0006563746564002D2D2D2D2D2D2D2D2D2D35
:100500002D2D2D2D2D2D2D2D2D20704820736C6F10
:10051000706520706172616D6574657273202D2D38
:100520002D2D2D2D2D2D2D2D2D2D2D2D2D2D2D2DFB
:100530002D2D2D2D2D2D000A2A2A2A2A3E205475D4
:10054000726E206F6666204C45442053656C65636F
:1005500074656400454E544552205252522C474710
:10056000472C42424220666F7220746865205245D3
:10057000442C20475245454E2C20424C5545207670
:10058000616C756573206F6620746865204C454406
:100590002028652E672E2072656420697320302C18
:1005A0003235352C323535293A000A2A2A2A2A3E94
:1005B000205475726E206F6E204C45442053656C3C
:1005C00065637465642028436F6D6D6F6E20416EA6
:1005D0006F6465204C454429000A417661696C616D
:1005E000626C6520636F6D6D616E64733A0A2020E2
:1005F0003F20202020202D2073686F7773206176A4
:1006000061696C61626C6520636F6D616E64730A11
:1006100020206420202020202D2073656C656374C9
:100620006564202273656C65637465642220697457
:10063000656D0A20207520202020202D20676F2046
:10064000746F2070726576696F7573206974656D5B
:100650000A20206E20202020202D20676F20746F1C
:10066000206E657874206974656D0A2020622020F0
:100670002020202D20676F206261636B0A00704884
:1006800020536C6F7065206D563A200070482037FB
:10069000206D56202020203A200070482034206D04
:1006A00056202020203A20002D2D2D2D2D2D2D2DB2
:1006B0002D2D2D2D2D2D2D2D2D2D2D2D2D2D2D2D6A
:1006C0002D2D2D2D2D2D2D2D2D002A2A2A2A444564
:1006D0004255473A20494E2063616C6962726174E9
:1006E00065002D2D2D3E415645524147452070480D
:1006F000206D563A20002A2A2A2A44454255473A74
:1007000020494E206765747048002D2D3E205361AE
:100710006E69747920636865636B206F6E20706109
:1007200072616D732E202048657265206973207494
:1007300068652076616C756520666F72207048531D
:100740007465703A20002A2A2A2A44454255473ABD
:1007500020494E20704820494E49540000000008AE
:100760000002010000030407000000000000000078
:100770000102040810204080010204081020010238
:100780000408102004040404040404040202020205
:1007900002020303030303030000000025002800F6
:1007A0002B0000000000240027002A005508300A12
:1007B0008A0E3E1011241FBECFEFD8E0DEBFCDBFA2
:1007C00012E0A0E0B1E0E8E1F6E302C005900D928E
:1007D000AA3CB107D9F724E0AAECB2E001C01D920F
:1007E000A834B207E1F717E0C4EBD7E004C02297C2
:1007F000FE010E949E18CC3AD107C9F70E946A0CEC
:100800000C940A1B0C940000CF93DF93EC01862F0D
:10081000688349832A8361E00E94611561E08981D0
:100820000E94611561E08A810E9461156FEF70E09E
:1008300088810E94D9146FEF70E089810E94D914D9
:100840006FEF70E08A81DF91CF910C94D914FF9201
:100850000F931F93CF93DF93EC01062F142FF22EEB
:1008600061E870E08EE993E00E9401116BE770E0AF
:100870008EE993E00E94BF104AE050E0602F8EE9BD
:1008800093E00E94F51161E770E08EE993E00E9429
:10089000BF104AE050E0612F8EE993E00E94F5110D
:1008A00068E670E08EE993E00E94BF104AE050E0F5
:1008B0006F2D8EE993E00E94FC11602F70E088811B
:1008C0000E94D914612F70E089810E94D9146F2D84
:1008D00070E08A81DF91CF911F910F91FF900C946E
:1008E000D914CF93DF93EC016FEF70E088810E9401
:1008F000D9146FEF70E089810E94D9146FEF70E016
:100900008A81DF91CF910C94D9148EBD0DB407FE6E
:10091000FDCF8EB50895EF92FF921F93CF93DF9393
:1009200000D0CDB7DEB77C01162F6DE271E08EE905
:1009300093E02A8349830E940111F70110834981C2
:1009400041832A81228361E0812F0E94611561E049
:10095000F70181810E94611560E0F70182810E94A8
:10096000611580E00E94EA1383E00E94EF130E9469
:10097000D41360E0F70181810E949A1561E0F701CC
:1009800081810F900F90DF91CF911F91FF90EF9099
:100990000C949A15FF920F931F93CF93DF938C01C2
:1009A000662329F0613009F059C0C6E001C0C0E0FB
:1009B000C16066E071E08EE993E00E94E41040E1DE
:1009C00050E06C2F8EE993E00E94FC1160E0F8018A
:1009D00080810E949A158C2F0E9485048FEF0E94BF
:1009E0008504C82F40E150E0682F8EE993E00E9413
:1009F000FC11D0E0DC2FCC278FEF0E948504F82E6D
:100A000040E150E0682F8EE993E00E94FC11CF0D89
:100A1000D11D61E0F80180810E949A1564E171E0C6
:100A20008EE993E00E94E41040E150E0BE018EE9BF
:100A300093E00E94C81162E271E08EE993E00E94A7
:100A4000E4104AE050E0BE018EE993E00E94D0112C
:100A5000BE01882777FD8095982F03C06FEF7FEF49
:100A6000CB01DF91CF911F910F91FF9008950E94CC
:100A7000CA040E94D51620E030E040EC5BE40E94FE
:100A80003A1624E13EEA47E150E40E9489170895AE
:100A90001F93CF93DF93EC01162F60E088810E94B3
:100AA0009A15812F0E9485048FEF0E948504182FCC
:100AB00061E088810E949A15812FDF91CF911F916B
:100AC0000895CF93C62F613021F0623031F467E191
:100AD00001C065E1CF910C9448056FE171E08EE9AA
:100AE00093E00E9401114AE050E06C2F8EE993E000
:100AF0000E94F5116FED70E08EE993E00E94011104
:100B00008FEFCF910895EF92FF921F93CF93DF93D2
:100B10001F92CDB7DEB77C01162F60E0FC0180810B
:100B200049830E949A15812F0E9485044981842F50
:100B30000E94850461E0F70180810F90DF91CF91E1
:100B40001F91FF90EF900C949A15CF93C62F6130B0
:100B500021F0623031F466E101C064E1CF910C9480
:100B6000830561ED70E08EE993E00E9401114AE097
:100B700050E06C2F8EE993E00E94F51161E970E07E
:100B80008EE993E0CF910C940111662311F061E09E
:100B900001C060E0FC0181810C949A150895DC018C
:100BA0001496ED91FC911597309709F0099580E026
:100BB00090E00895FC01828193810895FC01738384
:100BC00062838AE291E09183808315821482178286
:100BD000168211861086128613860895FC014385BD
:100BE000242F30E0828590E001972817390761F0C3
:100BF00081E0840F838726819781A22FB92FA80FC8
:100C0000B11DA80FB11D05C0662349F01386A6814A
:100C1000B7818D919C919583848381E0089580E0D4
:100C20000895FC018385811103C0662389F08285C4
:100C30008150838726819781A22FB92FA80FB11DDC
:100C4000A80FB11D8D919C919583848381E00895B7
:100C500080E00895FC01838526819781E22FF92F9A
:100C6000E80FF11DE80FF11D80819181009739F0A7
:100C7000DC01ED91FC910190F081E02D099480E080
:100C800090E00895EF92FF920F931F93CF93DF931D
:100C9000EC018B017A016A8570E06F5F7F4F660F10
:100CA000771F8E819F810E94D8199F838E83009722
:100CB00091F02A85FC01E20FF11DE20FF11D118375
:100CC0000083F801F582E4828A85811102C01D83C8
:100CD0000C838F5F8A87DF91CF911F910F91FF90D7
:100CE000EF9008950F931F93CF93DF93EC018B0147
:100CF0006A8570E06F5F7F4F660F771F8E819F81DF
:100D00000E94D8199F838E83009799F0F801D187AC
:100D1000C0872A85FC01E20FF11DE20FF11D11834E
:100D20000083211102C01D830C832F5F2A87C80115
:100D300002C080E090E0DF91CF911F910F91089564
:100D4000FC0126818781E22FF82FE60FF11DE60FC7
:100D5000F11D808191810895FC0184819581089520
:100D6000FC0182850895FC017383628380E391E036
:100D700091838083158214820895FC011182108270
:100D8000138212820895FC01828193810C94EE05F6
:100D9000FC01828193810C9411060F931F93CF93D2
:100DA000DF931F92CDB7DEB78C01FC018281938166
:100DB00069830E942A066981009711F0F80105C035
:100DC000662329F0F80180819181938382830F90BB
:100DD000DF91CF911F910F910895FC01A281B38102
:100DE00080819181A817B90741F018968D919C9147
:100DF00019979383828381E0089580E00895FC0130
:100E000071836083738362830895FC01828193817F
:100E10000895FC01108211821282138210861186BD
:100E2000128613861486158616861786108A118AEE
:100E3000128A138A148A158A168A178A08950C94BE
:100E400009074F925F926F927F928F929F92AF921B
:100E5000BF92CF92DF92EF92FF920F931F93CF93A7
:100E6000DF9300D000D0CDB7DEB78C016A017B01E3
:100E7000FC0180809180A280B380181419041A04A8
:100E80001B042CF044875587668777871CC0FC01BC
:100E90002485358546855785C701B6010E943616DB
:100EA00087FF05C0F801C486D586E686F786F80177
:100EB0002089318942895389C701B6010E9485176B
:100EC00018162CF4F801C08AD18AE28AF38AF80154
:100ED0002085318542855385C701B6010E94D21510
:100EE0002B013C01F8016087718782879387C501D8
:100EF000B4016F5F7F4F8F4F9F4F608371838283F9
:100F000093836230710581059105ECF10E94D5163D
:100F100069837A838B839C839B01AC01C301B201FB
:100F20000E943A16A70196010E94D1156B017C011F
:100F3000F80164837583868397839B01AC01698183
:100F40007A818B819C810E948917A70196010E945A
:100F500089176B017C01C501B4010E94D5169B0164
:100F6000AC01C701B6010E943A169B01AC01F80121
:100F700064897589868997890E94D215F801648BE6
:100F8000758B868B978B0F900F900F900F90DF9142
:100F9000CF911F910F91FF90EF90DF90CF90BF9076
:100FA000AF909F908F907F906F905F904F9008953B
:100FB000FC0160817181828193810895CF93DF93D9
:100FC000EC01688179818A819B81161617061806C3
:100FD00019065CF40E94D5169B01AC0168857985E1
:100FE0008A859B850E943A1604C060E070E080EC20
:100FF0009FE7DF91CF910895CF93DF93EC01688154
:1010000079818A819B81161617061806190674F4D1
:101010000E94D5169B01AC016C897D898E899F89C0
:101020000E943A16DF91CF910C94F01760E070E0C7
:1010300080EC9FE7DF91CF910895CF92DF92EF92FE
:10104000FF9261E08AEC92E00E9437056B017C011F
:1010500063E671E08EE993E00E94BF1022E030E089
:10106000B701A6018EE993E00E94041368E471E0E1
:101070008EE993E00E94BF10A701960160E070E442
:101080008CE196E40E943A166B017C0122E030E08C
:10109000AB01BC018EE993E00E940613C701B601C3
:1010A000FF90EF90DF90CF90089522E044E06AE057
:1010B0008AEC92E00C948B0467E375E08EE993E090
:1010C0000E9401118AEE92E00C947104CF92DF929B
:1010D000EF92FF9267EE73E08EE993E00E940111B8
:1010E00085EE92E00E94240D6B017C016EED73E0B1
:1010F0008EE993E00E94BF1022E030E0B701A60124
:101100008EE993E0FF90EF90DF90CF900C94061360
:10111000CF92DF92EF92FF9262E573E08EE993E067
:101120000E94011186EE92E00E941D086B017C0175
:1011300066E373E08EE993E00E94BF1022E030E0A6
:10114000B701A6018EE993E0FF90EF90DF90CF907A
:101150000C940613CF9363E173E08EE993E00E9451
:10116000011161E087EE92E00E946105C82F60EFF7
:1011700072E08EE993E00E94BF1040E150E06C2FD6
:101180008EE993E00E94FC1162E087EE92E00E94FB
:101190006105C82F6DEC72E08EE993E00E94BF10EC
:1011A00040E150E06C2F8EE993E0CF910C94FC115C
:1011B0006AEA72E08EE993E00E94011161E087EE35
:1011C00092E00C94C50567E872E08EE993E00E9416
:1011D000011160E087EE92E00C94C505CF934CE3DB
:1011E00061E087EE92E00E94A50561E087EE92E063
:1011F0000E946105C82F69E472E08EE993E00E94C5
:10120000BF1040E150E06C2F8EE993E0CF910C9439
:10121000FC111F93CF93DF93C9EDD5E0FE0114912C
:10122000112371F01A3029F46DE08EE993E00E94E9
:10123000E610612F8EE993E00E94E6102196EECF32
:10124000DF91CF911F910895CF93DF9300D0CDB759
:10125000DEB720914404309145042115310511F485
:1012600028E434E0CE010196821B930B0F900F907F
:10127000DF91CF910895CF92DF92EF92FF920F937B
:101280001F93CF93DF9366E872E08EE993E00E94AC
:10129000131181E793E00E9405078C0162E371E07E
:1012A0008EE993E00E94E410C8010E94DA05BC01B7
:1012B0008EE993E00E941311C8010E94AC066C01F4
:1012C000C0E0D0E0C8010E94B00690E0C817D9077E
:1012D000ECF46C2FC8010E94A0067C010E94DA0584
:1012E000BC018EE993E00E94E410CE14DF0431F4D7
:1012F00066E471E08EE993E00E94E41066E872E033
:101300008EE993E00E9413112196DCCFDF91CF91FB
:101310001F910F91FF90EF90DF90CF90089526E0FE
:1013200040E855E260E070E08EE993E00E947A0FB9
:101330002FEF40E06FEF8AEE92E00E9427040E94B8
:10134000090965E373E085E693E00E9472064AEAC4
:1013500058E06DE173E085E393E00E9442064EEEB3
:1013600058E067E173E085E393E00E9442064AE4B7
:101370005BE061E173E085E393E00E94420648EDA3
:1013800058E069E273E085E393E00E94420643EE91
:1013900058E063E273E085E393E00E94420669E56A
:1013A00073E085E693E00E94720640EB5AE06BE042
:1013B00073E089E593E00E9442064CE558E065E061
:1013C00073E089E593E00E9442066DE473E085E6F0
:1013D00093E00E94720642EE5AE06FEF72E08DE4F5
:1013E00093E00E94420646E15BE069EF72E08DE423
:1013F00093E00E94420648E858E06FE273E085E619
:1014000093E00E94420661E473E085E693E00E9467
:10141000720642EF5BE063EF72E081E493E00E94CA
:10142000420646E658E06DEE72E081E493E00E94E9
:10143000420665E673E081E793E00E94FF060E94A2
:101440003B096FE671E08EE993E00E94BF100E94B5
:1014500024094AE050E0BC018EE993E00C94D011DD
:1014600081E793E00E94BD066BE471E085E693E0BE
:101470000E94DE056FE671E089E593E00E94DE05DB
:1014800063E771E08DE493E00E94DE0569E771E0B7
:1014900081E493E00E94DE056CE771E085E393E070
:1014A0000E94DE0560E871E08FE293E00E94B306DF
:1014B0006CE871E089E293E00E94B3066BE971E0A9
:1014C00083E293E00E94B30669EA71E08DE193E064
:1014D0000E94B3066BEB71E087E193E00E94B306D4
:1014E0006FED71E081E193E00E94B30668EE71E078
:1014F0008BE093E00E94B30664EF71E085E093E037
:101500000E94B30661E072E08FEF92E00E94B306A2
:101510006BE272E089EF92E00E94B30663E572E04D
:1015200083EF92E00E94B3066DE572E08DEE92E0EB
:101530000E94B30620E142E161E18AEE92E00E945E
:10154000040429E048E06AE087EE92E00E948B0400
:1015500085EE92E00E94A50C8DEC92E00C941F07A2
:101560001F93CF93DF931F92CDB7DEB76AEA75E082
:101570008EE993E00E94011164E575E08EE993E045
:101580000E9401118EE993E00E94950E892BD1F300
:101590008EE993E00E94D113162F8EE993E00E940A
:1015A000D113462F8EE993E049830E94D113262F51
:1015B0004981612F8AEE92E00F90DF91CF911F91C8
:1015C0000C94270464EC73E08EE993E00E9401110F
:1015D00061E08EE00E9461158EE993E00E94950E15
:1015E000892B19F56FEF70E08EE00E94D91464EB3F
:1015F00073E08EE993E00E94011160ED77E080E0F6
:1016000090E00E94761460E070E08EE00E94D914B1
:1016100063EA73E08EE993E00E94011160ED77E0E8
:1016200080E090E00E947614D7CF08956BE873E0D5
:101630008EE993E00E94011161E08FE00E94611544
:101640008EE993E00E94950E892B19F56FEF70E0FB
:101650008FE00E94D9146DE773E08EE993E00E9459
:10166000011160ED77E080E090E00E94761460E088
:1016700070E08FE00E94D9146EE673E08EE993E08B
:101680000E94011160ED77E080E090E00E94761406
:10169000D7CF0895CF92DF92EF92FF920F931F93CF
:1016A000CF93DF9365E272E08EE993E00E9401112F
:1016B0006CE072E08EE993E00E9401118EE993E004
:1016C0000E94950E892BD1F38EE993E00E94D113ED
:1016D0006B017C0163E072E08EE993E00E94BF1031
:1016E0004AE050E0B6018EE993E00E94131261EDEA
:1016F00071E08EE993E00E94011169EB71E08EE9DF
:1017000093E00E9401118EE993E00E94950E892BCF
:10171000D1F38EE993E00E94D1138B018DEC92E01E
:101720000E940907C0E0D0E0C017D107E8F460E0EC
:1017300087EE92E00E9437056B017C016DEA71E053
:101740008EE993E00E94BF1022E030E0B701A601CD
:101750008EE993E00E940613B701A6018DEC92E09A
:101760000E9421072196E0CF62EA71E08EE993E0C2
:101770000E94BF108DEC92E00E94D807AB01BC0123
:101780002AE030E08EE993E00E947E1165E971E085
:101790008EE993E00E94BF108DEC92E00E94DE077C
:1017A000AB01BC0122E030E08EE993E00E9404131B
:1017B00062E871E08EE993E00E94BF108DEC92E048
:1017C0000E94FC07AB01BC0122E030E08EE993E00F
:1017D000DF91CF911F910F91FF90EF90DF90CF900D
:1017E0000C94061366EF74E08EE993E00E940111F9
:1017F00085EE92E00E94E60D6AED74E08EE993E0DA
:101800000E94011163E974E08EE993E00E940111E6
:101810008EE993E00E94950E892BD1F38EE993E037
:101820000E94B00E64E085EE92E00E942A0E6DE305
:1018300074E08EE993E00E9401118EE993E00E942A
:10184000950E892BD1F38EE993E00E94B00E8F7D27
:10185000883579F067E085EE92E00E942A0E6CEF01
:1018600073E08EE993E00E94011185EE92E00C9402
:10187000E60D08958EE993E00E94B00E18164CF51F
:101880008436F9F02CF48F3311F18236A9F00895E3
:101890008E3659F0853719F08836D9F418C060E0D3
:1018A00081E793E00E94C80605C060E081E793E00D
:1018B0000E94C3060C943B0981E793E00E94ED0669
:1018C000F9CF61E081E793E00E94CD06F3CF0C945D
:1018D000090908950E949E140E948F09C4ECDEE05D
:1018E0000E943A0C2097E1F30E94C40EF9CF84E3E2
:1018F00092E190938E0380938D0310928F03109248
:101900009003109291031092920380E090E0ADE377
:10191000B3E48093930390939403A0939503B093BF
:10192000960387ED93EAACE6B2E480939703909335
:101930009803A0939903B0939A034EE050E060E0BF
:1019400070E08DE893E00C94BB1ACF93DF93EC0129
:1019500066E477E08EE993E00E9401114EE050E0EA
:1019600060E070E08DE893E00E94AB1A6AE077E0F7
:101970008EE993E00E94BF10409197035091980325
:101980006091990370919A0322E030E08EE993E030
:101990000E94061380918D0390918E0384339241AF
:1019A00029F0CE01DF91CF910C94770CDF91CF918C
:1019B00008958F929F92AF92BF92CF92DF92EF9253
:1019C000FF9285E793E00E9409070E9447146B018C
:1019D0007C010E9447144B015C01C818D908EA0831
:1019E000FB0880E1C81687E2D806E104F10400F59F
:1019F00060E08BE993E00E94370520E030E04AE7A1
:101A000054E40E9489176B017C0122E030E0AB01B5
:101A1000BC018EE993E00E940613B701A60185E799
:101A200093E00E9421070E9447146B017C01D5CFEF
:101A300085E793E0FF90EF90DF90CF90BF90AF905D
:101A40009F908F900C94DE07CF92DF92EF92FF92DF
:101A50007C0166EF76E08EE993E00E940111C701F8
:101A60000E94D90C6B017C0162EE76E08EE993E076
:101A70000E94BF1022E030E0B701A6018EE993E09A
:101A80000E94061320E030E04AE754E4C701B601A3
:101A90000E948917209197033091980340919903F0
:101AA00050919A030E943A169B01AC0160E070E0ED
:101AB00080EE90E40E94D115FF90EF90DF90CF90E0
:101AC0000895209193033091940340919503509190
:101AD000960360918F037091900380919103909190
:101AE00092030E94D1159F7720E030E040E450E45B
:101AF0000E943A166093970370939803809399031A
:101B000090939A034EE050E060E070E08DE893E03F
:101B10000C94BB1A0F931F93CF93DF93EC010E9499
:101B2000D90C03E913E0F801608371838283938306
:101B300062E672E08EE993E00E941311F8014081A1
:101B400051816281738122E030E08EE993E00E944E
:101B50000613CE010E94610D4EE050E060E070E09F
:101B60008DE893E0DF91CF911F910F910C94BB1AF8
:101B70000F931F93CF93DF93EC010E94D90C0FE8D2
:101B800013E0F801608371838283938367E872E0D6
:101B90008EE993E00E941311F80140815181628126
:101BA000738122E030E08EE993E00E940613CE01BB
:101BB0000E94610D4EE050E060E070E08DE893E03F
:101BC000DF91CF911F910F910C94BB1A0E94610D70
:101BD00068EA76E08EE993E00E9401116AE976E016
:101BE0008EE993E00E94BF104091930350919403BB
:101BF000609195037091960322E030E08EE993E0C6
:101C00000E9406136CE876E08EE993E00E94BF1014
:101C100040918F03509190036091910370919203D2
:101C200022E030E08EE993E00E9406136EE776E052
:101C30008EE993E00E94BF10409197035091980362
:101C40006091990370919A0322E030E08EE993E06D
:101C50000C9406138F929F92AF92BF92CF92DF9215
:101C6000EF92FF921F93CF93DF93EC01162F6AEC54
:101C700076E08EE993E00E940111143021F4CE0148
:101C80000E948A0D05C0173019F4CE010E94B80DCC
:101C9000C0909703D0909803E0909903F0909A0336
:101CA00023E333E343E35FE3C701B6010E948917EF
:101CB0004B015C01C701B6010E94A7160E94D31612
:101CC0002AE939E949E95EE30E9489179B01AC01E1
:101CD000C501B4010E94D2156093970370939803D5
:101CE0008093990390939A03CE010E94E60D4EE0F3
:101CF00050E060E070E08DE893E0DF91CF911F91BC
:101D0000FF90EF90DF90CF90BF90AF909F908F901B
:101D10000C94BB1A22E044E06AE08BE993E00E9455
:101D20008B0485E793E00C941F07FC01818D228DC5
:101D300090E0805C9F4F821B910960E470E00E94FC
:101D400047180895FC01918D828D981731F0828D8E
:101D5000E80FF11D858D90E008958FEF9FEF0895B6
:101D6000FC01918D828D981761F0828DDF01A80FA3
:101D7000B11D5D968C91928D9F5F9F73928F90E0C5
:101D800008958FEF9FEF089584E390E1892B49F048
:101D900080E090E0892B29F00E94341081110C948E
:101DA00000000895FC01848DDF01A80FB11DA35A26
:101DB000BF4F2C91848D90E001968F739927848F6B
:101DC000A689B7892C93A089B1898C9180648C9362
:101DD000938D848D981306C00288F389E02D80814D
:101DE0008F7D80830895CF93DF93EC01888D8823C6
:101DF000C9F0EA89FB89808185FD05C0A889B98978
:101E00008C9186FD0FC00FB607FCF5CF808185FF52
:101E1000F2CFA889B9898C9185FFEDCFCE010E94C0
:101E2000D20EE7CFDF91CF910895CF92DF92FF924C
:101E30000F931F93CF93DF931F92CDB7DEB76C0143
:101E4000DC015B969C915B975C968C915C979813F8
:101E500007C05096ED91FC915197808185FD32C06D
:101E6000F601038D10E00F5F1F4F0F731127F02E47
:101E7000F601848DF81211C00FB607FCF9CFD60118
:101E80005096ED91FC915197808185FFF1CFC6016D
:101E900069830E94D20E6981EBCF838DE80FF11D1B
:101EA000E35AFF4F6083D6015B960C935B97529683
:101EB000ED91FC91539780818062808381E05896F8
:101EC0008C930DC0D6015696ED91FC915797608387
:101ED0005096ED91FC91519780818064808381E0E0
:101EE00090E00F90DF91CF911F910F91FF90DF90C5
:101EF000CF900895BF92CF92DF92EF92FF92CF934F
:101F0000DF93EC016A017B01B22EE889F98982E056
:101F10008083411581EE580761057105A1F060E0ED
:101F200079E08DE390E0A70196010E945B182150B3
:101F3000310941095109569547953795279521153E
:101F400080E1380798F0E889F989108260E874E840
:101F50008EE190E0A70196010E945B1821503109A3
:101F6000410951095695479537952795EC85FD858B
:101F70003083EE85FF852083188EEC89FD89B08241
:101F8000EA89FB89808180618083EA89FB8980817D
:101F900088608083EA89FB89808180688083EA8900
:101FA000FB8980818F7D8083DF91CF91FF90EF90BF
:101FB000DF90CF90BF9008951F920F920FB60F92AF
:101FC00011242F938F939F93EF93FF93E091AE0390
:101FD000F091AF038081E091B403F091B50382FDED
:101FE00012C090818091B7038F5F8F732091B803E7
:101FF000821751F0E091B703F0E0E256FC4F958F65
:102000008093B70301C08081FF91EF919F918F91E1
:102010002F910F900FBE0F901F9018951F920F9247
:102020000FB60F9211242F933F934F935F936F93AB
:102030007F938F939F93AF93BF93EF93FF938EE91B
:1020400093E00E94D20EFF91EF91BF91AF919F91CB
:102050008F917F916F915F914F913F912F910F9051
:102060000FBE0F901F9018958EE993E00E94950E79
:1020700021E0892B09F420E0822F08951092A1031A
:102080001092A00388EE93E0A0E0B0E08093A2035A
:102090009093A303A093A403B093A50380EB92E0D5
:1020A00090939F0380939E0385EC90E09093AB0305
:1020B0008093AA0384EC90E09093AD038093AC03EB
:1020C00080EC90E09093AF038093AE0381EC90E0BE
:1020D0009093B1038093B00382EC90E09093B303AC
:1020E0008093B20386EC90E09093B5038093B403A1
:1020F0001092B7031092B8031092B9031092BA036A
:102100000895CF92DF92EF92FF920F931F93CF9398
:10211000DF936C017A01EB01E60EF71E00E010E0A0
:10212000CE15DF0561F06991D601ED91FC9101902A
:10213000F081E02DC6010995080F191FF1CFC801E4
:10214000DF91CF911F910F91FF90EF90DF90CF9093
:1021500008956115710581F0DB010D900020E9F70C
:10216000AD0141505109461B570BDC01ED91FC912B
:102170000280F381E02D099480E090E00895EF92D1
:10218000FF920F931F93CF93DF938C01FB01C0E06D
:10219000D0E064917F018FEFE81AF80A662361F0BE
:1021A000D801ED91FC910190F081E02DC8010995D5
:1021B000C80FD91FF701EDCFCE01DF91CF911F914D
:1021C0000F91FF90EF9008950C94A910DC01ED9110
:1021D000FC910190F081E02D09940F931F93CF9310
:1021E000DF93EC016DE00E94E6108C016AE0CE0105
:1021F0000E94E610800F911FDF91CF911F910F91E8
:1022000008950F931F93CF93DF93EC010E94BF10AB
:102210008C01CE010E94ED10800F911FDF91CF91B4
:102220001F910F9108950F931F93CF93DF93EC01AC
:102230000E94A9108C01CE010E94ED10800F911F09
:10224000DF91CF911F910F9108958F929F92AF923E
:10225000BF92CF92DF92EF92FF920F931F93CF9393
:10226000DF93CDB7DEB7A1970FB6F894DEBF0FBEF0
:10227000CDBF7C01C42EE52FCB01D22E19A221E0C7
:102280002D1510F02AE0D22E8E010F5D1F4F8D2CE0
:10229000912CA12CB12C6C2D7E2FA50194010E94B4
:1022A0005B188C2DD29E80191124015011098A309F
:1022B00014F4805D01C0895CF8018083211531052B
:1022C0004105510521F0C22EE32FCA01E4CFB80128
:1022D000C7010E94A910A1960FB6F894DEBF0FBEE9
:1022E000CDBFDF91CF911F910F91FF90EF90DF90C5
:1022F000CF90BF90AF909F908F900895CF92DF9234
:10230000EF92FF920F931F93CF93DF93EC016A013B
:102310007B012115310579F4E881F9810190F08183
:10232000E02D642FDF91CF911F910F91FF90EF90DF
:10233000DF90CF9009942A303105E9F477FF1AC075
:102340006DE20E94E6108C0144275527BA014C1912
:102350005D096E097F092AE0CE010E942511800FD8
:10236000911FDF91CF911F910F91FF90EF90DF9020
:10237000CF9008952AE0B701A601CE01DF91CF9159
:102380001F910F91FF90EF90DF90CF900C9425114B
:102390009A01AB01662757FD6095762F0C947E114C
:1023A0000F931F93CF93DF93EC019A01AB01662744
:1023B00057FD6095762F0E947E118C01CE010E9400
:1023C000ED10800F911FDF91CF911F910F91089514
:1023D0002115310541F4DC01ED91FC910190F08172
:1023E000E02D642F09940C9425119A01462F50E09A
:1023F00060E070E00C94E8110F931F93CF93DF938C
:10240000EC019A01462F50E060E070E00E94E81174
:102410008C01CE010E94ED10800F911FDF91CF91B2
:102420001F910F9108959A01AB0160E070E00C9448
:10243000E8114F925F926F927F928F929F92AF922C
:10244000BF92CF92DF92EF92FF920F931F93CF93A1
:10245000DF93EC016A017B01B22E9A01AB01C70147
:10246000B6010E942E18882319F06CEB72E027C089
:1024700026013701E89477F82FEF3FEF4FE75FE74A
:10248000C301B2010E942E1881110DC02FEF3FEF42
:102490004FE75FE7C301B2010E94361618161CF41D
:1024A00060EC72E00CC02FEF3FEF4FE75FE4C70135
:1024B000B6010E9485171816ACF464EC72E0CE01E8
:1024C000DF91CF911F910F91FF90EF90DF90CF9010
:1024D000BF90AF909F908F907F906F905F904F9044
:1024E0000C94A9102FEF3FEF4FE75FECC701B60147
:1024F0000E94361687FDE1CF20E030E0A901C70138
:10250000B6010E94361687FF0AC06DE2CE010E9416
:10251000E6108C01F7FAF094F7F8F09402C000E0AE
:1025200010E0A12C60E070E080E09FE3AB1441F08C
:1025300020E030E040E251E40E943A16A394F6CF46
:102540009B01AC01C701B6010E94D2156B017C0151
:102550000E94A7162B013C010E94D3169B01AC01DF
:10256000C701B6010E94D1156B017C012AE0B301BD
:10257000A201CE010E942511080F191FBB2039F0BE
:1025800068EC72E0CE010E94A910080F191F7B2C85
:10259000772041F120E030E040E251E4C701B6018C
:1025A0000E9489176B017C010E94A2164B01AA248C
:1025B00097FCA094BA2C2AE030E0B501A401CE012A
:1025C0000E947E11080F191FC501B4010E94D51683
:1025D0009B01AC01C701B6010E94D1156B017C01C2
:1025E0007A94D6CFC801DF91CF911F910F91FF90C0
:1025F000EF90DF90CF90BF90AF909F908F907F90A3
:102600006F905F904F9008950C9419120F931F9341
:10261000CF93DF93EC010E9419128C01CE010E942E
:10262000ED10800F911FDF91CF911F910F910895B1
:102630000F931F93CF93DF93EC010E944714688799
:1026400079878A879B87E881F9810084F185E02D6D
:10265000CE01099597FF15C00E944714088519857A
:102660002A853B85601B710B820B930B0C811D81AE
:102670002E813F81601771078207930720F38FEF48
:102680009FEFDF91CF911F910F910895CF93DF932B
:10269000EC01CE010E94181397FD11C08D329105F7
:1026A00071F09C01205331092A30310540F0E88156
:1026B000F9810680F781E02DCE010995EACFDF91FF
:1026C000CF910895CF92DF92FF920F931F93CF93F4
:1026D000DF9300D000D0CDB7DEB76C01062F0E948B
:1026E0004613FC0197FD4BC020E030E0A901F12C1E
:1026F000112707FD1095E017F107E9F0ED32F1051C
:10270000C1F0CF01C0970A97B0F4AAE0B0E00E94F0
:102710007D189B01AC01CF01AA2797FDA095BA2F88
:10272000280F391F4A1F5B1F2053310941095109E6
:1027300002C0FF24F394D601ED91FC910680F7814D
:10274000E02DC60129833A834B835C830995C6013A
:102750000E941813FC01C09729813A814B815C814A
:102760000A9748F2E017F10731F2FF2061F066277F
:102770007727CB01621B730B840B950B06C060E0BF
:1027800070E0CB0102C0CA01B9010F900F900F9009
:102790000F90DF91CF911F910F91FF90DF90CF901D
:1027A000089561E00C94621361E08AE00E949A153A
:1027B00061E08AE00E9461158CB580618CBD8CB5AA
:1027C00080648CBD61E08DE00E94611561E08BE06A
:1027D0000C9461159CB5937F982B9CBD08952CB5E6
:1027E000982F93702C7F922B9CBD9DB582FB8827E0
:1027F00080F99E7F982B9DBD08951F920F920FB672
:102800000F9211242F933F938F939F93AF93BF9376
:1028100080913C0490913D04A0913E04B0913F040E
:1028200030913B0423E0230F2D3720F40196A11DA6
:10283000B11D05C026E8230F0296A11DB11D2093EE
:102840003B0480933C0490933D04A0933E04B093DA
:102850003F048091400490914104A0914204B091C2
:1028600043040196A11DB11D80934004909341043F
:10287000A0934204B0934304BF91AF919F918F9175
:102880003F912F910F900FBE0F901F9018952FB76B
:10289000F89460913C0470913D0480913E049091C5
:1028A0003F042FBF08953FB7F89480914004909162
:1028B0004104A0914204B091430426B5A89B05C0F1
:1028C0002F3F19F00196A11DB11D3FBF6627782F3C
:1028D000892F9A2F620F711D811D911D42E0660F95
:1028E000771F881F991F4A95D1F70895CF92DF92DD
:1028F000EF92FF92CF93DF936B017C010E94531400
:10290000EB01C114D104E104F10489F00E94D01557
:102910000E9453146C1B7D0B683E734090F381E062
:10292000C81AD108E108F108C851DC4FEACFDF919D
:10293000CF91FF90EF90DF90CF900895789484B579
:10294000826084BD84B5816084BD85B5826085BDAB
:1029500085B5816085BDEEE6F0E080818160808391
:10296000E1E8F0E010828081826080838081816074
:102970008083E0E8F0E0808181608083E1EBF0E03B
:10298000808184608083E0EBF0E0808181608083DF
:10299000EAE7F0E0808184608083808182608083C8
:1029A0008081816080838081806880831092C100F3
:1029B00008951F93CF93DF93182FEB0161E00E94DE
:1029C0006115209711F460E004C0CF3FD10539F4C0
:1029D00061E0812FDF91CF911F910C949A15E12F27
:1029E000F0E0E45AF84FE491E330F9F048F4E130D4
:1029F000B9F0E230A1F584B5806284BDC8BD34C0B1
:102A0000E730E9F0E83019F1E43049F580918000D1
:102A1000806280938000D0938B00C0938A0024C092
:102A200084B5806884BDC7BD1FC080918000806868
:102A300080938000D0938900C093880015C0809156
:102A4000B00080688093B000C093B3000DC0809147
:102A5000B00080628093B000C093B40005C0C0385D
:102A6000D1050CF0B5CFAFCFDF91CF911F91089575
:102A7000833081F028F4813099F08230A1F00895FC
:102A80008730A9F08830B9F08430D1F4809180008B
:102A90008F7D03C0809180008F77809380000895A0
:102AA00084B58F7702C084B58F7D84BD08958091F1
:102AB000B0008F7703C08091B0008F7D8093B0000D
:102AC0000895CF93DF9390E0FC01E059F84F2491F3
:102AD000FC01EC57F84F8491882349F190E0880F6E
:102AE000991FFC01EE55F84FA591B4918856984F67
:102AF000FC01C591D4919FB7611108C0F8948C91E5
:102B0000209582238C93888182230AC0623051F4FD
:102B1000F8948C91322F309583238C938881822B6B
:102B2000888304C0F8948C91822B8C939FBFDF9193
:102B3000CF9108950F931F93CF93DF931F92CDB73B
:102B4000DEB7282F30E0F901E45AF84F8491F901FB
:102B5000E059F84F1491F901EC57F84F0491002314
:102B6000C9F0882321F069830E9438156981E02F1C
:102B7000F0E0EE0FFF1FE856F84FA591B4919FB714
:102B8000F8948C91611103C01095812301C0812BB1
:102B90008C939FBF0F90DF91CF911F910F9108955C
:102BA00008955058BB27AA270ED075C166D130F0C2
:102BB0006BD120F031F49F3F11F41EF45BC10EF491
:102BC000E095E7FB51C1E92F77D180F3BA1762078F
:102BD00073078407950718F071F49EF58FC10EF402
:102BE000E0950B2EBA2FA02D0B01B90190010C011D
:102BF000CA01A0011124FF27591B99F0593F50F435
:102C0000503E68F11A16F040A22F232F342F44278C
:102C1000585FF3CF469537952795A795F040539584
:102C2000C9F77EF41F16BA0B620B730B840BBAF054
:102C30009150A1F0FF0FBB1F661F771F881FC2F7BF
:102C40000EC0BA0F621F731F841F48F487957795D3
:102C50006795B795F7959E3F08F0B3CF9395880F8A
:102C600008F09927EE0F979587950895D9D008F425
:102C700081E008950CD00FC107D140F0FED030F0B4
:102C800021F45F3F19F0F0C0511139C1F3C014D1E4
:102C900098F39923C9F35523B1F3951B550BBB2723
:102CA000AA2762177307840738F09F5F5F4F220FD0
:102CB000331F441FAA1FA9F333D00E2E3AF0E0E8C9
:102CC00030D091505040E695001CCAF729D0FE2F15
:102CD00027D0660F771F881FBB1F261737074807A7
:102CE000AB07B0E809F0BB0B802DBF01FF2793585D
:102CF0005F4F2AF09E3F510568F0B6C000C15F3FAC
:102D0000ECF3983EDCF3869577956795B795F79544
:102D10009F5FC9F7880F911D9695879597F908953C
:102D2000E1E0660F771F881FBB1F621773078407D8
:102D3000BA0720F0621B730B840BBA0BEE1F88F7E7
:102D4000E095089504D06894B111D9C00895BCD01D
:102D500088F09F5790F0B92F9927B751A0F0D1F084
:102D6000660F771F881F991F1AF0BA95C9F712C00E
:102D7000B13081F0C3D0B1E00895C0C0672F782F83
:102D80008827B85F39F0B93FCCF38695779567957A
:102D9000B395D9F73EF490958095709561957F4FE6
:102DA0008F4F9F4F0895E89409C097FB3EF490958C
:102DB0008095709561957F4F8F4F9F4F9923A9F014
:102DC000F92F96E9BB279395F695879577956795A3
:102DD000B795F111F8CFFAF4BB0F11F460FF1BC0E7
:102DE0006F5F7F4F8F4F9F4F16C0882311F096E97A
:102DF00011C0772321F09EE8872F762F05C0662328
:102E000071F096E8862F70E060E02AF09A95660FE0
:102E1000771F881FDAF7880F9695879597F9089599
:102E2000990F0008550FAA0BE0E8FEEF16161706DB
:102E3000E807F907C0F012161306E407F50798F043
:102E4000621B730B840B950B39F40A2661F0232B5C
:102E5000242B252B21F408950A2609F4A140A695D8
:102E60008FEF811D811D089597F99F6780E870E0BD
:102E700060E008959FEF80EC089500240A941616F0
:102E8000170618060906089500240A941216130658
:102E9000140605060895092E0394000C11F48823E6
:102EA00052F0BB0F40F4BF2B11F460FF04C06F5F02
:102EB0007F4F8F4F9F4F089557FD9058440F551FD8
:102EC00059F05F3F71F04795880F97FB991F61F0AC
:102ED0009F3F79F087950895121613061406551F23
:102EE000F2CF4695F1DF08C0161617061806991F8F
:102EF000F1CF86957105610508940895E894BB2784
:102F000066277727CB0197F908958ADF08F48FEFBA
:102F100008950BD0C0CFB1DF28F0B6DF18F09523AD
:102F200009F0A2CFA7CF1124EACFC6DFA0F3959F67
:102F3000D1F3950F50E0551F629FF001729FBB27A0
:102F4000F00DB11D639FAA27F00DB11DAA1F649F4C
:102F50006627B00DA11D661F829F2227B00DA11DFF
:102F6000621F739FB00DA11D621F839FA00D611D85
:102F7000221F749F3327A00D611D231F849F600DA6
:102F8000211D822F762F6A2F11249F5750408AF0DF
:102F9000E1F088234AF0EE0FFF1FBB1F661F771F6B
:102FA000881F91505040A9F79E3F510570F05CCFAB
:102FB000A6CF5F3FECF3983EDCF386957795679557
:102FC000B795F795E7959F5FC1F7FE2B880F911D89
:102FD0009695879597F9089511F40EF44BCF42C05A
:102FE00073DFD0F39923D9F3CEF39F57550B87FFA7
:102FF00047D00024A0E640EA900180585695979566
:1030000028F4805C660F771F881F20F0261737078B
:10301000480730F4621B730B840B202931294A2B9B
:10302000A69517940794202531254A2758F7660F4F
:10303000771F881F20F026173707480730F4620BE8
:10304000730B840B200D311D411DA09581F7B90133
:10305000842F9158880F969587950895E1DE880B07
:10306000990B08959F3F31F0915020F48795779503
:103070006795B795880F911D9695879597F908954F
:1030800091505040660F771F881FD2F7089597FB25
:10309000072E16F4009407D077FD09D00E948818F7
:1030A00007FC05D03EF4909581959F4F089570954B
:1030B00061957F4F0895A1E21A2EAA1BBB1BFD014B
:1030C0000DC0AA1FBB1FEE1FFF1FA217B307E40707
:1030D000F50720F0A21BB30BE40BF50B661F771F5F
:1030E000881F991F1A9469F760957095809590953F
:1030F0009B01AC01BD01CF0108950E94A218A59FBC
:10310000900DB49F900DA49F800D911D11240895E2
:10311000AA1BBB1B51E107C0AA1FBB1FA617B707FD
:1031200010F0A61BB70B881F991F5A95A9F7809519
:103130009095BC01CD010895EE0FFF1F0590F4910D
:10314000E02D0994A29FB001B39FC001A39F700D11
:10315000811D1124911DB29F700D811D1124911D9F
:103160000895CF93DF938230910510F482E090E0D0
:10317000E0914604F091470420E030E0A0E0B0E0A8
:10318000309739F14081518148175907B8F04817F5
:10319000590771F482819381109729F013969C93BB
:1031A0008E9312972CC0909347048093460427C0B7
:1031B0002115310531F04217530718F0A901DB0141
:1031C00001C0EF019A01BD01DF010280F381E02D12
:1031D000D7CF21153105F9F0281B390B24303105E3
:1031E00080F48A819B816115710521F0FB01938335
:1031F000828304C09093470480934604FE01329674
:1032000044C0FE01E20FF31F8193919322503109D4
:10321000398328833AC02091440430914504232BFC
:1032200041F4209102013091030130934504209331
:10323000440420910001309101012115310541F430
:103240002DB73EB74091040150910501241B350B69
:10325000E0914404F0914504E217F307A0F42E1B1B
:103260003F0B2817390778F0AC014E5F5F4F2417EA
:10327000350748F04E0F5F1F5093450440934404B8
:103280008193919302C0E0E0F0E0CF01DF91CF9114
:103290000895CF93DF93009709F487C0FC0132971C
:1032A00013821282C0914604D0914704209781F482
:1032B00020813181280F391F809144049091450469
:1032C0008217930779F5F0934504E09344046DC0A9
:1032D000DE0120E030E0AE17BF0750F412964D91AA
:1032E0005C9113979D014115510509F1DA01F3CF66
:1032F000B383A28340815181840F951F8A179B0756
:1033000071F48D919C911197840F951F0296918372
:10331000808312968D919C911397938382832115BC
:10332000310529F4F0934704E09346043EC0D901E7
:103330001396FC93EE9312974D915D91A40FB51FD8
:10334000EA17FB0779F480819181840F951F02961B
:10335000D90111969C938E938281938113969C93AD
:103360008E931297E0E0F0E08A819B81009719F03C
:10337000FE01EC01F9CFCE01029628813981820F3E
:10338000931F20914404309145042817390769F4AC
:10339000309729F4109247041092460402C0138219
:1033A0001282D0934504C0934404DF91CF910895D5
:1033B000A0E0B0E0EEEDF9E10C94D71AEC01CB01FE
:1033C000209719F40E94B118B8C0FE01E60FF71F4C
:1033D0009E0122503109E217F30708F4ACC0D9016D
:1033E0000D911C91119706171707B8F005301105BC
:1033F00008F49FC0A801445051094617570708F424
:1034000098C002501109061B170B019311936D937D
:103410007C93CF010E9449198CC05B01A01AB10AAC
:103420004E01800E911EA0914604B0914704612C7C
:10343000712C60E070E0109709F449C0A815B90537
:10344000C9F5ED90FC901197670142E0C40ED11CC4
:10345000CA14DB0478F147018A189B08640142E032
:10346000C40ED11C1296BC9012971396AC91B5E085
:10347000CB16D10440F0B282A38391828082D9011D
:103480008D939C9309C00E5F1F4F0E0D1F1DF901F8
:1034900011830083EB2DFA2F6115710531F0DB01EB
:1034A0001396FC93EE93129744C0F0934704E09375
:1034B00046043FC06D917C9111976616770608F41B
:1034C0003B01BD0112960D90BC91A02DB4CF60912F
:1034D00044047091450468157905E9F46816790685
:1034E000D0F440910001509101014115510541F482
:1034F0004DB75EB76091040170910501461B570BF3
:10350000E417F507C0F4F0934504E0934404F9018F
:10351000918380830EC00E94B1187C01009759F0FE
:10352000A801BE010E94A21ACE010E944919C7013A
:1035300004C0CE0102C080E090E0CDB7DEB7EEE07F
:103540000C94F31AFB01DC0102C001900D92415072
:103550005040D8F70895DC01CB01FC01F999FECF6A
:1035600006C0F2BDE1BDF89A319600B40D9241500B
:103570005040B8F70895DC01CB0103C02D910E94A3
:10358000C61A41505040D0F70895262FF999FECF22
:103590001FBA92BD81BD20BD0FB6F894FA9AF99A70
:1035A0000FBE019608952F923F924F925F926F92B5
:1035B0007F928F929F92AF92BF92CF92DF92EF92C3
:1035C000FF920F931F93CF93DF93CDB7DEB7CA1B44
:1035D000DB0B0FB6F894DEBF0FBECDBF09942A886F
:1035E000398848885F846E847D848C849B84AA8417
:1035F000B984C884DF80EE80FD800C811B81AA81A4
:10360000B981CE0FD11D0FB6F894DEBF0FBECDBF6E
:08361000ED010895F894FFCFCD
:1036180000004804800052656164616464726573E7
:10362800733A20004144432056616C75653A203056
:103638007800207C200000000000CE05000000007B
:10364800CF0543757272656E74206D656E75206E58
:10365800616D653A20003C3C3C20004865616C7413
:10366800687920704820536869656C6420446961F2
:10367800676E6F7374696320546573747320004CAC
:1036880045440070756D70730070480053504900D0
:1036980074656D7065726174757265007365742008
:1036A8005245534554204849474800736574205291
:1036B80045534554204C4F57007265616420434F71
:1036C8004E464947206279746573007365742043D8
:1036D8004F4E464947203120746F203234206269AA
:1036E800747320616E64204F53523D323536007238
:1036F80065616420414443005475726E204C454412
:10370800206F6E005475726E204C4544206F6666BB
:10371800005465737420446F776E2050756D702067
:1037280028562B203D20636F6E6E20352C20535772
:10373800203D20636F6E6E20362900546573742017
:1037480055702050756D702028562B203D20636FD2
:103758006E6E20372C205357203D20636F6E6E20ED
:1037680038290043616C6962726174650052656151
:1037780064002D2D2D3E20696E2043616C696272B4
:10378800617465207048342E2020704820342069E8
:103798006E206D563A20002D2D2D3E20696E204357
:1037A800616C696272617465207068372E202070C0
:1037B80048203720696E206D563A2000000000002E
:1037C800150F8110950EB00EA20EF30E6E616E00ED
:0A37D800696E66006F7666002E0031
:00000001FF
